:100000000C94BB030C9402040C9402040C940204A0
:100010000C9402040C9402040C9402040C94020448
:100020000C9402040C9402040C9453200C940F20A2
:100030000C942B270C9402040C9402040C940204DC
:100040000C9402040C9402040C9402040C94020418
:100050000C9402040C9407270C9402040C940204E0
:100060000C9402040C9402040C9402040C940204F8
:100070000C9402040C9402040C9402040C940204E8
:100080000C9402040C9402040C9402040C940204D8
:100090000C9402040C9402040C9402040C940204C8
:1000A0000C9402040C9402040C940204050109024D
:1000B000A10185020901A100050919012905150001
:1000C00025019505750181029501750381010501E1
:1000D000093009311581257F950275088106093897
:1000E0001581257F950175088106050C0A380215D2
:1000F00081257F950175088106C0C005010980A191
:1001000001850319012AB700150126B7009501756D
:10011000108100C0050C0901A101850419012AA064
:1001200002150126A002950175108100C005010984
:1001300006A1018505050719E029E71500250195A8
:1001400008750181020507190029EF1500250195A1
:10015000F0750181020508190129059505750191C0
:1001600002950175039101C00660FF0961A10109B3
:1001700062150026FF0095207508810209631500AD
:1001800026FF00952075089102C005010906A1010E
:10019000050719E029E71500250195087501810279
:1001A0009501750881010507190029FF150026FF33
:1001B0000095067508810005081901290595057542
:1001C000019102950175039101C000010101010136
:1001D0000101010102020202020202020203030300
:1001E00003030303030404040404040405050505D0
:1001F0000506060606060707070707080808080990
:100200000909090A0A0A0B0B0B0C0C0C0D0D0D0E3B
:100210000E0E0F0F0F1010111111121213131414D0
:10022000151516161717181819191A1A1B1B1C1D45
:100230001D1E1E1F2020212222232424252626279E
:100240002829292A2B2C2D2D2E2F303132323334D0
:1002500035363738393A3B3C3D3E3F4041424344D6
:1002600045464748494A4C4D4E4F505153545556B8
:1002700058595A5B5D5E5F616264656668696B6C64
:100280006D6F7072737577787A7B7D7E80828385DF
:1002900087888A8C8E8F91939596989A9C9EA0A21F
:1002A000A3A5A7A9ABADAFB1B3B5B7BABCBEC0C229
:1002B000C4C6C9CBCDCFD1D4D6D8DBDDDFE2E4E7ED
:1002C000E9EBEEF0F3F5F8FAFDFFFFAA7F554022C7
:1002D00023252628292A2C2D2F3032333536383A3B
:1002E0003B3D3E4042434547494A4C4E5051535591
:1002F00057595A5C5E6062646668696B6D6F7173B2
:100300007577797B7D7F81838587898A8C8E9092B2
:100310009496989A9C9E9FA1A3A5A7A8AAACAEAFBD
:10032000B1B3B4B6B8B9BBBCBEBFC1C2C3C5C6C702
:10033000C9CACBCCCDCED0D1D2D2D3D4D5D6D7D7B3
:10034000D8D9D9DADADBDBDBDCDCDCDCDCDDDDDDFB
:10035000DDDCDCDCDCDCDBDBDBDADAD9D9D8D7D7F7
:10036000D6D5D4D3D2D2D1D0CECDCCCBCAC9C7C6A4
:10037000C5C3C2C1BFBEBCBBB9B8B6B4B3B1AFAEE2
:10038000ACAAA8A7A5A3A19F9E9C9A989694929088
:100390008E8C8A89878583817F7D7B797775737160
:1003A0006F6D6B6968666462605E5C5A595755533D
:1003B00051504E4C4A4947454342403E3D3B3A38F6
:1003C00036353332302F2D2C2A2928262523222971
:1003D000001E001F00200021002200230024002511
:1003E00000260027002D002E002A004E002B0014AE
:1003F000001A000800150017001C0018000C00125D
:100400000013002F00300031004C003900040016AA
:1004100000070009000A000B000D000E000F00335A
:10042000003400280000000000E10000001D001B57
:1004300000060019000500110010003600370038D2
:1004400000E50052000000E000E300E200000000D0
:100450000000002C000000E6000151E400500051B3
:10046000004F000000005C3A003B003C003D003EB5
:10047000003F0040004100420043004400450001AD
:100480000001000100010001000100010001000164
:100490000001000100010001000100010001000154
:1004A0000001000100010001000100010001000144
:1004B0000001000100010001000100000000000136
:1004C0000000000100010001000100010001000125
:1004D0000001000100010001000100000001000115
:1004E0000001000000000000000100000001000108
:1004F00000010001000100010000000100010001F5
:1005000000010001000100010001000100010001E3
:1005100000010001000100010001000100010001D3
:1005200000010001000100010001000100010001C3
:1005300000010001000100010001000100010001B3
:1005400000010001000100010001000100010001A3
:100550000000000000010000000100010001000196
:100560000001000100010001000100010001000183
:100570000000000100010001000000000000000177
:100580000000000100010001000100010001000065
:100590000001000100010001000100010001000153
:1005A0000001000100010001000100010001000143
:1005B0000001000100010001000100010001000133
:1005C0000001000100010001000100010001000123
:1005D0000001000100010001000100010001000113
:1005E0000001000100010000000000010000000106
:1005F00000010001000100010001000100010001F3
:1006000000010001000100000001000100010000E4
:1006100000000000000100000001000100010001D5
:1006200000010001000000000000000000000000C8
:1006300000000000000000000000007E0F00D4FF5A
:10064000FFFFC70000007800000000000000002A43
:100650002B28000000000000000000000000000047
:10066000000029000000002C1E3420212224342602
:1006700027252E362D3738271E1F202122232425FB
:10068000263333362E37381F0405060708090A0BB0
:100690000C0D0E0F101112131415161718191A1B22
:1006A0001C1D2F3130232D350405060708090A0BC0
:1006B0000C0D0E0F101112131415161718191A1B02
:1006C0001C1D2F3130354C32190A00047F3F1F6446
:1006D0003214643214783C1E1E140A0509025B00B1
:1006E000030100A0FA09040000010301010009212F
:1006F000110100012240000705810308000A0904D6
:100700000100020300000009211101000122220062
:1007100007058203200001070503032000010904E7
:100720000200010300000009211101000122BC00A8
:100730000705840320000A1201100100000008547C
:100740004D02000100010203010403300000001209
:10075000036D0074003600360030004B0045005930
:100760000000000C036D00740036003600300000FD
:1007700000040309040011241FBECFEFDAE0DEBF3E
:10078000CDBF04B603FE27C08091050390910603F8
:10079000A0910703B09108038730904BA740B04B5E
:1007A000D1F41092050310920603109207031092E1
:1007B000080314BE84B7877F84BF0FB6F894A8954A
:1007C00080916000886180936000109260000FBE8D
:1007D000E0E0F8E3099523E0ACE9B1E001C01D9247
:1007E000A530B207E1F711E0A0E0B1E0E4E0F2E506
:1007F00002C005900D92AC39B107D9F70E942E21A5
:100800000C94B5280C940000E8EDF0E080818E7F18
:1008100080831092E2001092DA001092E100A0EEC4
:10082000B0E08C9181608C9380818F77808319BC3C
:10083000A7EDB0E08C918E7F8C9380818F7E80833A
:100840001092D20208952091E4003091E50095E6DF
:10085000A9012091EC00822F817020FF06C08091B9
:10086000E80080FF06C080E008952091E80022FDA6
:100870001AC080910003882389F0853089F0809127
:10088000EB0085FD0FC02091E4003091E500421798
:100890005307F9F29150E1F684E0089582E008955B
:1008A00083E0089581E00895EF92FF920F931F93E4
:1008B000CF937C018B010E942304C82F811117C0A4
:1008C0008091E80085FD0BC08091E8008E778093D1
:1008D000E8000E942304882399F3C82F08C0F70179
:1008E00081917F018093F1000150110949F78C2F0C
:1008F000CF911F910F91FF90EF900895CF93FC013E
:1009000080910003843001F5C091E900CF702091FF
:10091000EC00922F917020FD90E8C92B82E080932B
:10092000E9008091E80080FF0CC050E040E060E208
:1009300070E0CF010E9454048091E8008E7780938C
:10094000E800CF70C093E900CF9108958091F8023C
:1009500087FF13C08091E80082FF06C08091E80005
:100960008B778093E80004C0809100038111F2CF5F
:100970000895809100038823D9F38091E80080FFD7
:10098000F8CF8091E8008E77ECCF982F9093E90014
:10099000242F762F50E0891731F07091EC002091D0
:1009A000ED005091F00021FD07C09F5F973071F777
:1009B0008093E90081E008953091EB003E7F309311
:1009C000EB003091ED003D7F3093ED003091EB0076
:1009D00031603093EB007093EC002093ED00509366
:1009E000F0002091EE0027FDE0CF80E00895CF9247
:1009F000DF92EF92FF920F931F93CF93DF93C8ED97
:100A0000D0E088818F7E8883E7EDF0E0808181608F
:100A1000808384E082BF81E08093D20288818E7FD0
:100A2000888302EE10E0F80110821092DA0081EE65
:100A3000C82ED12CF601108288818F778883888117
:100A40008068888388818F7D888319BC1092000319
:100A50001092F7021092F6021092F50290EEE92E33
:100A6000F12CF70180818B7F80838881816088836E
:100A700042E060E080E00E94C504F60180818E7F44
:100A80008083F80180818160808380818860808399
:100A9000F70180818E7F8083888180618883DF91E8
:100AA000CF911F910F91FF90EF90DF90CF9008951D
:100AB000FC018091FE029091FF0286179707A0F03B
:100AC0006115710529F49091E8009E779093E800F4
:100AD00090E06115710551F4911108C08091E80012
:100AE00082FF34C080E00895BC01F2CF8091000302
:100AF0008823C1F18530C1F18091E80083FD30C0C9
:100B00008091E80082FDEACF8091E80080FFE1CF8C
:100B10008091F3002091F200382F6115710519F0D2
:100B20002830310558F091E02830310509F090E087
:100B30002091E8002E772093E800CBCF819180931D
:100B4000F100615071092F5F3F4FE7CF80910003A3
:100B5000882341F0853041F08091E80083FFBECFCB
:100B600081E0089582E0089583E008958091000374
:100B7000843011F482E0089581E008950895809111
:100B8000D40208959091AD02803F41F48091AE026D
:100B900087FD1092AE02992371F00895813F29F4E8
:100BA0008091AE021816ACF3F6CF823F81F497FF26
:100BB000F2CF1092AD028091AE029091AF02892BDC
:100BC0009091B002892B49F71092A8020895833FB3
:100BD00019F4191674F3DFCF893F39F48091AF020D
:100BE0001816CCF61092AF02D6CF8A3F29F4809126
:100BF000AF0287FFD0CFF6CF8B3F39F48091B002A0
:100C000087FFC9CF1092B002C6CF8C3F29F48091E4
:100C1000B0021816BCF3BFCF843F31F48091AC0210
:100C20008E7F8093AC02B7CF853F21F48091AC02D8
:100C30008D7FF7CF863F21F48091AC028B7FF1CF7F
:100C4000873F21F48091AC02877FEBCF883F21F46E
:100C50008091AC028F7EE5CF8D3F31F480918D0283
:100C60008E7F80938D0297CF8E3F21F480918D02ED
:100C70008D7FF7CF8F3F09F08ECF80918D028B7FD4
:100C8000F0CF80918D0280FD16C081FD16C082FDDF
:100C900016C08091A8028823A1F0883280F428E051
:100CA000829FC001112468E270E00E948027862F95
:100CB000672B39F0089582E0089584E0089588E074
:100CC000089581E0089580918D0280FD14C081FD1A
:100CD00014C082FD16C08091A802882381F084315F
:100CE00080F422E3829FC001112464E170E00E943D
:100CF0008027862F08958CE0089589E1089585E086
:100D0000089582E30895803F31F40E94630681953F
:100D10008093AE020895813F19F40E946306F8CFD4
:100D2000823F31F40E94630681958093AD0208955D
:100D3000833F19F40E946306F8CF893F29F40E948B
:100D400041068093AF0208958A3F21F40E94410634
:100D50008195F7CF8B3F31F40E94410681958093B6
:100D6000B00208958C3F19F40E944106F8CF843FE9
:100D700031F48091AC0281608093AC020895853F8C
:100D800021F48091AC028260F7CF863F21F48091FC
:100D9000AC028460F1CF873F21F48091AC0288607F
:100DA000EBCF883F21F48091AC028061E5CF8D3F8D
:100DB00031F480918D02816080938D0208958E3F81
:100DC00021F480918D028260F7CF8F3FB9F7809137
:100DD0008D028460F1CF9C014FB7F8948091CE02D0
:100DE0009091CF02A091D002B091D1024FBF821B4F
:100DF000930B08952FB7F8948091CE029091CF0273
:100E0000A091D002B091D1022FBF0895E0919B0232
:100E1000F0919C02309749F082E08093AB0204800D
:100E2000F581E02D8BEA92E009950E94FA069093F5
:100E3000A7028093A60208958091880281111092E2
:100E4000880208958091870290918602892B909163
:100E50008502892B80939C01909188029923A1F0AF
:100E6000892B80939C0180911B01882341F1809103
:100E7000980287FF24C08EE1EEE9F1E090E0815016
:100E800000F591110E941C07E0919B02F0919C02D9
:100E90003097E1F080911B01882359F080919802EE
:100EA00087FF07C080919C0180939D0185E080931E
:100EB0009C010280F381E02D8CE991E0099486E0A9
:100EC000DBCF21912223D9F29F5FD9CF0895909152
:100ED0001B019923D1F09091980297FF16C0E82F3B
:100EE000E695E695E695EE31E0F4F0E0E456FE4F47
:100EF000282F277081E090E001C0880F2A95EAF73B
:100F000080959281892382830895EEE9F1E09191A1
:100F1000891303C0DF0111971C9291E0E43AF907AD
:100F2000B1F7089590911B019923C1F09091980217
:100F300097FF14C0E82FE695E695E695EE31F8F4B4
:100F4000F0E0E456FE4F877021E030E001C0220F50
:100F50008A95EAF78281822B82830895AEE9B1E017
:100F6000EFEF90E02D91821751F0EF3F19F421112E
:100F700001C0E92F9F5F9630A9F7EF3F09F408956C
:100F80000E2E000CFF0BE456FE4FE6CF2FE0929F93
:100F9000800D1124982F977086958695869525E06B
:100FA000829FF0011124EE5AFD4F50E040E080E0B6
:100FB000219130E0092E02C0369527950A94E2F778
:100FC00021703327042E01C0220F0A94EAF7822BE6
:100FD0004F5F5F4F4530510559F708952FE0929FBD
:100FE000800D1124982F977041E001C0440F9A950D
:100FF000EAF786958695869595E0899FF0011124FC
:10100000EE5AFD4F90E080E070E05191DF011197C2
:101010009B01082E02C0369527950A94E2F72170AD
:1010200021952527242325272C930196853091058A
:1010300061F708958091510290912002981301C0A8
:1010400008958F5F8770FACF882341F08095909143
:1010500087028923809387020C94220708958823AE
:1010600039F090918702982B909387020C94220775
:10107000089520911602309117022817390771F050
:101080009093170280931602E0919B02F0919C02CC
:10109000309721F00084F185E02D09940895209186
:1010A0001402309115022817390771F09093150238
:1010B00080931402E0919B02F0919C02309721F002
:1010C0000680F781E02D099408951092860210920F
:1010D00085020E94220786E0EBEAF2E0DF011D9222
:1010E0008A95E9F71092A80210928D020E940607D5
:1010F00090E080E00E944F0890E080E00C94390876
:10110000609301037093020380930303909304039D
:101110000C9465080F931F93609101037091020373
:1011200080910303909104038B019C0106701127A9
:1011300022273327063011052105310529F468607F
:101140001F910F910C948008677FFACF0F931F9324
:1011500041E050E060E070E004C0440F551F661F9E
:10116000771F8A95D2F7CB01BA016095709580956B
:101170009095009101031091020320910303309197
:10118000040360237123822393231F910F910C94F6
:101190008008909184028095892380938402282F6F
:1011A000277071F4282F082E000C330B92171306AA
:1011B00039F08595859585950E94A6081092840240
:1011C00008950F931F9341E050E060E070E004C089
:1011D000440F551F661F771F8A95D2F78091010330
:1011E00090910203A0910303B09104038A019B0133
:1011F000082B192B2A2B3B2BC901B8011F910F91EA
:101200000C9480086093890270938A0280938B0209
:1012100090938C020C946508E0919B02F0919C02E3
:10122000309721F00190F081E02D099480E008953D
:10123000882309F459C0823871F40E940C0981FF97
:1012400053C089E30E9492070E94220789E30E940B
:1012500067070C942207833859F40E940C0980FF19
:1012600043C083E50E9492070E94220783E5EFCFE7
:10127000843859F40E940C0982FF36C087E40E942A
:1012800092070E94220787E4E2CF9CEF980F913AE1
:10129000F0F290E2980F983088F4877021E030E007
:1012A000A90102C0440F551F8A95E2F7CA01809533
:1012B00090918702892380938702CBCF9BE5980F7B
:1012C000933020F490E080E00C944F0898E5980F5C
:1012D000973120F490E080E00C943908803F20F0B2
:1012E0000E94C2050C9406070895FA01811101C0FD
:1012F000FB0109948091BF02982F9E7F61F4817059
:1013000082608093BF028091C202853B18F084EB1B
:101310008093C20208958635B0F381708465F1CF61
:10132000AF92BF92DF92EF92FF920F931F93CF93F2
:10133000DF93182F062FE901453B08F044EBE42F1B
:10134000F0E0E653FE4F011110C0E4915E2F4E2FE6
:101350004983E8835A83DF91CF911F910F91FF90CA
:10136000EF90DF90BF90AF900895202F30E0449130
:10137000D42EE42EF12C56E0159FC0011124EFEF7E
:10138000F0E0BF010E946C27812F90E0880F991F29
:1013900055E5569FD001579FB00D11248A1B9B0B1A
:1013A000982F990F890F5F01A21AB30AAE9CD00142
:1013B000AF9CB00DBE9CB00D11245B2F089F800127
:1013C0001124012F11275F01A01AB10AAE9C8001E0
:1013D000AF9C100DBE9C100D11245F01A81AB1081E
:1013E000A29EC001A39E900DB29E900D1124892F44
:1013F0009927E81BF90BEE9DC001EF9D900DFE9D16
:10140000900D1124E92F62307105A1F050F461159F
:10141000710509F49DCF6130710581F0EB2F512FDB
:1014200097CF6430710569F080F06630710509F47A
:101430008FCFF4CFE42F4B2F592F8ACFE42F412F9A
:1014400087CFEB2F542F492F83CF4B2F5D2DE12FCB
:101450007FCF9091980292FF06C0282F28712830E4
:10146000F9F4877F846093FF06C0282F2871283104
:10147000F1F4877E84612091990220FF06C0382F05
:1014800038713830D9F4877F816021FF06C0282F5A
:1014900028712831D1F4877E816194FD877E08957B
:1014A000282F24712430F9F68B7F8860DCCF282F19
:1014B0002471243101F78B7E8861DDCF382F3171A3
:1014C000313019F78E7F8860E0CF282F21712131CC
:1014D00021F78E7E8861E1CFCF93DF9300D00F920A
:1014E000CDB7DEB790910003943011F589837B83EB
:1014F0006A839093E9008FEF9091E800815095FD09
:1015000006C095ED9A95F1F700008111F5CF809115
:10151000E80085FF0DC050E040E063E070E0CE01E0
:1015200001960E9454048091E8008E778093E80031
:101530000F900F900F90DF91CF910895CF93DF938D
:10154000EC010E94B605823011F0843031F4BE0106
:1015500084E0DF91CF910C946C0ADF91CF910895D4
:10156000BC0183E00C946C0ACF93DF93EC010E94E2
:10157000B605823011F08430F9F484E08093E900FC
:101580008FEF9091E800815095FD06C095ED9A95FA
:10159000F1F700008111F5CF8091E80085FF0CC0C4
:1015A00050E040E066E070E0CE010E94540480917B
:1015B000E8008E778093E800DF91CF910895CF9374
:1015C000DF93EC010E94B605823011F08430B9F54A
:1015D00080911B018823B1F18091980287FF32C06E
:1015E00060E284E08093E9008FEF9091E800815001
:1015F00095FD06C095ED9A95F1F700008111F5CFA4
:101600008091E80085FF1BC080911B0170E050E0D5
:1016100040E0811104C050E040E068E070E0CE019D
:101620000E9454048091E8008E778093E80080E265
:10163000FE01A5EDB2E001900D928A95E1F7DF91F0
:10164000CF91089568E081E0CDCF81E08093E00004
:1016500080E28093D8001092C9008FE19EE4019748
:10166000F1F700C0000087E090EBDC0180930503F8
:1016700090930603A0930703B093080388E19CE0CE
:101680000FB6F894A895809360000FBE9093600009
:10169000FFCFCF93C82F882309F4AEC08238C1F49E
:1016A0000E940C0981FDA8C089E30E9492070E9454
:1016B00022072FEF81EE94E0215080409040E1F727
:1016C00000C0000089E30E946707CF910C942207B5
:1016D0008338A1F40E940C0980FD8EC083E50E942E
:1016E00092070E9422072FEF81EE94E02150804064
:1016F0009040E1F700C0000083E5E5CF8438A1F415
:101700000E940C0982FD78C087E40E9492070E9423
:1017100022072FEF81EE94E0215080409040E1F7C6
:1017200000C0000087E4CFCF8CEF8C0F813A88F5A2
:1017300080911B01882301F18091980287FF1CC0D2
:10174000EC2FE695E695E695F0E0E456FE4F8281B3
:1017500090E04C2F477021E030E002C0220F331F91
:101760004A95E2F782239323892B79F08C2F0E94EC
:1017700067070E94220709C0EEE9F1E08191C817CE
:10178000A9F321E0E43AF207C9F78C2F0E949207EF
:101790009CCF80E28C0F883068F4C77021E030E085
:1017A00001C0220FCA95EAF780918702822B8093AD
:1017B00087028BCFEBE5EC0FE33040F4F0E0E95B20
:1017C000FE4F808190E0CF910C944F08E8E5EC0F3C
:1017D000E73150F4F0E0EE0FFF1FE65BFE4F808133
:1017E0009181CF910C943908C03F30F08C2F0E942A
:1017F0008306CF910C940607CF910895CF93C82FFD
:101800000E94490BC93349F42FEF87EE93E0215032
:1018100080409040E1F700C000008C2FCF910C94E5
:1018200018090F931F93CF93DF93C62FD42F022F46
:10183000FC0182818823A1F0609318020E94FA06BD
:101840009093130280931202C77081E001C0880F49
:10185000CA95EAF7DF91CF911F910F910C942F0851
:1018600010911802161335C0809112029091130244
:101870000E94EB06883C910560F5C0E2CD0F1D1774
:10188000B9F080E2810F883040F4177081E001C028
:10189000880F1A95EAF70E942408C83048F481E0BE
:1018A0009D2F977001C0880F9A95EAF70E942F0824
:1018B000802F0E94FE0BC83098F4D77081E001C0E1
:1018C000880FDA95EAF7DF91CF911F910F910C9471
:1018D0002408C77081E001C0880FCA95EAF7F3CFEA
:1018E000DF91CF911F910F9108958091BF0280FDEC
:1018F0000AC0E2ECF1E0118210821282339651E0CC
:10190000E03EF507C1F76A9A3EB13B7F2EB12460F5
:101910004FB7F89482EC91E0FC015191CF0168E05F
:101920002EB9000000C057FF3EB9550F000000C09F
:1019300000C000C03EB900C06A9591F7F1E0803E5A
:101940009F0751F74FBF8FE594E00197F1F700C073
:1019500000000895EF92FF921F93CF93DF93EC0165
:1019600082ECE82E81E0F82E10E08C819701409106
:10197000C2026091C102810F0E949009175E83E04C
:10198000E80EF11C1A3F89F70E94750C9A818C8130
:1019900090FF08C08F5F8C83DF91CF911F91FF90E4
:1019A000EF9008958150F7CFBF92CF92DF92EF92E0
:1019B000FF920F931F93CF93DF93FC018281DD246D
:1019C000DA9480FD02C0DD24D39402EC11E0D0E073
:1019D000C0E02AE0B22EF80111821082128294E057
:1019E000E92EF12CC12C8091BF018C0D8B300CF4B1
:1019F0003DC06B2D0E945E27892F082E000C990B8D
:101A00008C179D0791F48091C2028E9DA0018F9D3D
:101A1000500D11245595479555954795980160911E
:101A2000C1028091C0020E949009CD0CF1E0EF1A32
:101A3000F108C9F621960D5F1F4FCA30D10559F63E
:101A40000E94750C8091BF0191E0D91215C08111DF
:101A500011C089E08093BF01DF91CF911F910F9159
:101A6000FF90EF90DF90CF90BF90089587FFC5CF94
:101A7000865FC3CF8150EECF90E00196BE010E94F9
:101A80008027E8CF0F931F93CF93DF93C2ECD1E071
:101A9000FE01118210821282339681E0E03EF80747
:101AA000C1F710E000E08091C001082E000C990BF6
:101AB000081719078CF180911001082E000C990B62
:101AC000801791074CF19E014091C2026091C102C2
:101AD0008091C0020E9490090F5F1F4F23960A3029
:101AE000110509F70E94750C80910F019091C001BA
:101AF000980F9093C00120911001280F209310019E
:101B0000121614F499301CF0819580930F01DF9127
:101B1000CF911F910F910895198218821A82DCCFFC
:101B2000EF92FF920F931F93CF93DF93EC018C8181
:101B30009D810196817099279D838C8382ECE82E8C
:101B400081E0F82E10E005E5812F86952C813D81FE
:101B5000820F932F911D817097014091C202609175
:101B6000C102809F802D11240E9490091F5F83E095
:101B7000E80EF11C1A3041F7DF91CF911F910F91C0
:101B8000FF90EF900C94750CEF92FF920F931F93C0
:101B9000CF93DF938C01C2ECD1E0F12CE12CF80162
:101BA00094816091C1028091C002F5E0EF16F104CA
:101BB000FCF49923F9F09E014091C2020E94900921
:101BC0002FEFE21AF20A23968AE0E816F10439F7B9
:101BD0000E94750CF801848190E00196817099272C
:101BE0008483DF91CF911F910F91FF90EF90089523
:101BF000992309F39E0140E0E1CF9091BF0290FF4D
:101C00000CC0E2ECF1E0818360834283339691E083
:101C1000E03EF907C1F70C94750C08950F931F93DC
:101C2000CF93DF9300D00F92CDB7DEB78C018091B8
:101C3000C10181110AC09E012F5F3F4F44EB6FEF3E
:101C40000E9490098A818093C101F801648161300A
:101C500069F08091C10140E0662361F040E06230AC
:101C600011F44091C10180E060E004C06091C101C5
:101C700040E080E00E94FD0DF801848190E0019633
:101C800063E070E00E94802784830F900F900F9094
:101C9000DF91CF911F910F910895CF93DF9300D0E3
:101CA0000F92CDB7DEB79091BF0290FF0AC09E01A0
:101CB0002F5F3F4F0E9490094B8169818A810E946A
:101CC000FD0D0F900F900F90DF91CF910895CF935E
:101CD000DF93EC01EC81F0E0E153FD4F4491EFEB39
:101CE000F2E0628181810E944D0E8C818F5F8C8336
:101CF000DF91CF910895CF93DF93EC01EFEBF2E00A
:101D0000438162818C810E944D0E8C818F5F8C8318
:101D1000DF91CF9108952F923F924F925F926F92F1
:101D20007F928F929F92AF92BF92CF92DF92EF926B
:101D3000FF920F931F93CF93DF9368E771E090E0DA
:101D400080E0C0E001E010E048E9642E42E0742E3B
:101D5000DB012D91BD01E22FE295EF70F0E031A1A2
:101D60002F70580101C0AA0C2A95EAF7232F2A29BF
:101D700021A322A1DA2DD0952D2322A3B0EABA9572
:101D8000F1F77801082E02C0EE0CFF1C0A94E2F76E
:101D90004701809490942EE8222E22E0322E37E8DC
:101DA000C32E31E0D32E512CD1014D915D911D01F7
:101DB000D6014D906D01242D22952F7030E0D90170
:101DC00090962C9130E0B42DBF7002C035952795C8
:101DD000BA95E2F720FD5CC09A012E293F294217EF
:101DE000530741F0A10142505109DA012D933C9370
:101DF0005524539462147304B9F621A1D223D1A3BC
:101E000022A1A22AA2A2C52901968F30910509F02C
:101E10009FCFCC2309F440C081E08093BE010E9493
:101E2000FA069093BD018093BC018091BC01909112
:101E3000BD010E94EB06069798F180918E02909169
:101E40008F029093C5028093C4028091900290917A
:101E500091029093C7028093C60280919202909162
:101E600093029093C9028093C8028091940290914A
:101E700095029093CB028093CA0280919602909132
:101E800097029093CD028093CC021092BE0108C0BD
:101E90009A0128213921A3CF8091BE018111C5CF9C
:101EA0008C2FDF91CF911F910F91FF90EF90DF90DA
:101EB000CF90BF90AF909F908F907F906F905F90EA
:101EC0004F903F902F900895CF9384E090E00E9430
:101ED0000A28C82F81E290E00E940A28982F8C2FB0
:101EE000CF9108950F931F93CF93DF93C42FD0E02A
:101EF000CC0FDD1F2EE1629FC00DD11D112436E9EC
:101F0000839FC00DD11D1124CE0187960E940A28FF
:101F1000082F10E0102F0027CE0188960E940A2873
:101F20009801282BC901DF91CF911F910F9108953E
:101F3000462F843038F4753028F46F3018F4672F4A
:101F40000C94720F90E080E00895CF93DF930E948D
:101F5000980FEC0182389105A9F1D8F581339105EC
:101F600009F496C048F58932910509F48AC08A9728
:101F700009F495C0C11521E5D20708F0BCC0C11510
:101F800030E5D30708F014C1C83ED10508F09CC065
:101F9000C03ED10560F5C83AD10508F087C0C53A02
:101FA000D10508F0FDC0C130D10509F12097F9F045
:101FB000C430D105E0F440C08533910509F45AC01E
:101FC000C997C1F680919802837089F0C0EED0E085
:101FD0000EC0833E910599F170F4803E910501F1A8
:101FE000823E910539F68091980282FD21C0CE0192
:101FF000DF91CF910895863E910561F1873E91056D
:1020000071F1843E910509F0B5CF8091990281FF6D
:10201000EECF80919802C7EED0E084FD0DC0E7CFEF
:102020008091980280FD12C19091990290FFDFCFBC
:10203000C3EED0E084FFDBCFD0E0C0E0D8CF80910A
:10204000980282FD06C19091990290FDBFCF84FF56
:10205000CECFF2CF8091980283FDDDCFC8CF8091A3
:10206000980283FDF9C09091990291FFF0CFC4EEE0
:10207000D0E0BDCF8091980285FFB9CFC9E2D0E012
:10208000B6CF8091980285FFB2CFC5E3D0E0AFCF45
:102090008091980286FFABCFCAE2D0E0A8CF8091B2
:1020A000980286FFA4CFC1E3D0E0A1CFCF3BD105FA
:1020B00018F6C85AD0E0CC0FDD1FC65BDE4F099082
:1020C000D881C02DD46493CFC11540E2D40758F411
:1020D000C11581E0D80708F08ACFC03FD10508F4C8
:1020E000ABCFD06584CFC11590E4D90708F4A4CF55
:1020F000DF70D06A7CCFC11525E5D20700F5C11588
:1021000034E5D30708F08AC0C11543E5D40708F0C9
:1021100071C0C11582E5D80708F467C0CE0183708D
:10212000992721E030E002C0220F331F8A95E2F7A1
:10213000C695C69580E2C89FE001112452C0C11522
:1021400099E5D907A8F4C11528E5D20708F06BC0B6
:10215000C11536E5D30708F06FCF8C2F0E94290AEE
:10216000C82FD0E0DC2FCC27CC27DF71D0623FCF47
:10217000C1154AE5D40708F45BC0CE01905681151D
:10218000904208F059CF8D2F8F710E94290A90E05C
:10219000982F882788279F719C012C2BE901E6CF77
:1021A000C55AD0E0C95BDE4FC881D0E0D0641FCFF4
:1021B000CE01E4E096958795EA95E1F783702C2FA0
:1021C00026952695237040E2249F90011124382BF8
:1021D0008C2F8370C1E0D0E002C0CC0FDD1F8A9548
:1021E000E2F7C22BD32BDC6802CFDC2FCC27C16FE8
:1021F000D06AFDCECE018370992721E030E002C085
:10220000220F331F8A95E2F7C695C69590E2C99FC3
:10221000E0011124C22BD32BDA68E9CEDC2FCC27C6
:10222000C46FD06AE4CEDC2FCC27C06FD06ADFCE7B
:102230008C2F8F700E94290A34E0D695C7953A9565
:10224000E1F7CF709C2FEC01D069D1CEC9E3D0E08B
:10225000CECEC2EED0E0CBCEC6EED0E0C8CEBF929E
:10226000CF92DF92EF92FF920F931F93CF93DF9362
:102270008C01C0900103D0900203E0900303F09022
:1022800004038091890290918A02A0918B02B091FF
:102290008C02C82AD92AEA2AFB2ACFE1D0E0BC2E38
:1022A000D701C6010C2E04C0B695A79597958795C2
:1022B0000A94D2F780FD0EC0219788F7B12C8B2DA0
:1022C000DF91CF911F910F91FF90EF90DF90CF9012
:1022D000BF900895B8018C2F0E94A50F019761F35C
:1022E000EECFCF93DF93EC010E942F11BE01DF915F
:1022F000CF910C94A50F0E947111292F2F709295E8
:102300009F7092509E3078F4E92FF0E0E954F74D39
:102310000C949427803F19F020F4883E20F481E04B
:102320000895843FE1F380E00895883EC0F3813F43
:10233000D1F7F5CF822F86958695869508956F9271
:102340007F928F929F92AF92BF92CF92DF92EF9245
:10235000FF920F931F93CF93DF938FECC82E83E0F0
:10236000D82E9BEDE92EF12CE701C659D109360193
:102370001BC0F50185909490692DC8010E941E280C
:10238000682DC80101960E941E2882E0A80EB11C8B
:102390000E5F1F4FC017D10761F78EE1680E711CE9
:1023A0006E96CE15DF0529F08E010E5111095301ED
:1023B000E0CF7E0186E9E80EF11C86E9C80ED11C4B
:1023C00083E3E81683E0F80679F6DF91CF911F9159
:1023D0000F91FF90EF90DF90CF90BF90AF909F90C4
:1023E0008F907F906F900895CF93DF93CFE7D2E0E7
:1023F00060E0CE010E941E282196C11584E0D80716
:10240000B9F7DF91CF910895CF93C82F6FEF811166
:1024100060E282E290E00E941E286FEFC11169E045
:1024200083E290E00E941E286FEFC11168E184E210
:1024300090E0CF910C941E288F929F92AF92BF9202
:10244000CF92DF92EF92FF920F931F93CF93DF9380
:10245000FC01B280948081E08483C0EED1E002EC84
:1024600011E08BE4A82E88248394EE24EA94F12CC6
:102470002BE4C22ED12C91101DC01B821A82980110
:102480004A81698188810E94900925960D5F1F4FBE
:1024900082E0C231D80779F7DF91CF911F910F9178
:1024A000FF90EF90DF90CF90BF90AF909F908F9074
:1024B0000C94750C2B81222309F121502B833C8134
:1024C0008A2D821B311101C0822F9091C202899FF7
:1024D000C0011124B6010E946C276A83211104C037
:1024E000332311F01C82AB8222E02B1540F2809145
:1024F000C00288838091C1028983C1CF0E94ED27E9
:10250000823091400CF0BBCF82E08B15C0F40E946A
:10251000ED27B7010E948027888322E02B1590F4D5
:102520000E94ED272091C1022695622F70E00E9443
:102530008027280F29831A82AB828C82A0CF8091BA
:10254000C002EACF2091C102F5CF6CEE7EEF90E0A1
:1025500080E00E943C2860E082E090E00E941E281B
:1025600060E083E090E00E941E28109289021092A1
:102570008A0210928B0210928C0260E084E090E05C
:102580000E941E2860E081E290E00E941E2860E028
:1025900085E090E00E941E2860E086E090E00E94C6
:1025A0001E286FEF87E090E00E941E2840E050E078
:1025B000BA0188E090E00E94302860E08DE090E071
:1025C0000E941E2840E050E0BA0188E190E00E949D
:1025D000302860E087E190E00E941E2840E050E053
:1025E000BA018CE190E00E94302860E080E290E047
:1025F0000E941E2840E050E0BA018FE090E00E9467
:10260000302840E050E0BA0183E190E00C9430289B
:10261000CF92DF92EF92FF926B017C010E947A09C8
:10262000B701A60188E090E0FF90EF90DF90CF9097
:102630000C9430288091C302833018F48F5F80930C
:10264000C3026091BF027091C0028091C10290915B
:10265000C2020C9408138091C302882319F08150A0
:102660008093C3026091BF027091C0028091C10249
:102670009091C2020C9408135F926F927F928F9296
:102680009F92AF92BF92CF92DF92EF92FF920F9301
:102690001F93CF93DF9300D00F92CDB7DEB7182FE3
:1026A000762E042F622E9091BF0290FF29C0E92F51
:1026B000E695AE2FB0E0A45EBE4F8C918093BD0234
:1026C0009E7F923081F59E012F5F3F4F812F0E94A8
:1026D00090094B8169818A810E94FD0D1093C0028F
:1026E0007092C1020093C202662051F06091BF0255
:1026F0007091C0028091C1029091C2020E940813A1
:102700000F900F900F90DF91CF911F910F91FF903D
:10271000EF90DF90CF90BF90AF909F908F907F9081
:102720006F905F900895823019F40091C202D6CF65
:10273000863019F41091C002D1CF8930D9F3893194
:1027400069F6E9518E2F8170582EE695F0E0E65338
:10275000FD4FA590B490BB2482ECE82E81E0F82ECA
:10276000D12CC12C9AE0892E912CC601B4010E9473
:102770006C27812F511013C0860F9701402F672DB2
:102780000E949009CA0CDB1C83E0E80EF11C80EE6D
:10279000E81681E0F80649F70E94750C9FCF861B6A
:1027A000ECCFEFEBF2E0438128E0421B08F440E07D
:1027B00021E0628181810C943C13EFEBF2E04381D4
:1027C00028E0420F08F44FEF21E0628181810C94F0
:1027D0003C13EFEBF2E0628128E0621B08F460E05A
:1027E00021E0438181810C943C13EFEBF2E06281A4
:1027F00028E0620F08F46FEF21E0438181810C949F
:102800003C13EFEBF2E0818121E04381628188504B
:102810000C943C13EFEBF2E0818121E04381628173
:10282000885F0C943C13EFEBF2E083E0808311822D
:102830008FEF828384EB8383148260817181828134
:1028400093810C9408131092870280911B01EEE98A
:10285000F1E0882359F08091980287FF07C08EE14C
:10286000DF011D928A95E9F70C94650886E0F8CFA0
:102870001F93CF93DF93CDB7DEB7AA970FB6F89427
:10288000DEBF0FBECDBF88EF92E02091F100DC01EA
:102890002D93CD01B3E080309B07B9F78091F90209
:1028A000833009F471C0B8F4813009F448C0823033
:1028B00009F4B2C08091E80083FF3AC18091F80228
:1028C0009091F9029A3008F033C1E92FF0E0EB5310
:1028D000F74D0C9494278A3009F48DC08B3009F49D
:1028E00070C0893039F78091F802813219F78091F0
:1028F000FC029091FD02009711F00297D9F68091A9
:10290000E800877F8093E8008091E80082FF37C06D
:102910009091F3008091F200029729F48091F100E8
:102920008B7F813021F48091F1008093D4028091DB
:10293000E8008B778093E8000E94A604BBCF8091CB
:10294000F802813A09F0B6CF8091E800877F809342
:10295000E8008091FC029091FD02892B61F460E215
:1029600085ED92E070E00E9458058091E8008B7739
:102970008093E8009FCF60E090E080E0F3CF80910B
:1029800000038111C1CF96CF8091F802813A09F0FE
:1029900091CF8091FC029091FD02892B09F08ACFA2
:1029A0008091E800877F8093E8008091E80080FFB5
:1029B000FCCF80911B018093F1008091E8008E771D
:1029C000B9CF8091F802813209F074CF8091FC0276
:1029D0009091FD02892B09F06DCF8091E800877FEF
:1029E0008093E8000E94A6048091FA0280931B0164
:1029F0000E9423145FCF8091F802813209F05ACFF0
:102A00008091E800877F8093E8000E94A60480916F
:102A1000FB028093D3024ECF8091F802813A09F0F5
:102A200049CF8091E800877F8093E8008091E8009B
:102A300080FFFCCF8091D302BECF803899F08238DE
:102A400009F076C08091FC028F70873008F070C06A
:102A50008093E9008091EB0085FB882780F9109234
:102A6000E90006C08091F5029091F6029111826012
:102A70009091E800977F9093E8008093F100109286
:102A8000F1008091E8008E77C0C1882309F4ADC1C0
:102A9000823009F04DC08091FA028111B1C180915C
:102AA000FC028F702FEF280F263008F041C0809372
:102AB000E9002091EB0020FFA3C1933031F4809115
:102AC000EB0080628093EB009BC19091EB009061E2
:102AD0009093EB0021E030E001C0220F8A95EAF7E5
:102AE0002093EA001092EA008091EB008860EACF20
:102AF00081111EC01091FA021F778091E300807847
:102B0000812B8093E3008091E800877F8093E80029
:102B10000E94A6048091E80080FFFCCF8091E30032
:102B200080688093E30082E0111183E080930003CA
:102B30008091E80083FF0AC08091E800877F80933E
:102B4000E8008091EB0080628093EB00AA960FB6BC
:102B5000F894DEBF0FBECDBFDF91CF911F910895D6
:102B60008058823028F72091FA023091FB022C3DE8
:102B7000E3E03E07A1F583E08A838AE289834FB7C9
:102B8000F894DE01139620E03EE051E2E32FF0E0FE
:102B900050935700E49120FF03C0E295EF703F5F30
:102BA000EF708E2F90E0EA30C0F0C7968D939D9322
:102BB0002F5F243159F74FBF8091E800877F8093C2
:102BC000E8006AE270E0CE0101960E94580580910B
:102BD000E8008B778093E800ABCFC096E7CF809179
:102BE000FC029091FD02432F55274330510509F413
:102BF0004AC078F54130510509F485C08BE590E075
:102C0000ECEDF6E04230510509F092CF2091E8005A
:102C1000277F2093E8002091FE023091FF02821767
:102C2000930708F49C0140E02115310509F070C0BC
:102C300041116EC08091E80082FDC9CF80910003F0
:102C4000882329F2853019F28091E80083FFF2CFC2
:102C5000BECF4132510509F447C04232510509F057
:102C600067CF8330910508F063CFFC01EE0FFF1FA3
:102C7000E157FE4F0190F081E02D84579E4FDC011B
:102C80008C9190E01DC0332721303105E9F02115EA
:102C9000310579F022303105F9F02330310509F0A2
:102CA00047CFE9E4F7E0E4918E2F90E0E9E4F7E024
:102CB00007C0E1E7F7E0E4918E2F90E0E1E7F7E06D
:102CC000009709F435CFA2CFE3E6F7E0E4918E2F29
:102CD00090E0E3E6F7E0F4CFEFE4F7E0E4918E2F45
:102CE00090E0EFE4F7E0ECCF8330910508F020CFDF
:102CF000880F991FFC01EB56FE4F0190F081E02DEB
:102D000089E090E083CF82E190E0E7E3F7E07ECFD7
:102D100080910003882309F45ACF853009F457CFF6
:102D20008091E80083FD53CF8091E80082FD82CF3F
:102D30008091E80080FF78CF9091F3008091F200BD
:102D40002115310519F08830910550F041E00897C0
:102D500009F040E08091E8008E778093E80064CF2E
:102D600044914093F1003196215031090196E8CF0A
:102D7000803809F0DDCE8091E800877F8093E800FD
:102D80008091F7028093F1007CCE8111D1CE109119
:102D9000FA02123008F0CCCE8091E800877F809351
:102DA000E8001093F7020E94A604112311F084E0BA
:102DB00005C08091E30087FDFACF81E08093000396
:102DC00042E061EC81E00E94C50442E261EC84E0F3
:102DD0000E94C50442E261EC82E00E94C50442E226
:102DE00060EC83E00E94C504A3CE8091FA0281309A
:102DF00009F09ECE81E0933009F080E08093F602E6
:102E00001092E9008091E800877F8093E8000E949B
:102E1000A6048ECE9091BF0290FF3DC091708111AB
:102E200029C092609093BF02662351F06091BF0267
:102E30007091C0028091C1029091C2020E94081359
:102E40006091BF02669570E04BE050E084E091E055
:102E50000E94FD27892BA9F01092BE0281E0809389
:102E6000A10220E04091C2026091C1028091C002A3
:102E70000C943C138B3210F09465D4CF880F982BB0
:102E8000D1CF81E08093BE020E94FA0690939F0208
:102E900080939E02E3CF08958091BF028695815072
:102EA00009F48AE261E00C940A178091BF028695CA
:102EB0008F5F8B3208F081E061E00C940A179091EB
:102EC000BF0290FF07C09695981720F0961710F450
:102ED0000C94551761E00C940A174F925F926F9211
:102EE0007F928F929F92AF92BF92CF92DF92EF929A
:102EF000FF920F931F93CF93DF9300D000D00F92D8
:102F0000CDB7DEB77C01FC0183819481892B31F040
:102F10008081918189238F3F09F0EBC50F900F903D
:102F20000F900F900F90DF91CF911F910F91FF9015
:102F3000EF90DF90CF90BF90AF909F908F907F9059
:102F40006F905F904F9008950E942F11182F682F57
:102F500089819A810E94EE0769817A81812F0E947E
:102F6000980F8C01F7019281992309F4B7C5980154
:102F700022513F452031310508F089C58FEF93E09C
:102F80000E940A2802515FE7852E52E0952E882381
:102F900079F180918402877009F4C0CFF7018281B2
:102FA000882309F4BBCF82E00F900F900F900F9011
:102FB0000F90DF91CF911F910F91FF90EF90DF90D5
:102FC000CF90BF90AF909F908F907F906F905F90C9
:102FD0004F900C94C9088114F4E09F06D1F2C4010B
:102FE0000E940A28811101C001502FEF821A920A13
:102FF0000111F1CF1C821B82662463944AE0542E97
:1030000084010F5F1F4FC4010E940A2889831A821E
:10301000882309F4BECF9FEF980F933008F58A8379
:10302000698232E0830E911CC8010E940A288B83BA
:10303000882309F4AECF8E010F5F1F4FF801208166
:103040002223F1F2213009F043C091818281913035
:1030500049F40E5F1F4F0E94FE0B0F5F1F4FEECF14
:103060004801E9CF923029F40E5F1F4F0E94490BAF
:10307000F4CF933029F40E5F1F4F0E941809EDCF53
:10308000943019F00F5F1F4FE8CF0E5F1F4F30E0F5
:1030900020E0B8016F5F7F4FF80141818053990BA9
:1030A0008A30910550F021503109B8F28FE99FE044
:1030B0000197F1F700C00000F6CF529EF001539E39
:1030C000F00D11249C012E0F3F1F842F8B01E1CFA7
:1030D000E22FF0E0E95BF94F7490822F8695869598
:1030E000869590E0FC01E95CF94FA4902770B12C23
:1030F000022E02C0B594A7940A94E2F7E1E0AE2252
:10310000BB24FC01E95DF94FC490D12C02C0D594D9
:10311000C7942A95E2F7F1E0CF22DD24A114B1048F
:1031200019F081EE0E94490BC114D10419F086EE0A
:103130000E94490B872D0E94FE0BCD2819F086EEC8
:103140000E941809AB2809F488CF81EE96CF81E060
:103150000E94E1080E948A081CCF81E00E94A60814
:10316000F9CF82E0F5CF053F2CE5120709F461C0E5
:1031700008F45BC027E245EE66EE063F8CE51807D3
:1031800009F4A8C4992309F4C5C4109218020230A6
:10319000ECE51E0708F430C10631FCE51F0738F0E6
:1031A00098012A5F3C452930310508F025C10E946D
:1031B000640F909399028093980200312CE51207D6
:1031C00009F4E9C008F073C008308CE5180709F469
:1031D000D4C008F045C00430ECE51E0709F4C1C0B6
:1031E00078F502302CE5120709F4B5C080919802F9
:1031F000826003301C4509F4B1C0609198021091BF
:10320000990284E090E00E941E28612F81E290E004
:103210000E941E280E942314BCCE27E245EE65EED4
:1032200059C426E241EE60EE55C427E245EE64EE55
:1032300051C426E241EE62EE4DC428E241E0EFCFF8
:1032400006308CE5180709F494C0809198028860D4
:1032500007301C4508F482C08091980280627EC0CD
:10326000809198028D7F0C30ECE51E0709F476C042
:1032700070F4809198028C600A302CE5120709F4F2
:103280006DC008F47EC0809198028E7F67C00E30BA
:103290008CE5180709F47BC0809198028B7F0F3072
:1032A0001C4508F45BC0809198028F7E57C00B3F8D
:1032B000ECE51E0709F459C030F503312CE512077F
:1032C00009F471C078F401318CE5180709F467C07E
:1032D00002311C4509F091CF0E942314809198027D
:1032E0008F773CC00531ECE51E0709F464C008F493
:1032F00078C08091990281600A3F1C4509F07DCF1A
:10330000809399027ACF0F3F3CE5130709F44FC031
:1033100088F4809199028D7F0D3F9CE5190781F318
:10332000809199028E7F0E3F1C4550F38091990247
:103330008360E6CF0130FDE51F0709F45BC008F4A8
:1033400046C060E002301D4509F057CF8EE090E0A6
:103350000E941E2852CF809198028160809398022B
:103360004CCF809198028460F9CF8091990282605D
:10337000C7CF809198028061F1CF809198028064DC
:10338000EDCF0E942314809198028068E7CF80914E
:103390009802877FE3CF809198028F7DDFCF809165
:1033A00098028F7BDBCF80919802837FD7CF80916B
:1033B00099028C7FA5CF8091980282FB992790F982
:1033C00021E0922790FB82F990FB83F9C7CF80918F
:1033D0009902982F909591708E7F892B90FB81F99F
:1033E0008FCF0E94231490919802892F97FB87F921
:1033F0008058B4CF61E0AACF809187020631ECE516
:103400001E0709F093C38A7A91E009F490E0909343
:103410001902811106C089E20E9492070E942207C8
:10342000B8CD85E3F9CF85E37EC38091BF0280FFED
:103430001BC08E7F8093BF026091BF027091C0025B
:103440008091C1029091C2020E9408131092BE02A4
:10345000FFEF20E732E0F15020403040E1F700C0BC
:1034600000000E94750C95CD81608093BF0261E0E1
:1034700086950E940A178DCD4CE457E165E577E10A
:103480000E94750986CD45E557E16CE477E1F8CFF8
:1034900041E054E16AE074E1F3CF4AE054E161E0D5
:1034A00074E1EECF49EE53E165EF73E1E9CF45EF0B
:1034B00053E169EE73E1E4CF41ED53E16DED73E16A
:1034C000DFCF4DED53E161ED73E1DACF4BE253E134
:1034D0006AE173E1D5CF4AE153E16BE273E1D0CF0A
:1034E00061E081E0C6CF65E082E00E945F1751CDC8
:1034F00068E086E0FACF6EE089E0F7CF64E18FE024
:10350000F4CF67E185E1F1CF61E088E1B2CF62E21B
:1035100089E1EBCF61E083E2ACCF01158CE51807C0
:1035200009F447C00E3D1C4509F450C0F701008165
:103530001181992309F44DC0C8010E942F11D82E82
:10354000682FC8010E94EE07B8018D2D0E94A50FBB
:103550008C01882EF701A580A2943FE0A322D2809F
:10356000D1101092860280918402877099F0DD203C
:1035700089F0812F807F803421F080E2800F8830B5
:1035800048F082E00E94C908809184028770CC24B0
:10359000C3948111C12CB12EB2942FE0B222FBE072
:1035A000FB1508F450C0EB2DF0E0E153F74D0C94FF
:1035B00094270E942314FFEF24E33CE0F1502040C5
:1035C0003040E1F700C000000E94250B0E94A512C8
:1035D000E0CCC8010E94C607D82EB6CF212F2F708D
:1035E000A22E107F19F0A29490EFA922DD20C9F03D
:1035F000AA2069F080E2800F883010F081100BC0A3
:1036000080918702A82AA09287020E942207802F19
:103610000E94490B18C080918602A82AA0928602B7
:10362000F4CF802F0E941809AA2069F0A094005EB0
:10363000083010F081103BC080918702A822A09230
:1036400087020E942207EB2DE850FF0B349710F4FD
:103650000E940C09CC2009F461CC8091840280FD89
:103660005DCCF70112828595859585950E94E108CC
:10367000C7010E946D178091840285958595859577
:103680000F900F900F900F900F90DF91CF911F919F
:103690000F91FF90EF90DF90CF90BF90AF909F90F1
:1036A0008F907F906F905F904F900C94A6088091C0
:1036B0008602A822A0928602C4CF312F3F70932E9B
:1036C000107F103219F0929480EF9822882071F0C8
:1036D00091E0891661F1DD20B9F1AA2071F1F701BD
:1036E000858180FF94CF8F70858327C0DD2091F086
:1036F00090918802892D892BA11003C00E942F0868
:10370000A2CFE1E0AE12FACF981709F49CCF8093D4
:10371000880299CFA11006C00E941C07892D0E9423
:10372000240891CFF1E0AF1609F48DCFF5CFDD205D
:1037300031F025E02A1508F486CF892DDFCF34E05B
:103740003A1508F480CFEACFAA2041F3093349F4AF
:10375000FFEF27EE33E0F15020403040E1F700C0AA
:103760000000802F0E9418096ECF812F86958695C4
:10377000837061F0813009F066CFC8019370D11079
:1037800002C090E080E00E9439085DCFC8019370CC
:10379000D11002C090E080E00E944F0854CF802FEB
:1037A000DD2029F00E9483060E9406074CCF0E946C
:1037B000C205FACF812F837009F066C0D11043CFC4
:1037C000802F829586958770880F880F602F6F7085
:1037D000462E512C712C612C082E04C0440C551C13
:1037E000661C771C0A94D2F740E050E0BA0104FF4F
:1037F0000FC04FE050E060E070E004C0440F551F80
:10380000661F771F8A95D2F7409550956095709501
:10381000812F869586958370823019F1D8F40091B6
:10382000890210918A0220918B0230918C028130A2
:1038300069F04429552966297729CB01BA0160230B
:103840007123822393230E940209FDCE402A512A2C
:10385000622A732ACB01BA0164297529862997291E
:10386000F2CF4429552966297729009189021091C0
:103870008A0220918B0230918C02CB01BA01602721
:10388000712782279327DFCF8695DD2011F0812FC6
:103890008170882309F4D7CE802F82958695877012
:1038A000880F880F602F6F70462E512C712C612C61
:1038B000082E04C0440C551C661C771C0A94D2F7D1
:1038C00040E050E0BA0104FF0FC04FE050E060E07C
:1038D00070E004C0440F551F661F771F8A95D2F70A
:1038E0004095509560957095812F8695869583704B
:1038F000823019F1D8F40091010310910203209154
:10390000030330910403813069F044295529662965
:103910007729CB01BA0160237123822393230E946C
:10392000800891CE402A512A622A732ACB01BA011B
:103930006429752986299729F2CF442955296629B2
:103940007729009101031091020320910303309124
:103950000403CB01BA016027712782279327DFCFA9
:103960001F70DD2029F0812F0E94E108802FC6CE34
:10397000802F0E942408812F0E94A60864CE802FE9
:1039800092EF891609F450C0981578F0E0EF8E1682
:1039900019F1F1EF8F1609F43FC0DD2009F467C07B
:1039A000A11035CE812F8F713CC023EF821609F410
:1039B00040C034EF8312F1CFDD2009F44DC01F71F8
:1039C000812F0E94E108E8E01E9FC001112483605E
:1039D00080938402812F25C0DD20C9F084E08A1500
:1039E00008F431CE1F7161E070E080E090E004C027
:1039F000660F771F881F991F1A95D2F70091010350
:103A0000109102032091030330910403A4CF95E0A9
:103A10009A1508F418CEE6CF812F8F71DD2009F4B6
:103A2000ABCF0E94E1080FCE812F8F71DD20C9F34B
:103A3000A3CF60E070E0CB01DD2009F470CF1F71EF
:103A400061E070E080E090E004C0660F771F881F9F
:103A5000991F1A95D2F763CF81E00E94C908F1E05F
:103A6000FA1508F0F0CD82E00E94C908ECCDAA203A
:103A700059F0893309F075CE2FEF37EE83E02150EE
:103A800030408040E1F76BCE812F8F7175CF0031D0
:103A9000FFE51F0709F45BCB01312FE5120709F49D
:103AA00060CB033F2CE5120709F4BBCB08F05BCBDE
:103AB000083D8CE5180709F4B0CB093DECE51E077D
:103AC00009F4BBCB073DFCE51F0709F05BCB26E201
:103AD00041EE61EEC7010E94110C5BCA00313FE567
:103AE000130709F43ACB01318FE51807D1F682E0CC
:103AF00035CB85E0DE01119601900D928A95E1F7B4
:103B0000F701228189819A8121111ECA0E94C6076C
:103B1000182F22CA06311C4509F008CD80911902E0
:103B2000811181CC89E20E94670778CC8272F8010A
:103B3000E25CFC45E431F10508F0EFCCE552F74DCD
:103B40000C9494271F93CF93DF9380911F02807F63
:103B5000A9F480911C02882389F080915102D091B0
:103B6000200260911A0270911B02A0911D02B09177
:103B70001E02C62FC72316E0D81304C0DF91CF91D1
:103B80001F91089590E0109711F0CF3F19F401961E
:103B90008770F2CF189F9001199F300D1124F90101
:103BA000EF5DFD4F41814713F2CF40814613EFCFC8
:103BB00042814111ECCF438154814A1B5B0B483C4D
:103BC000510528F780911F028F70806180931F023A
:103BD000F901EA5DFD4F80818F70806180838AE109
:103BE00092E00E946D17DF91CF911F910C941A08FB
:103BF000AF92BF92CF92DF92EF92FF920F931F93FB
:103C0000CF93DF93CDB7DEB761970FB6F894DEBFE1
:103C10000FBECDBF8C0185E0F801DE011D9601903D
:103C20000D928A95E1F7F80180819181E2802AE185
:103C3000A22E22E0B22E60911D0270911E0261152B
:103C4000710509F43EC130911A0240911B02232FE5
:103C500024232F3F09F435C1C380D480F0901C0287
:103C6000F601E61BF70BFF2009F4FBC020911F02B1
:103C7000522F507FE83CF10508F0BBC0511178C0CD
:103C8000FE2C491321C038131FC0E1101DC02F7036
:103C9000206120931F02C5010E946D1780911F02B1
:103CA000F80185838F2D61960FB6F894DEBF0FBEA5
:103CB000CDBFDF91CF911F910F91FF90EF90DF90DB
:103CC000CF90BF90AF900895CD2829F0282F2923B9
:103CD0002F3F09F014C120E0F22FF170DF2E20FFFA
:103CE0003DC0209151024091200256E0241315C09E
:103CF0008D879E878D859E850E947111292F229523
:103D00002F702230F8F0243020F59F70F9F0F80180
:103D10009581907FD9F4D12C1FC030E0529FF001E3
:103D2000539FF00D1124EF5DFD4F6181961306C086
:103D30006081861303C06281E61210C02F5F3F4F7F
:103D40002770D4CF9F7011F0882329F3805E8830CC
:103D500010F3C8010E946D17FD2CA4CFEE2009F4CA
:103D6000A1CF80911F02816080931F02F12C9ACF16
:103D7000491312C0381310C0E1100EC0F80125839A
:103D8000C8010E946D1786E0F801AAE1B2E0019037
:103D90000D928A95E1F786CF8D879E878D859E85CA
:103DA0000E947B11882309F1EE20F9F080911F0217
:103DB000803270F020911A0230911B0238872F83D5
:103DC0001986DB86CA868C87CE0107960E946D17FE
:103DD00086E0F801AAE1B2E001900D928A95E1F740
:103DE0000E94A21DFF24F3945DCFC8010E946D17AD
:103DF000F9CF51110AC08AE192E00E946D1786E066
:103E0000F50111928A95E9F7B1CF49130FC0381324
:103E10000DC0E1100BC0F8012583C8010E946D1789
:103E200086E0F50111928A95E9F73CCF8D879E8750
:103E30008D859E850E947B118823B9F2EE20A9F220
:103E400080911F02803220F220911A0230911B02D1
:103E50003A8329831B82DD82CC828E83CE01019638
:103E6000B5CFE83CF105E0F6FE2CEE2009F4BDCF1D
:103E7000491316C0381314C080911F0280FD83CFF0
:103E8000982F907F09F47FCFF8018583903F09F444
:103E900077CF982F907F905F8F70892B858370CF1D
:103EA0008D879E878D859E850E947B11811190CF85
:103EB00080911F02816080931F02C8010E946D17CC
:103EC000F1CEEE2009F491CF8D879E878D859E855A
:103ED0000E947B11F82E882309F487CF86E0F80131
:103EE000AAE1B2E001900D928A95E1F780911A0261
:103EF00090911B020E9471110E94A21DD3CE21E05D
:103F00002E25EACE1F93CF93DF93CDB7DEB7679709
:103F10000FB6F894DEBF0FBECDBF4B8B5C8B6D8BA5
:103F20007E8B8F8B1A8A198A85E0FE017396DE01DB
:103F30001D9601900D928A95E1F786E0FE013D966F
:103F4000DE01179601900D928A95E1F7CE01079652
:103F50000E94F81D882389F016E08091510290910B
:103F60002002891349C067960FB6F894DEBF0FBED2
:103F7000CDBFDF91CF911F91089586E0FE01379666
:103F8000DE01119601900D928A95E1F78A859B8555
:103F9000892B11F38F81988589238F3FE9F2209136
:103FA000200230E0C90101968770992740915102A3
:103FB0004817190671F40E942314109220021092DF
:103FC000510286E0EAE1F2E0DF011D928A95E9F70D
:103FD000C3CF96E0929FD001939FB00D1124AF5DA7
:103FE000BD4FFE01319601900D929A95E1F78093B5
:103FF00020020E941A08B0CF819FC00111248F5D5A
:104000009D4F0E94F81D882309F4ADCF8091510285
:1040100090E0019687709927809351029ECF1F925E
:104020000F920FB60F9211242F933F934F935F93EC
:104030006F937F938F939F93AF93BF93CF93DF93B0
:10404000EF93FF93D091E900DF708091EC00C82FCF
:10405000C17080FDC0E81092E9008091F000877F78
:104060008093F00078940E9438141092E9008091B7
:10407000F00088608093F000CD2BCF70C093E900F2
:10408000FF91EF91DF91CF91BF91AF919F918F9170
:104090007F916F915F914F913F912F910F900FBE44
:1040A0000F901F9018951F920F920FB60F92112428
:1040B0002F933F934F935F936F937F938F939F9330
:1040C000AF93BF93EF93FF938091E10082FF09C00C
:1040D0008091E20082FF05C08091E1008B7F809398
:1040E000E1008091DA0080FF24C08091D80080FF39
:1040F00020C08091DA008E7F8093DA008091D90011
:1041000080FF9FC080E189BD82E189BD09B400FEC6
:10411000FDCF81E0809300038091D202811109C01C
:104120000E9404040E94F7048091E200846080935E
:10413000E2008091E10080FF17C08091E20080FFE3
:1041400013C08091E2008E7F8093E2008091E200B4
:1041500080618093E2008091D80080628093D800D3
:1041600019BC85E0809300038091E10084FF2DC09D
:104170008091E20084FF29C080E189BD82E189BD90
:1041800089B5982F917080FFFBCF8091D8008F7DEB
:104190008093D8008091E1008F7E8093E100809130
:1041A000E2008F7E8093E2008091E2008160809344
:1041B000E2008091F702882309F449C084E08093EB
:1041C00000030E9423140E940C098091E10083FFE8
:1041D00027C08091E20083FF23C08091E100877FA8
:1041E0008093E10082E0809300031092F7028091B7
:1041F000E1008E7F8093E1008091E2008E7F8093CA
:10420000E2008091E20080618093E20042E060E0A1
:1042100080E00E94C5048091F00088608093F000E7
:10422000FF91EF91BF91AF919F918F917F916F918E
:104230005F914F913F912F910F900FBE0F901F9064
:10424000189519BC109200031092D20272CF80917F
:10425000E30087FD93E090930003B3CFCDB7DEB7C3
:10426000AA970FB6F894DEBF0FBECDBF84B7877F85
:1042700084BF0FB6F894A895809160008861809300
:104280006000109260000FBE80E890E00FB6F894D6
:1042900080936100909361000FBE85B7806885BFF1
:1042A00085B7806885BF0E9404040E94F70480914E
:1042B000E20084608093E200789480910003882378
:1042C000A1F01091E9001F709091EC00892F81708E
:1042D00090FD80E8182B1092E9008091E80083FDA2
:1042E0000E9438141F701093E90082E084BD93E0AF
:1042F00095BD9AEF97BD80936E00A8E7B1E047E8BF
:1043000051E061E070E08D91E82FE295EF70F0E010
:1043100011A18F709B0101C0220F8A95EAF7922F9D
:104320009095912391A382A1822B82A34A175B07C8
:1043300051F7A7E8B1E04CE851E061E070E08D9101
:10434000E82FE295EF70F0E011A18F709B0101C0A2
:10435000220F8A95EAF7922F9095912391A382A13B
:10436000822B82A34A175B0751F710928F0210929B
:104370008E021092C5021092C40210929102109205
:1043800090021092C7021092C602109293021092ED
:1043900092021092C9021092C802109295021092D5
:1043A00094021092CB021092CA02109297021092BD
:1043B00096021092CD021092CC020E948B0E8FE3D7
:1043C0009CE90197F1F700C000000E948B0E8091DC
:1043D000C40280FF0BC080E00E9404126FEF7FEFE9
:1043E00090E080E00E943C280E94250B90E080E055
:1043F0000E9418288C3E9E4F11F00E94A51282E266
:1044000090E00E940A28803209F0E5C483E290E03F
:104410000E940A28893009F0DEC484E290E00E94FC
:104420000A28883109F0D7C490E080E00E9418285B
:104430008C3E9E4F11F00E94A51282E090E00E94F7
:104440000A288093B2020E94640F9093990280938D
:10445000980283E090E00E940A28682F70E090E0C4
:1044600080E00E94020980919A02811136C090E09A
:1044700080E00E9418288C3E9E4F21F00E94A512D9
:104480000E94131488E090E00E9412286093BF02FB
:104490007093C0028093C1029093C2026E7F71F448
:1044A0000E94131488E090E00E9412286093BF02DB
:1044B0007093C0028093C1029093C2020E947A0955
:1044C0001092BE028091BF0280FF04C060E086951A
:1044D0000E940A1781E080939A0281E191E0909313
:1044E0009C0280939B02EAECEE2EE6E0FE2E809189
:1044F0000003853009F49EC10E948B0EA4ECB2E04B
:10450000E3EBF2E010E000E0602F8D919D9141918E
:1045100051914817590709F4CFC14827592720E07E
:10452000AA24A394B12C450184229522892809F458
:10453000BDC129A36AA395012823392391E0232B28
:1045400009F490E09BA30E94FA068160782F9DA356
:104550008CA349A15AA16BA18DA10E94821F000FBB
:10456000111FF801ED54FD4F80819181A826B926D5
:10457000B182A0828091BE02882309F441C080915B
:10458000BD02E091BF02E695E81BE093A0028230F5
:1045900009F0A9C1F0E0E852F94FE4910E2F10E0C4
:1045A00027E6A22E2EE0B22E8091A102882389F068
:1045B0001092A1020E94FA06980120953095820F70
:1045C000931F90939F0280939E021092A3021092D9
:1045D000A20280919E0290919F020E94EB0680179A
:1045E000910770F0E0919E02F0919F020E0F1F1F45
:1045F00010939F0200939E028EE992E0F5010995C7
:1046000086E0EBEAF2E0DE01119601900D928A95C8
:10461000E1F78091AD029091AE02892B09F468C058
:104620008091A9029091AA020E94EB069C019091B0
:10463000A802992309F4E6C32333310508F458C0CE
:104640009F3F19F09F5F9093A8021092AF021092C3
:10465000B0028091AD02181624F40E946306809384
:10466000AD028091AD0287FF05C00E94630681956F
:104670008093AD028091AE02181624F40E94630666
:104680008093AE028091AE0287FF05C00E94630650
:1046900081958093AE023091AD023323B1F0209129
:1046A000AE02222391F045EB3403C001112499237B
:1046B00009F484C19093AD0245EB240390011124C9
:1046C000332309F47FC13093AE020E940607809124
:1046D000A6029091A7029093AA028093A90286E075
:1046E000FE013196ABEAB2E001900D928A95E1F7B6
:1046F0008091AF029091B002892B09F468C080913B
:10470000A4029091A5020E94EB069C019091A80240
:10471000992309F472C32536310508F458C09F3F28
:1047200019F09F5F9093A8021092AD021092AE0212
:104730008091AF02181624F40E9441068093AF02C4
:104740008091AF0287FF05C00E944106819580934A
:10475000AF028091B002181624F40E9441068093A3
:10476000B0028091B00287FF05C00E94410681958A
:104770008093B0023091AF023323B1F02091B002A8
:10478000222391F045EB3403C0011124992309F44D
:104790001DC19093AF0245EB2403900111243323F4
:1047A00009F418C13093B0020E9406078091A60256
:1047B0009091A7029093A5028093A40286E0FE0147
:1047C0003196ABEAB2E001900D928A95E1F70E9432
:1047D0000C099091B102891721F00E940C09809375
:1047E000B10280910003843009F081CE83E0809390
:1047F000E9008091E80082FF7ACE8091E80090E0A5
:1048000085FF06C00E942304882309F4E7C091E0D5
:104810008091E8008B778093E800992309F467CEB4
:10482000E981E150E33108F075C1F0E0E151F74D65
:104830000C94942780910003843021F110929D0202
:1048400088E190E020E40FB6F894A895809360008A
:104850000FBE2093600083B7817F846083BF83B7DE
:10486000816083BF7894889583B78E7F83BF0FB6AE
:10487000F894A89580916000886180936000109200
:1048800060000FBE8091F602882309F430CE0E94AA
:104890008B0EE4ECF2E08EEC92E021913191232B2F
:1048A00009F083C28E179F07C1F721CE2F5FAA0C94
:1048B000BB1C2F3009F037CE0F5F1F4F053011059D
:1048C00009F022CE8FEF8EA38FA318A60E94FA06BE
:1048D0008160782F9AA789A74EA15FA168A58AA5B4
:1048E0000E94821F47CE863059F4F0E0EB52F94F18
:1048F000E4910E2F10E09BE7A92E9EE0B92E54CE36
:10490000893061F4E695F0E0EE52F94FE4910E2F14
:1049100010E08AEAA82E8CE0B82E46CE8F3061F4E3
:10492000E695F0E0E153F94FE4910E2F10E0B4ED7D
:10493000AB2EBCE0BB2E38CE853159F4F0E0E45309
:10494000F94FE4910E2F10E0A2E4AA2EADE0BA2EAA
:104950002BCE08EE13E070E9A72E7DE0B72E88314C
:1049600009F422CE833241F4F70105911491FEE05F
:10497000AF2EFEE0BF2E18CE04EF11E064ECA62EA1
:104980006DE0B62E843209F40FCE00ED17E05EEB39
:10499000A52E55E0B52E853209F006CE8E2F63E0A8
:1049A0000E945227E92FF0E0E953F94FE4910E2FCE
:1049B00010E0ECE1AE2EE2E1BE2EF6CD81E0809378
:1049C000AD027ACE81E08093AE027FCE81E080930B
:1049D000AF02E1CE81E08093B002E6CE00E210E0CB
:1049E000CE0101965C018091E80085FD0AC08091AE
:1049F000E8008B778093E8000E942304882399F3D2
:104A000006CF8091F100F50181935F0101501109FA
:104A100051F7FDCE1A8289E08B8331C08A818230C2
:104A2000B9F0833089F1813009F074C02FB7F89460
:104A30006091CE027091CF028091D0029091D1020C
:104A40002FBF0E949A276B837C838D839E8317C020
:104A500085E290E00E940A2890E0B0E0A0E088247F
:104A6000982EA92EBA2E86E290E00E940A281B8278
:104A70001C82882A9824892498249E828D82CE01C3
:104A800001960E947E0433CD8091C4029091C502AC
:104A90009827892798279C838B838091C6029091C1
:104AA000C7029827892798279E838D838091C80203
:104AB0009091C90298278927982798878F8380919A
:104AC000CA029091CB029827892798279A878987CD
:104AD0008091CC029091CD029827892798279C87B6
:104AE0008B87CDCF8A818230A9F46B817C818D81C7
:104AF0009E810E949A274B015C0186E290E00E9411
:104B00001E2899278B2D7A2D692D85E290E00E9431
:104B10001E28B5CF8FEF8983B2CF4C816B818A81FC
:104B20000E94720F9827892798279E838D83A7CF8D
:104B3000AD80BE80BA24AB24BA248A810B81FEE109
:104B40000F9F8001112426E9829F000D111D112461
:104B50008C8190E0880F991F080F191F6B2DC801D9
:104B600087960E941E286A2DC8018896D0CF0E9481
:104B70009F1185CF8A818138C1F060F4803809F0B7
:104B80007ECF20E04B816091C1028091C0020E94E3
:104B90003C1375CF823859F1833809F070CF20E08B
:104BA0004091C2026C818B81F2CF60E08B810E94C8
:104BB0000A179B818091BF02911111C08E7F809353
:104BC000BF021092BE024FEF80E792E0415080405A
:104BD0009040E1F700C000000E94750C50CF81604A
:104BE0008093BF0260E086950E940A1748CF8B81B0
:104BF0008093C30244CF8A81813899F030F48038A1
:104C000009F03DCF8091C20207CF823891F08338FE
:104C100009F035CF8091C0028B838091C1028C83D3
:104C20002ECF8091BF0280FF02C08695F5CE80E036
:104C3000F3CE8091C302F0CE6091BF027091C002AA
:104C40008091C1029091C2020E94081318CF80E1A6
:104C50008A8315CF81E08A8381E8DECE0A811B81B9
:104C6000102701271027FE0131965F018C80CF01AC
:104C7000880D911D4C01C80181589D4FA814B9049D
:104C800009F4FDCE0138E1E01E0750F40E940A2825
:104C9000F50184830F5F1F4FFFEFAF1ABF0AEBCF01
:104CA000F5011482F7CF0A811B81102701271027F5
:104CB000CE0101964C01AC80A00EB12EB11CC801F2
:104CC00081589D4FA016B10609F4D9CE0138E1E014
:104CD0001E0720F4F40164810E941E28FFEF8F1A42
:104CE0009F0A0F5F1F4FEBCF0E94F411C8CE84E0E4
:104CF000AFCF0A811B81102701271027CE01019613
:104D00005C018C80FC01E80DF11D4F01C801879604
:104D1000A814B90409F4B3CE0835F2E01F0750F423
:104D20000E940A28F50184830F5F1F4FFFEFAF1A1F
:104D3000BF0AECCFF5011482F7CF0A811B8110273F
:104D400001271027CE0101964C01AC80A00EB12E98
:104D5000B11CC80187960A151B0509F490CE0835C9
:104D6000E2E01E0720F4F40164810E941E28FFEF98
:104D70008F1A9F0A0F5F1F4FECCF80E00E94041232
:104D80006FEF7FEF90E080E00E943C2878CECE016C
:104D900001960E947E042FEF41EE84E021504040B6
:104DA0008040E1F700C000001FCB80E189BD82E1B7
:104DB00089BD09B400FEFDCF8091D8008F7D80931E
:104DC000D8008091E00082608093E0008091E00054
:104DD00081FDFCCF8CCB60E086E290E00E941E2833
:104DE00060E085E290E00E941E280E949F110E94D0
:104DF000F41181E00E94041217CB2D32314008F0EB
:104E000090CCE5CC2D32314008F01CCC71CC78949C
:104E10001F921FB61F9211248F939F93AF93BF933E
:104E20008091CE029091CF02A091D002B091D10298
:104E30000196A11DB11D8093CE029093CF02A09345
:104E4000D002B093D102BF91AF919F918F911F90EB
:104E50001FBE1F9018951F921FB61F9211248F938B
:104E60009F93AF93BF9380919D02811113C0809156
:104E7000CE029091CF02A091D002B091D102419682
:104E8000A11DB11D8093CE029093CF02A093D002BA
:104E9000B093D102BF91AF919F918F911F901FBE90
:104EA0001F901895991B79E004C0991F961708F078
:104EB000961B881F7A95C9F78095089587FB082E61
:104EC000062687FD819567FD61950E9452270EF4A5
:104ED000919507FC81950895AA1BBB1B51E107C062
:104EE000AA1FBB1FA617B70710F0A61BB70B881F7A
:104EF000991F5A95A9F780959095BC01CD01089509
:104F000097FB072E16F4009407D077FD09D00E9476
:104F10006C2707FC05D03EF4909581959F4F08952E
:104F2000709561957F4F0895EE0FFF1F0590F491E6
:104F3000E02D0994692796276927782787277827FE
:104F400008958F929F92AF92BF92CF92DF92EF928D
:104F5000FF92CF93DF93EC01688179818A819B81F5
:104F6000611571058105910521F464E279ED8BE508
:104F700097E02DE133EF41E050E00E9452284901D3
:104F80005A019B01AC01A7EAB1E40E9471286B01B0
:104F90007C01ACEEB4EFA50194010E947F28DC01F6
:104FA000CB018C0D9D1DAE1DBF1DB7FF03C001972A
:104FB000A109B04888839983AA83BB839F77DF9137
:104FC000CF91FF90EF90DF90CF90BF90AF909F90E8
:104FD0008F9008950E94A127089580E091E00E949B
:104FE000A1270895B0E0A0E0809300019093010113
:104FF000A0930201B09303010895FC014150504079
:1050000030F001900616D1F73197CF010895882727
:1050100099270895F999FECF92BD81BDF89A9927F5
:1050200080B50895A6E1B0E044E050E00C94442837
:10503000A8E1B0E042E050E00C944428262FF99912
:10504000FECF92BD81BDF89A019700B4021639F0E7
:105050001FBA20BD0FB6F894FA9AF99A0FBE0895B8
:105060000396272F0E941F280E941E28252F0E948A
:105070001F28242F0C941F280196272F0E941F28D9
:105080000C941E28DC01CB01FC01F999FECF06C06F
:10509000F2BDE1BDF89A319600B40D9241505040F6
:1050A000B8F70895052E97FB1EF400940E94692816
:1050B00057FD07D00E94842807FC03D04EF40C94BF
:1050C000692850954095309521953F4F4F4F5F4F40
:1050D000089590958095709561957F4F8F4F9F4F64
:1050E00008950E94A628A59F900DB49F900DA49F9F
:1050F000800D911D11240895B7FF0C9471280E9412
:105100007128821B930B0895A1E21A2EAA1BBB1BC8
:10511000FD010DC0AA1FBB1FEE1FFF1FA217B30783
:10512000E407F50720F0A21BB30BE40BF50B661F99
:10513000771F881F991F1A9469F76095709580955D
:1051400090959B01AC01BD01CF010895A29FB001D4
:10515000B39FC001A39F700D811D1124911DB29FAB
:10516000700D811D1124911D0895F894FFCF8A11AF
:105170008A119311931195119311931193118A111F
:105180008A119A11931193119A111D1545159815AD
:10519000451598157815B0159815B816C516EE1A58
:1051A000EE1A5D1B5D1BB51BCF1B231B231BDA1BDC
:1051B000B01CBF1CBF1C151A3C1A431A481A4D1AC2
:1051C000521A571A5C1A611A661A6B1A701A731AF5
:1051D000781A7B1A7E1A811A841A871A8A1A0A2563
:1051E0000E2572258D259825B725BA25FB251C2669
:1051F000BD26C72627262A262E265326742677263E
:0452000079269D2648
:105204000100000001191A1B1C1D1E1F2021220170
:1052140002BF05DF0AB40AB00A9E0A0100010202B5
:1052240002020606060909090909090F0F0F0F0FE3
:105234000F151515181919191919191919191923E7
:1052440024252525252525818283E200E900EA001D
:10525400B500B600B700CD008301CC008A019201ED
:1052640094012102230224022502260227022A0293
:10527400B300B4006F007000909192939594969748
:1052840034F7F6F5F4F1F030313233374022BC8A8A
:0C529400016801AC00EE060707270700C8
:00000001FF
