:100000000C946E030C94B5030C94B5030C94B503D7
:100010000C94B5030C94B5030C94B5030C94B50380
:100020000C94B5030C94B5030C9435230C94F12275
:100030000C94552D0C94B5030C94B5030C94B50396
:100040000C94B5030C94B5030C94B5030C94B50350
:100050000C94B5030C94312D0C94B5030C94B5039A
:100060000C94B5030C94B5030C94B5030C94B50330
:100070000C94B5030C94B5030C94B5030C94B50320
:100080000C94B5030C94B5030C94B5030C94B50310
:100090000C94B5030C94B5030C94B5030C94B50300
:1000A0000C94B5030C94B5030C94B5030501090237
:1000B000A10185020901A1000509190129081500FE
:1000C0002501950875018102050109300931158165
:1000D000257F95027508810609381581257F9501D0
:1000E00075088106050C0A38021581257F95017572
:1000F000088106C0C005010980A101850319012AF4
:10010000B700150126B700950175108100C0050CD8
:100110000901A101850419012AA002150126A002E6
:10012000950175108100C005010906A1018505052D
:100130000719E029E71500250195087501810205D9
:1001400007190029EF1500250195F07501810205B9
:10015000081901290595057501910295017503910D
:1001600001C00660FF0961A1010962150026FF00B8
:100170009520750881020963150026FF00952075FA
:10018000089102C005010906A101050719E029E748
:1001900015002501950875018102950175088101F9
:1001A0000507190029FF150026FF0095067508812F
:1001B000000508190129059505750191029501753C
:1001C000039101C0000101010101010101010202CD
:1001D00002020202020202030303030303030304F5
:1001E00004040404040405050505050606060606C0
:1001F000070707070708080808090909090A0A0A7A
:100200000B0B0B0C0C0C0D0D0D0E0E0E0F0F0F101B
:1002100010111111121213131414151516161717A5
:10022000181819191A1A1B1B1C1D1D1E1E1F202011
:10023000212222232424252626272829292A2B2C5B
:100240002D2D2E2F30313232333435363738393A7E
:100250003B3C3D3E3F404142434445464748494A76
:100260004C4D4E4F50515354555658595A5B5D5E44
:100270005F616264656668696B6C6D6F70727375DF
:1002800077787A7B7D7E8082838587888A8C8E8F43
:1002900091939596989A9C9EA0A2A3A5A7A9ABAD71
:1002A000AFB1B3B5B7BABCBEC0C2C4C6C9CBCDCF5F
:1002B000D1D4D6D8DBDDDFE2E4E7E9EBEEF0F3F50D
:1002C000F8FAFDFF29003A003B003C003D003E00EB
:1002D0003F00400041000000420043004400450050
:1002E0004C0035001E001F002000210022002300CA
:1002F00024002500260027002D002E002A004A0099
:100300002B0014001A000800150017001C0018002C
:100310000C00120013002F00300031004B00390098
:1003200004001600070009000A000B000D000E0073
:100330000F0033003400280000004E00E1001D00D3
:100340001B000600190005001100100036003700E0
:100350003800E500000052004D00E000E300E2003C
:100360000000000000002C0000000000000001510F
:10037000E400500051004F000100010001000100A5
:100380000100010001000100010000000100010066
:10039000010001004900010001000100010001000D
:1003A0000100010001000100010001000100010045
:1003B000010001000100010001000100005C0100DA
:1003C00001000100010001004600010001000100E0
:1003D0000100010001000100010001000100010015
:1003E0000100010001000100010001000000010006
:1003F000010001000100B200010001000100010044
:1004000001000100010001000000C95C01000100C1
:1004100001000100000000000000010000000000D9
:10042000000001000100C25CCA5CC35C0100010065
:1004300001000100010001000100010001000000B5
:1004400001000100010001000100010001000100A4
:100450000100010001000100010001000100010094
:100460000100010001000100010001000100010084
:100470000100010001000100010001000100010074
:100480000100010001000100010001000100010064
:100490000100010001000100010001000100010054
:1004A0000000010001000100010001000100010045
:1004B0000100010001000100010001000000010035
:1004C0000100010001000100000000000000010027
:1004D0000000000000000100010001000100010017
:1004E0000100010001000100010001000100010004
:1004F00001000000010001000100010001000100F5
:1005000001000100010001000100010001000100E3
:1005100001000100010001000100010001000100D3
:1005200001000100010001000100010001000100C3
:1005300001000100010001000100010001000100B3
:1005400001000100010001000100010001000100A3
:100550000100010000000100010001000100010094
:100560000100010001000100010001000100010083
:100570000000010001000100010001000000000076
:100580000000010000000000000001000100010067
:100590000100010000000000000000000000000059
:1005A000000000000000000000000000000000004B
:1005B00000000000000000007E0F00D4FFFFFFC716
:1005C0000000007800000000000000002A2B280036
:1005D00000000000000000000000000000000029F2
:1005E000000000002C1E3420212224342627252E32
:1005F000362D3738271E1F2021222324252633336A
:10060000362E37381F0405060708090A0B0C0D0E95
:100610000F101112131415161718191A1B1C1D2F61
:100620003130232D350405060708090A0B0C0D0E81
:100630000F101112131415161718191A1B1C1D2F41
:100640003130354C09025B00030100A0FA090400B7
:1006500000010301010009211101000122400007EE
:1006600005810308000109040100020300000009DC
:100670002111010001222200070582032000010749
:100680000503032000010904020001030000000922
:10069000211101000122B600070584032000011288
:1006A000011001000000084B41510001000102004F
:1006B00001100341004B00380031005F0056004537
:1006C0000000001203410074006C0061006E0074B1
:1006D00000690073000000040309040011241FBE18
:1006E000CFEFDAE0DEBFCDBF04B603FE27C08091B6
:1006F000F5059091F605A091F705B091F8058730C2
:10070000904BA740B04BD1F41092F5051092F6052E
:100710001092F7051092F80514BE84B7877F84BF46
:100720000FB6F894A895809160008861809360006E
:10073000109260000FBEE0E0F8E3099525E0ACEF11
:10074000B2E001C01D92A53FB207E1F712E0A0E0C0
:10075000B1E0EAE4FEE502C005900D92AC3FB107BE
:10076000D9F70E940C240C94CB2E0C940000E8EDD9
:10077000F0E080818E7F80831092E2001092DA0098
:100780001092E100A0EEB0E08C9181608C938081AA
:100790008F77808319BCA7EDB0E08C918E7F8C930E
:1007A00080818F7E808310928C0508952091E400D3
:1007B0003091E50095E6A9012091EC00822F81702F
:1007C00020FF06C08091E80080FF06C080E0089509
:1007D0002091E80022FD1AC08091B105882389F09C
:1007E000853089F08091EB0085FD0FC02091E400F9
:1007F0003091E50042175307F9F29150E1F684E099
:10080000089582E0089583E0089581E00895EF92CD
:10081000FF920F931F93CF937C018B010E94D6030D
:10082000C82F811117C08091E80085FD0BC0809111
:10083000E8008E778093E8000E94D603882399F31E
:10084000C82F08C0F70181917F018093F10001500A
:10085000110949F78C2FCF911F910F91FF90EF90C5
:1008600008958091B30587FF13C08091E80082FF4F
:1008700006C08091E8008B778093E80004C08091E7
:10088000B1058111F2CF08958091B1058823D9F384
:100890008091E80080FFF8CF8091E8008E77ECCF60
:1008A000982F9093E900242F762F50E0891731F08C
:1008B0007091EC002091ED005091F00021FD07C0F7
:1008C0009F5F973071F78093E90081E00895309140
:1008D000EB003E7F3093EB003091ED003D7F309395
:1008E000ED003091EB0031603093EB007093EC0041
:1008F0002093ED005093F0002091EE0027FDE0CF13
:1009000080E00895CF92DF92EF92FF920F931F93B2
:10091000CF93DF93C8EDD0E088818F7E8883E7EDA9
:10092000F0E080818160808384E082BF81E08093F9
:100930008C0588818E7F888302EE10E0F80110829A
:100940001092DA0081EEC82ED12CF6011082888137
:100950008F77888388818068888388818F7D88836A
:1009600019BC1092B1051092B2051092B005109208
:10097000AF0590EEE92EF12CF70180818B7F80830B
:1009800088818160888342E060E080E00E945004BA
:10099000F60180818E7F8083F80180818160808371
:1009A000808188608083F70180818E7F8083888149
:1009B00080618883DF91CF911F910F91FF90EF901D
:1009C000DF90CF900895FC018091B9059091BA0510
:1009D00086179707A0F06115710529F49091E8003A
:1009E0009E779093E80090E06115710551F49111A4
:1009F00008C08091E80082FF34C080E00895BC0107
:100A0000F2CF8091B1058823C1F18530C1F1809189
:100A1000E80083FD30C08091E80082FDEACF80913C
:100A2000E80080FFE1CF8091F3002091F200382FA1
:100A30006115710519F02830310558F091E0283022
:100A4000310509F090E02091E8002E772093E8002E
:100A5000CBCF81918093F100615071092F5F3F4F9F
:100A6000E7CF8091B105882341F0853041F0809136
:100A7000E80083FFBECF81E0089582E0089583E01F
:100A80000895EF92FF920F939701201B31092F3F9A
:100A9000310519F010F02FEF30E02095382F320F8C
:100AA00008F43FEF832F0F91FF90EF900895EF929E
:100AB000FF920F939701201B31092F3F310519F049
:100AC00010F02FEF30E0322F3095482F430F08F40D
:100AD0004FEF842F620F0F91FF90EF900895EF92E8
:100AE000FF920F93972F093438F4B701601B7109F7
:100AF0006F3F710519F010F06FEF70E0485F5F4FC6
:100B00004131510540F0A901485F5F4F4131510526
:100B100010F06FEF70E06095482F460F08F44FEF2C
:100B2000842F37FF02C02D5F3F4F359527953595B0
:100B300027956091EC05620F792F0F91FF90EF9050
:100B40000895EF92FF920F931F930E0D1F2D111D0D
:100B5000F90137FF03C0F195E195F10924E0EE0FAB
:100B6000FF1F2A95E1F7EF3FF10519F014F0EFEFC1
:100B7000F0E09A0157FF03C031952195310994E0C7
:100B8000220F331F9A95E1F72E173F070CF4F90156
:100B9000E00FF11FEF3FF10519F010F0EFEFF0E07B
:100BA000E095282F3E2F230F08F42FEF822F1F915F
:100BB0000F91FF90EF900895EF92FF920F9397019E
:100BC00095E0099F200D311D11242F3F310519F0AB
:100BD00010F02FEF30E02095382F320F08F43FEF60
:100BE000832F0F91FF90EF900895E42FF0E0EE0F28
:100BF000FF1FE152FE4F9081921B97FD9195292F87
:100C000038E1239F212D1124620F08950F931F9324
:100C100010E0F801EE0FFF1FE152FE4F9081905758
:100C200097FD9195000F111FF801E052FE4F0081D2
:100C30000052110B2003F001219FF00D112408E355
:100C400010E0091B110997FD139540039001419F86
:100C5000300D1124E20FF31F9F01220F331F2E0FBF
:100C60003F1F37FF02C021583F4F220F232F221F63
:100C7000330B620F1F910F9108950F931F93522F03
:100C800010E0F801EE0FFF1FE052FE4FA081A052CE
:100C9000BB0B9D015203F001539FF00D1124000F77
:100CA000111FD801A152BE4F0C910057110B4003E8
:100CB0009001419F300D11242E0F3F1F37FF02C0BE
:100CC000215C3F4F96E0359527959A95E1F7620FA5
:100CD0001F910F9108950F931F93522F10E0F80169
:100CE000EE0FFF1FE052FE4FA081A052BB0B9D01F3
:100CF0005203F001539FF00D1124000F111FD80172
:100D0000A152BE4F0C910057110B40039001419F1F
:100D1000300D11242E0F3F1F37FF02C021583F4FC7
:100D2000220F232F221F330B620F1F910F91089563
:100D3000EF920F93972F23E0029FB0011124759536
:100D400067956E0D792F0F91EF900895322F50E037
:100D5000FA01EE0FFF1FE052FE4F9081905297FD77
:100D60009195440F551FFA01E152FE4F2081231B3C
:100D7000330B290F311D97FD3A95620F0895E42F2B
:100D8000F0E0EE0FFF1FE052FE4F6081621B0895FE
:100D9000E42FF0E0EE0FFF1FE152FE4F6081621B77
:100DA0000895622F0895E42FF0E0EE0FFF1FE15247
:100DB000FE4F408134EE439F412D1124E82FF0E097
:100DC00050E0445E5F4FDA01A21BB1099D01B7FFFD
:100DD00003C031952195310993E0220F331F9A9575
:100DE000E1F7AF01421B530B9A0157FD20E0582F4A
:100DF000259F212D1124822F0895E42FF0E0EE0F7E
:100E0000FF1FE152FE4F408134EE439F412D1124DC
:100E1000E72FF0E050E0445E5F4FDA01A21BB1091A
:100E20009D01B7FF03C031952195310993E0220F51
:100E3000331F9A95E1F7AF01421B530B9A0157FDFF
:100E400020E0279F212D1124722F089580E008951E
:100E500080918E0508959C014FB7F89480915F05AD
:100E600090916005A0916105B09162054FBF821B12
:100E7000930B08952FB7F89460915F05709160050A
:100E800080916105909162052FBF08952FB7F89466
:100E900080915F0590916005A0916105B091620518
:100EA0002FBF0895209110012223C9F02091C4047E
:100EB00027FF15C0E62FE695E695E695EE31D8F4C6
:100EC000E80FF92FF11D677021E030E001C0220F1B
:100ED0006A95EAF720958281282322830895FC01F0
:100EE000329608962191621303C0DF0111971C927C
:100EF000E817F907B9F70895209110012223C1F0EE
:100F00002091C40427FF14C0E62FE695E695E695E8
:100F1000EE31F8F4E80FF92FF11D677021E030E0B1
:100F200001C0220F6A95EAF78281822B828308959D
:100F3000FC0132962FEF30E04191641751F02F3FC2
:100F400019F4411101C0232F3F5F3630A9F72F3F1D
:100F500009F40895820F911D27FD9A95FC01628383
:100F600008958091BF0481111092BF04089580916B
:100F7000BE049091BD04892B9091BC04892B809371
:100F8000FE029091BF049923A1F0892B8093FE0269
:100F900080911001882341F18091C40487FF24C00F
:100FA0008EE1E0E0F3E090E0815000F591110E94C5
:100FB000B107E091D204F091D3043097E1F0809131
:100FC0001001882359F08091C40487FF07C08091E5
:100FD000FE028093FF0285E08093FE020280F3818F
:100FE000E02D8EEF92E0099486E0DBCF2191222361
:100FF000D9F29F5FD9CF08952FE0929F800D1124E1
:10100000982F977086958695869525E0829FF001AA
:101010001124E158FB4F50E040E080E0219130E0A6
:10102000092E02C0369527950A94E2F721703327DE
:10103000042E01C0220F0A94EAF7822B4F5F5F4F04
:101040004530510559F708952FE0929F800D1124E6
:10105000982F977041E001C0440F9A95EAF7869562
:101060008695869595E0899FF0011124E158FB4F04
:1010700090E080E070E05191DF0111979B01082E14
:1010800002C0369527950A94E2F72170219525270D
:10109000242325272C9301968530910561F7089527
:1010A00080917E0490914D04981301C008958F5F44
:1010B0008770FACF882341F080959091BE048923F0
:1010C0008093BE040C94B7070895882339F090915B
:1010D000BE04982B9093BE040C94B70708952091FA
:1010E0004004309141042817390771F0909341046E
:1010F00080934004E091D204F091D304309721F022
:101100000084F185E02D0994089520913E043091EA
:101110003F042817390771F090933F0480933E04F1
:10112000E091D204F091D304309721F00680F7814A
:10113000E02D09940895E091D204F091D304309702
:1011400021F00190F081E02D099480E00895FA01EA
:10115000811101C0FB010994E1E2F3E08183608326
:101160004283339694E0EE33F907C1F70895FC010A
:10117000EE0FFF1FE80FF91FEF5DFC4F6183408307
:10118000228308950C94AC080C94B708FC019B01D1
:10119000009729F480E077FF2BC080E80895AC0128
:1011A00097FF04C044275527481B590BB901640F0A
:1011B000751F37FD10C0241B350BC901A5E0880F32
:1011C000991FAA95E1F70E94902D80E2861BF7FFF8
:1011D0000FC081950895CB0165E0880F991F6A952E
:1011E000E1F7BA01621B730B0E94902D80E6EECFEF
:1011F0000895EF920F93CF93DF93D72FC82FC90194
:101200000E19BA010E94C608602F681B7D2F8C2F13
:10121000DF91CF910F91EF9008950F93CF93DF93CC
:10122000D72FC82FC901BA010E94C608682F600FC6
:101230007D2F8C2FDF91CF910F910895EF920F9317
:101240001F93CF93DF93D62FC72F182FC9010E19E5
:10125000010FBA010E94C608081B202F219F212DD3
:101260001124822F6D2F7C2FDF91CF911F910F9131
:10127000EF900895EF920F931F93CF93DF93D62FA4
:10128000172FC82FC9010E19070FBA010E94C608EF
:10129000702F781B719F712D11246D2F8C2FDF9172
:1012A000CF911F910F91EF9008950F931F93CF93BC
:1012B000DF93D62FC72F182FC901212F201B022FF4
:1012C000BA010E94C608982F990F990F891B800FA9
:1012D000282F219F212D1124822F6D2F7C2FDF910C
:1012E000CF911F910F9108950F931F93CF93DF9389
:1012F000D62F172FC82FC901272F201B022FBA0165
:101300000E94C608982F990F990F782F791B700F9C
:10131000719F712D11246D2F8C2FDF91CF911F9113
:101320000F910895E82F86FDE0952E2F2F7086FDF2
:101330002F5FE695E695E695E670F0E0E85EFE4FF5
:101340009181929F902D212D112492959F7022952D
:10135000207F922B2081920F87FD919580E8890F45
:1013600008950F931F93CF93DF938B01D82FC42F32
:10137000822F0E949209EC2FF0E0EE0FFF1FE15246
:10138000FE4F90819058890F87FD8195880F682FB7
:101390002CE0629F612D1124600F712F8D2FDF9142
:1013A000CF911F910F910895AC018230910508F4FF
:1013B00008959FEF413E8EE1580740F49A0195E071
:1013C000369527959A95E1F798E0920F61E0E62F20
:1013D000E90FFF27FF1F9F0135952795822F229F39
:1013E000F001239FF00DF00D11244E175F0738F424
:1013F0009FEF920F961758F78FEF860F08952F3FA4
:10140000E9F361E0620FF6CF0F93CF93DF93D72F0D
:10141000C82F47FD419588E390E0841B910947FD63
:101420009395889FB001899F700D700D1124229FA4
:10143000C001239F900D900D1124860F971F0E94CD
:10144000D409982F990F890F682F600F7D2F8C2F4B
:10145000DF91CF910F91089530E020E0869F212DFC
:10146000969F200D311D1124C9010895AF92BF929E
:10147000CF92DF92FF920F931F93CF93DF93362F7C
:10148000472FE82FF0E0EC53FE4F71110FC0E491AD
:101490008E2F2E2F6E2F722FDF91CF911F910F91D4
:1014A000FF90DF90CF90BF90AF900895C72FD0E00E
:1014B0002491F22E022F10E056E0659FC001112406
:1014C000EFEFF0E0BF010E947C2D832F90E0880FAA
:1014D000991F35E5369FD001379FB00D11248A1B27
:1014E0009B0B982F990F980F6F01CC1ADD0AC09EA5
:1014F000D001C19EB00DD09EB00D11248B2F499FFD
:10150000A0011124452F55276F01C41AD50AC09E8A
:10151000A001C19E500DD09E500D11245F01A91A4B
:10152000B108AC9E6001AD9ED00CBC9ED00C1124C5
:10153000CD2CDD24EC19FD09E09FE001E19FD00DE9
:10154000F09FD00D1124ED2F62307105A1F050F401
:101550006115710509F49ECF6130710581F0EB2FA3
:10156000852F98CF6430710569F080F06630710581
:1015700009F490CFF4CFE22F2B2F8D2F8BCFE22FBA
:10158000252F88CFEB2F822F2D2F84CF2B2F8F2D20
:10159000E52F80CF7F928F929F92AF92BF92CF9292
:1015A000DF92EF92FF920F931F93CF93DF935C0133
:1015B000C091110183E1C89FC02D112413E11C0FBC
:1015C000F12E103610F03FE5F32E6091EF05669591
:1015D0008091E4059091E5050E942C0A782ED0E0D8
:1015E000CF1590F081E01F3508F080E0DF91CF91BA
:1015F0001F910F91FF90EF90DF90CF90BF90AF9031
:101600009F908F907F900895FE01E356FD4F80815B
:10161000909112018923C9F1CE01880F991F8B5730
:101620009E4FFC01E65AFF4F2081422F4057550B39
:101630006A01855A9F4FFC018081282F2052330B6D
:101640004901449F9001459F300D300D1124889C25
:10165000C001899C900D900D1124820F931F0E9450
:10166000D409082F6091EC057091ED058091EE058D
:10167000E72C9401A601F50109950E94360A462F30
:10168000282F672FCE010E94C4082196A9CFCF92A0
:10169000DF92EF92FF920F931F93CF93DF937C0122
:1016A000C091110183E1C89FC02D112413E11C0FCB
:1016B000D12E103610F03FE5D32E6091EF056695E0
:1016C0008091E4059091E5050E942C0AC82ED0E097
:1016D000CD1568F081E01F3508F080E0DF91CF91F3
:1016E0001F910F91FF90EF90DF90CF900895FE0132
:1016F000E356FD4F808190911201892311F1CE01B3
:10170000880F991F8B579E4FFC01E55AFF4F208190
:101710002052330B865A9F4FFC0140814057550B96
:101720006091EC057091ED058091EE050C2DF701AF
:1017300009950E94360A462F282F672FCE010E9456
:10174000C4082196C5CFDF92EF92FF920F931F93AB
:10175000CF93DF937C01C091110183E1C89FC02D1D
:10176000112413E11C0F012F103608F00FE56091D2
:10177000EF056695669521E0620F08F46FEF8091A2
:10178000E4059091E5050E942C0AD82ED0E0C01700
:1017900060F081E01F3508F080E0DF91CF911F916C
:1017A0000F91FF90EF90DF900895FE01E356FD4FFB
:1017B000808190911201892391F06091EC057091E4
:1017C000ED058091EE052D2D4C2FF70109950E9416
:1017D000360A462F282F672FCE010E94C408219673
:1017E000D6CF9F92AF92BF92CF92DF92EF92FF92AD
:1017F0000F931F93CF93DF936C01C091110183E18D
:10180000C89FC02D112413E11C0FB12E103610F00B
:101810003FE5B32E6091EF05669566958091E405EE
:101820009091E5050E942C0AF82E80E48F0D0E940D
:10183000920990E8A92EA80E8F2D0E94920920E807
:10184000922E980ED0E0CB1580F081E01F3508F085
:1018500080E0DF91CF911F910F91FF90EF90DF908B
:10186000CF90BF90AF909F900895FE01E356FD4F3B
:101870008081909112018923A1F06091EC05709113
:10188000ED058091EE05EF2C0C2F292D4A2DF60148
:1018900009950E94360A462F282F672FCE010E94F5
:1018A000C4082196D0CF2F923F925F926F927F9281
:1018B0008F929F92AF92BF92CF92DF92EF92FF9260
:1018C0000F931F93CF93DF93CDB7DEB72A970FB651
:1018D000F894DEBF0FBECDBF8B837E836D832091D6
:1018E000110183E1289F802D11248F838D5E8983D0
:1018F0008A83803610F03FE53A838091BB058C8364
:10190000FF81EF2FF0E0FA87E987CF01880F991F59
:101910009C0121523E4F69013B81832F90E0FC01E5
:101920003196F887EF838A8199859817E8F081E0EE
:10193000E981EF3508F080E02A960FB6F894DEBF13
:101940000FBECDBFDF91CF911F910F91FF90EF9010
:10195000DF90CF90BF90AF909F908F907F906F90CF
:101960005F903F902F900895E985FA85E356FD4FEB
:101970008081909112018923F1F02090EC05309044
:10198000ED052F81388525543A4F39015B8010E0F1
:10199000FC815F16D0F02091EE05129F112D1124CD
:1019A000B101812F0E94360A462F282F672F898583
:1019B0009A850E94C40829853A852F5F3F4F3A8750
:1019C000298732E0C30ED11CAECFF30181913F01D4
:1019D000F601A080A81ABB088180F3018781881ACC
:1019E0009908AA9C9001AB9C300D300D1124889C65
:1019F000C001899C900D900D1124820F931F0E94AD
:101A0000D409082F6091EF0521E0620F08F46FEF11
:101A1000F301EE0FFF1FEB5BF540858996890E946D
:101A20002C0A7C019401A501B101812FED81FE8179
:101A300009951B015394182FABCF0E9446079C01B8
:101A400090916E0580916F05982B21F030936B0576
:101A500020936A059091700580917105982B21F073
:101A60003093680520936705E091D204F091D30488
:101A7000309749F082E080936C050480F581E02D79
:101A80008CE695E00994089590E080E00E94850836
:101A900090E080E00E946F081092BD041092BC0498
:101AA0000E94B70786E0ECE6F5E0DF011D928A951B
:101AB000E9F71092690510926605109246040C949D
:101AC0001D0D6093F1057093F2058093F3059093DB
:101AD000F4050C94440D0F931F936091F1057091E0
:101AE000F2058091F3059091F4058B019C0106703D
:101AF000112722273327063011052105310529F446
:101B000068601F910F910C94610D677FFACF0F935E
:101B10001F9341E050E060E070E004C0440F551FA7
:101B2000661F771F8A95D2F7CB01BA016095709531
:101B3000809590950091F1051091F2052091F305A3
:101B40003091F40560237123822393231F910F9119
:101B50000C94610D9091BB04809589238093BB0404
:101B6000282F277039F4282F082E000C330B9217DA
:101B7000130621F49091C50492FF07C085958595C1
:101B800085950E94870D1092BB0408950F931F93B3
:101B900041E050E060E070E004C0440F551F661F54
:101BA000771F8A95D2F78091F1059091F205A09167
:101BB000F305B091F4058A019B01082B192B2A2B00
:101BC0003B2BC901B8011F910F910C94610D6093DB
:101BD000C0047093C1048093C2049093C3040C9416
:101BE000440D40916E05803F59F480916F0587FF49
:101BF0000DC010926F0541110BC01092690508C00D
:101C0000813F81F480916F0518169CF3442381F085
:101C10008091700590917105892B09F05AC010923E
:101C200066050895823F49F447FFF0CF10926E0594
:101C300080916F058111ECCFE0CF833F19F414162A
:101C4000ACF3E4CF90917005893F29F41916F4F6AE
:101C500010927005DBCF8A3F19F497FFD7CFF8CFEA
:101C6000909171058B3F29F497FFD0CF10927105A9
:101C7000CDCF8C3F19F41916CCF3C8CF9CE0980F48
:101C8000953090F4845F990B21E030E0B90102C0F7
:101C9000660F771F8A95E2F7CB01809590916D05CD
:101CA000892380936D05B2CF8D3F31F48091460436
:101CB0008E7F80934604AACF8E3F21F48091460404
:101CC0008D7FF7CF8F3F09F0A1CF809146048B7FA6
:101CD000F0CF08958823B1F19CEF980F913A38F432
:101CE000682F8EEF92E00E9452070C94B70790E2A3
:101CF000980F983088F4877021E030E0A90102C085
:101D0000440F551F8A95E2F7CA0180959091BE0451
:101D100089238093BE04E9CF9BE5980F933020F48C
:101D200090E080E00C94850898E5980F973120F4B6
:101D300090E080E00C946F08803F20F00E94F10D4D
:101D40000C941D0D08958091460480FD16C081FD00
:101D500016C082FD16C0809166058823A1F08832E6
:101D600080F428E0829FC001112468E270E00E94A4
:101D7000902D862F672B39F0089582E0089584E036
:101D8000089588E0089581E008958091460480FDDB
:101D900014C081FD14C082FD16C08091690588239E
:101DA00081F0843180F422E3829FC001112464E138
:101DB00070E00E94902D862F08958CE0089589E1AF
:101DC000089585E0089582E30895803F31F40E94EC
:101DD000C50E819580936F050895813F19F40E9487
:101DE000C50EF8CF823F31F40E94C50E81958093D5
:101DF0006E050895833F19F40E94C50EF8CF893F00
:101E000029F40E94A30E8093700508958A3F21F45F
:101E10000E94A30E8195F7CF8B3F31F40E94A30E51
:101E200081958093710508958C3F19F40E94A30E4B
:101E3000F8CF9CE0980F953070F4845F990B21E007
:101E400030E001C0220F8A95EAF780916D05822B60
:101E500080936D0508958D3F31F480914604816033
:101E60008093460408958E3F21F480914604826059
:101E7000F7CF8F3FB9F7809146048460F1CFCF93BD
:101E8000C82F882309F46FC08CEF8C0F813AC0F5FE
:101E900080911001882311F18091C40487FF1EC036
:101EA000EC2FE695E695E695F0E0E250FD4F828155
:101EB00090E04C2F477021E030E002C0220F331F2A
:101EC0004A95E2F782239323892B91F06C2F8EEFB2
:101ED00092E00E9452070E94B7070AC0E0E0F3E0D8
:101EE00086E093E02191C21789F38E179F07D1F7FF
:101EF0006C2F8EEF92E00E947C07CF910C94B70775
:101F000080E28C0F883068F4C77021E030E001C0B7
:101F1000220FCA95EAF78091BE04822B8093BE04FB
:101F2000ECCFEBE5EC0FE33040F4F0E0E05EFE4F89
:101F3000808190E0CF910C948508E8E5EC0FE731C3
:101F400050F4F0E0EE0FFF1FED5DFE4F80819181B8
:101F5000CF910C946F08C03F30F08C2F0E94E50E9B
:101F6000CF910C941D0DCF910895F894E82FE29530
:101F7000EF70F0E031A1282F2F7081E090E001C0D8
:101F8000880F2A95EAF7982F9095932391A392A111
:101F9000892B82A3789408959091C40492FF06C07F
:101FA000282F28712830F9F4877F846093FF06C0BA
:101FB000282F28712831F1F4877E84612091C5048F
:101FC00020FF06C0382F38713830D9F4877F816000
:101FD00021FF06C0282F28712831D1F4877E816126
:101FE00094FD877E0895282F24712430F9F68B7F85
:101FF0008860DCCF282F2471243101F78B7E886123
:10200000DDCF382F3171313019F78E7F8860E0CF06
:10201000282F2171213121F78E7E8861E1CF81FF48
:1020200006C0549A5C9881FD04C05C9A0895549847
:10203000F9CF5C980895CF9384E090E00E94262E1B
:10204000C82F82E290E00E94262E982F8C2FCF91ED
:1020500008950F931F93CF93DF93C42FD0E0CC0F3D
:10206000DD1F2EE1629FC00DD11D112434EB839F33
:10207000C00DD11D1124CE0187960E94262E082F57
:1020800010E0102F0027CE0188960E94262E98017E
:10209000282BC901DF91CF911F910F910895462FF1
:1020A000843038F4763028F46F3018F4672F0C94AD
:1020B000291090E080E00895CF93DF930E944F10A5
:1020C000EC0182389105A9F1D8F58133910509F425
:1020D00096C048F58932910509F48AC08A9709F4B7
:1020E00095C0C11521E5D20708F0BCC0C11530E587
:1020F000D30708F014C1C83ED10508F09CC0C03E0B
:10210000D10560F5C83AD10508F087C0C53AD105B8
:1021100008F0FDC0C130D10509F12097F9F0C430B5
:10212000D105E0F440C08533910509F45AC0C99740
:10213000C1F68091C404837089F0C0EED0E00EC077
:10214000833E910599F170F4803E910501F1823E44
:10215000910539F68091C40482FD21C0CE01DF9142
:10216000CF910895863E910561F1873E910571F109
:10217000843E910509F0B5CF8091C50481FFEECF73
:102180008091C404C7EED0E084FD0DC0E7CF8091FC
:10219000C40480FD12C19091C50490FFDFCFC3EE4F
:1021A000D0E084FFDBCFD0E0C0E0D8CF8091C40482
:1021B00082FD06C19091C50490FDBFCF84FFCECFB4
:1021C000F2CF8091C40483FDDDCFC8CF8091C404D9
:1021D00083FDF9C09091C50491FFF0CFC4EED0E02B
:1021E000BDCF8091C40485FFB9CFC9E2D0E0B6CF9E
:1021F0008091C40485FFB2CFC5E3D0E0AFCF80911A
:10220000C40486FFABCFCAE2D0E0A8CF8091C4045B
:1022100086FFA4CFC1E3D0E0A1CFCF3BD10518F614
:10222000C85AD0E0CC0FDD1FCD5DDE4F0990D881BC
:10223000C02DD46493CFC11540E2D40758F4C11522
:1022400081E0D80708F08ACFC03FD10508F4ABCFB2
:10225000D06584CFC11590E4D90708F4A4CFDF700E
:10226000D06A7CCFC11525E5D20700F5C11534E54C
:10227000D30708F08AC0C11543E5D40708F071C040
:10228000C11582E5D80708F467C0CE01837099278D
:1022900021E030E002C0220F331F8A95E2F7C69595
:1022A000C69580E2C89FE001112452C0C11599E58E
:1022B000D907A8F4C11528E5D20708F06BC0C115ED
:1022C00036E5D30708F06FCF8C2F0E94CC0FC82FB4
:1022D000D0E0DC2FCC27CC27DF71D0623FCFC115F7
:1022E0004AE5D40708F45BC0CE01905681159042B0
:1022F00008F059CF8D2F8F710E94CC0F90E0982F4E
:10230000882788279F719C012C2BE901E6CFC55AAD
:10231000D0E0C05EDE4FC881D0E0D0641FCFCE01D8
:10232000E4E096958795EA95E1F783702C2F269542
:102330002695237040E2249F90011124382B8C2F86
:102340008370C1E0D0E002C0CC0FDD1F8A95E2F7B8
:10235000C22BD32BDC6802CFDC2FCC27C16FD06A15
:10236000FDCECE018370992721E030E002C0220F1C
:10237000331F8A95E2F7C695C69590E2C99FE001A2
:102380001124C22BD32BDA68E9CEDC2FCC27C46F03
:10239000D06AE4CEDC2FCC27C06FD06ADFCE8C2F82
:1023A0008F700E94CC0F34E0D695C7953A95E1F72F
:1023B000CF709C2FEC01D069D1CEC9E3D0E0CECE56
:1023C000C2EED0E0CBCEC6EED0E0C8CEBF92CF9268
:1023D000DF92EF92FF920F931F93CF93DF938C01C5
:1023E000C090F105D090F205E090F305F090F4056F
:1023F0008091C0049091C104A091C204B091C30423
:10240000C82AD92AEA2AFB2ACFE1D0E0BC2ED7017C
:10241000C6010C2E04C0B695A795979587950A948A
:10242000D2F780FD0EC0219788F7B12C8B2DDF915C
:10243000CF911F910F91FF90EF90DF90CF90BF90C1
:102440000895B8018C2F0E945C10019761F3EECFC4
:10245000CF93DF93EC010E94E611BE01DF91CF9193
:102460000C945C100E942812292F2F7092959F7057
:1024700092509E3078F4E92FF0E0E353F14D0C9444
:10248000A42D803F19F020F4883E20F481E00895C7
:10249000843FE1F380E00895883EC0F3813FD1F7A7
:1024A000F5CF822F86958695869508956F927F92B7
:1024B0008F929F92AF92BF92CF92DF92EF92FF9254
:1024C0000F931F93CF93DF9384ECC82E82E0D82E16
:1024D00099EFE92EF12CE701C45BD10936011BC04D
:1024E000F50185909490692DC8010E94442E682DB5
:1024F000C80101960E94442E82E0A80EB11C0E5F16
:102500001F4FC017D10761F78EE1680E711C6E96E0
:10251000CE15DF0529F08E010E5111095301E0CFD0
:102520007E0184EBE80EF11C84EBC80ED11C89EC13
:10253000E81683E0F80679F6DF91CF911F910F91AD
:10254000FF90EF90DF90CF90BF90AF909F908F90D3
:102550007F906F900895CF93C091C504C2FB9927D7
:1025600090F9981781F080FBC2F9C093C50460917F
:10257000C40484E090E00E94442E6C2F82E290E03C
:10258000CF910C94442ECF910895CF93DF93C7EF52
:10259000D2E060E0CE010E94442E2196C11584E075
:1025A000D807B9F7DF91CF9108951092BE048091BA
:1025B0001001E0E0F3E0882359F08091C40487FF24
:1025C00007C08EE1DF011D928A95E9F70C94440D56
:1025D00086E0F8CF1F93CF93DF93CDB7DEB7AA97EE
:1025E0000FB6F894DEBF0FBECDBF83EB95E0209110
:1025F000F100DC012D93CD01B5E08B3B9B07B9F7D2
:102600008091B405833009F471C0B8F4813009F4C5
:1026100048C0823009F4B2C08091E80083FF3AC11B
:102620008091B3059091B4059A3008F033C1E92F39
:10263000F0E0E552F14D0C94A42D8A3009F48DC0E0
:102640008B3009F470C0893039F78091B30581323D
:1026500019F78091B7059091B805009711F002978E
:10266000D9F68091E800877F8093E8008091E800A8
:1026700082FF37C09091F3008091F200029729F415
:102680008091F1008B7F813021F48091F100809363
:102690008E058091E8008B778093E8000E943104DA
:1026A000BBCF8091B305813A09F0B6CF8091E800A5
:1026B000877F8093E8008091B7059091B805892BBA
:1026C00061F460E28FE895E070E00E94E30480919D
:1026D000E8008B778093E8009FCF60E090E080E097
:1026E000F3CF8091B1058111C1CF96CF8091B30511
:1026F000813A09F091CF8091B7059091B805892B67
:1027000009F08ACF8091E800877F8093E80080916C
:10271000E80080FFFCCF809110018093F100809150
:10272000E8008E77B9CF8091B305813209F074CF7C
:102730008091B7059091B805892B09F06DCF8091F4
:10274000E800877F8093E8000E9431048091B505FE
:10275000809310010E94D5125FCF8091B305813222
:1027600009F05ACF8091E800877F8093E8000E94AB
:1027700031048091B60580938D054ECF8091B305CD
:10278000813A09F049CF8091E800877F8093E80083
:102790008091E80080FFFCCF80918D05BECF80380E
:1027A00099F0823809F076C08091B7058F70873034
:1027B00008F070C08093E9008091EB0085FB8827CA
:1027C00080F91092E90006C08091AF059091B005A4
:1027D000911182609091E800977F9093E800809338
:1027E000F1001092F1008091E8008E77B5C1882346
:1027F00009F4A2C1823009F04DC08091B505811164
:10280000A6C18091B7058F702FEF280F263008F0F2
:1028100041C08093E9002091EB0020FF98C19330E4
:1028200031F48091EB0080628093EB0090C1909135
:10283000EB0090619093EB0021E030E001C0220FAB
:102840008A95EAF72093EA001092EA008091EB0063
:102850008860EACF81111EC01091B5051F77809165
:10286000E3008078812B8093E3008091E800877FEC
:102870008093E8000E9431048091E80080FFFCCF43
:102880008091E30080688093E30082E0111183E08F
:102890008093B1058091E80083FF0AC08091E80031
:1028A000877F8093E8008091EB0080628093EB004B
:1028B000AA960FB6F894DEBF0FBECDBFDF91CF91C1
:1028C0001F9108958058823028F72091B5053091E6
:1028D000B6052C3DE3E03E07A1F583E08A838AE25A
:1028E00089834FB7F894DE01139620E03EE051E271
:1028F000E32FF0E050935700E49120FF03C0E295EE
:10290000EF703F5FEF708E2F90E0EA30C0F0C79617
:102910008D939D932F5F243159F74FBF8091E8002D
:10292000877F8093E8006AE270E0CE0101960E9402
:10293000E3048091E8008B778093E800ABCFC096EA
:10294000E7CF8091B7059091B805432F55274330C5
:10295000510509F44AC078F54130510509F47AC0AF
:102960008BE590E0E4E4F6E04230510509F092CFC7
:102970002091E800277F2093E8002091B90530914D
:10298000BA058217930708F49C0140E02115310530
:1029900009F065C0411163C08091E80082FDC9CF94
:1029A0008091B105882329F2853019F28091E800E1
:1029B00083FFF2CFBECF4132510509F43CC0423211
:1029C000510509F067CF8330910508F063CFFC0112
:1029D000EE0FFF1FE758FE4F0190F081E02D8A585F
:1029E0009E4FDC018C9190E01AC0332721303105D5
:1029F000D1F02115310561F02230310509F04ACFBF
:102A0000E1EBF6E0E4918E2F90E0E1EBF6E007C019
:102A1000E7EDF6E0E4918E2F90E0E7EDF6E0009729
:102A200009F438CFA5CFE3ECF6E0E4918E2F90E0E7
:102A3000E3ECF6E0F4CF8330910508F02BCF880F5C
:102A4000991FFC01E158FE4F0190F081E02D89E0D3
:102A500090E08ECF82E190E0EFE9F6E089CF8091BF
:102A6000B105882309F465CF853009F462CF8091E0
:102A7000E80083FD5ECF8091E80082FD8DCF8091DC
:102A8000E80080FF83CF9091F3008091F200211540
:102A9000310519F08830910550F041E0089709F0B0
:102AA00040E08091E8008E778093E8006FCF4491FA
:102AB0004093F1003196215031090196E8CF8038DA
:102AC00009F0E8CE8091E800877F8093E80080914C
:102AD000B2058093F10087CE8111DCCE1091B5054F
:102AE000123008F0D7CE8091E800877F8093E8000D
:102AF0001093B2050E943104112311F084E005C047
:102B00008091E30087FDFACF81E08093B10542E038
:102B100061EC81E00E94500442E261EC84E00E949A
:102B2000500442E261EC82E00E94500442E260EC18
:102B300083E00E945004AECE8091B505813009F04B
:102B4000A9CE81E0933009F080E08093B005109227
:102B5000E9008091E800877F8093E8000E943104BB
:102B600099CE1F93CF93DF93EC01FC01E356FD4F09
:102B700080816823A1F00E94FD2D182F0E94FD2D59
:102B8000612F782F8091EE050E94360A462F282F5C
:102B9000672FCE01DF91CF911F910C94C408DF9174
:102BA000CF911F910895DF92EF92FF920F931F93A1
:102BB000CF93DF938C01FC01E356FD4F80816823A6
:102BC00081F1D090ED05D091EE05C091EC05EC2E91
:102BD000F12C0E94FD2D282FC7018C549F4F68E6D1
:102BE00071E00E94902D8E199F0997FD039695958F
:102BF00087959595879523706C2F289F600D1124DC
:102C00007D2D8D2F0E94360A462F282F672FC80151
:102C1000DF91CF911F910F91FF90EF90DF900C9477
:102C2000C408DF91CF911F910F91FF90EF90DF903B
:102C30000895CF93DF9300D00F92CDB7DEB7909178
:102C4000B105943011F589837B836A839093E90001
:102C50008FEF9091E800815095FD06C095ED9A9513
:102C6000F1F700008111F5CF8091E80085FF0DC0DC
:102C700050E040E063E070E0CE0101960E9407045E
:102C80008091E8008E778093E8000F900F900F906E
:102C9000DF91CF910895BC0184E00C941916BC011A
:102CA00083E00C9419169C0184E08093E9009FEF67
:102CB0008091E800915085FD06C085ED8A95F1F779
:102CC00000009111F5CF8091E80085FF0CC050E025
:102CD00040E066E070E0C9010E9407048091E800CE
:102CE0008E778093E8000895CF93DF93EC01809175
:102CF00010018823B1F18091C40487FF32C060E2E3
:102D000084E08093E9008FEF9091E800815095FD79
:102D100006C095ED9A95F1F700008111F5CF8091ED
:102D2000E80085FF1BC08091100170E050E040E09A
:102D3000811104C050E040E068E070E0CE010E94E4
:102D400007048091E8008E778093E80080E2FE011E
:102D5000AFE8B5E001900D928A95E1F7DF91CF9150
:102D6000089568E081E0CDCF81E08093E00080E2CB
:102D70008093D8001092C9008FE19EE40197F1F78B
:102D800000C0000087E090EBDC018093F505909394
:102D9000F605A093F705B093F80588E19CE00FB61F
:102DA000F894A895809360000FBE90936000FFCFC9
:102DB0001F93CF93DF93182FD0E0C0E0893311F435
:102DC000C0E5D0E0812F0E943F0F209731F4812F82
:102DD000DF91CF911F910C946A0E8FE99FE00197CC
:102DE000F1F700C000002197F0CF0F931F93CF930E
:102DF000DF93C62FD42F022FFC0182818823A1F0FC
:102E00006093EA050E9446079093E9058093E805E0
:102E1000C77081E001C0880FCA95EAF7DF91CF91B2
:102E20001F910F910C9465088091EA05681335C0D5
:102E30008091E8059091E9050E942B07883C910557
:102E400060F510E21D0FCD17B9F080E28C0F8830CD
:102E500040F4C77081E001C0880FCA95EAF70E946C
:102E60005A08183048F481E09D2F977001C0880FF0
:102E70009A95EAF70E946508802F0E94D8161830AC
:102E800098F4D77081E001C0880FDA95EAF7DF91F6
:102E9000CF911F910F910C945A08C77081E001C027
:102EA000880FCA95EAF7F3CFDF91CF911F910F9169
:102EB0000895219A35B13D7F25B122604FB7F8942E
:102EC00081E293E0FC015191CF0168E025B9000057
:102ED00000C057FF35B9550F000000C000C000C04A
:102EE00035B900C06A9591F7F4E08E339F0751F72A
:102EF0004FBF8FE594E00197F1F700C000000895FF
:102F0000AF92BF92DF92EF92FF920F931F93CF93F6
:102F1000DF93C1E5D1E006EC14E0D12CEE24E3947C
:102F2000F12C8991F894E82FE295EF70F0E021A15F
:102F30008F70A70102C0440F551F8A95E2F7CA019E
:102F4000922F982B91A392A18095892382A37894A4
:102F500000C0E7E5F1E030E020E0B12CA12C419188
:102F6000A42FA295AF70B0E090968C9190E04F7036
:102F700002C0959587954A95E2F780FD6FC0C7011D
:102F8000022E02C0880F991F0A94E2F7A82AB92AD4
:102F90002F5F3F4F2F30310511F7FE0131978081B0
:102FA0000E94B50F50EA5A95F1F7F801808191819E
:102FB000A816B90609F455C0B182A08281E0D82ACA
:102FC0000E5F1F4FF1E0C735DF0709F0AACFDD2004
:102FD00009F449C081E0809320030E944607909342
:102FE0001F0380931E0380911E0390911F030E9474
:102FF0002B070697E0F18091C6049091C704909347
:103000008105809380058091C8049091C9049093B4
:103010008305809382058091CA049091CB0490939C
:103020008505809384058091CC049091CD04909384
:103030008705809386058091CE049091CF0490936C
:103040008905809388058091D0049091D104909354
:103050008B0580938A051092200309C090E080E0E0
:1030600095CF80E0ACCF809120038111BCCF8091BF
:103070004404882371F080914204909143040E949B
:103080002B07893E934028F082EE0E946A0E109230
:1030900044048D2DDF91CF911F910F91FF90EF9000
:1030A000DF90BF90AF9008956AEE7EEF90E080E0F1
:1030B0000E94622E60E082E090E00E94442E60E078
:1030C00083E090E00E94442E1092C0041092C1044C
:1030D0001092C2041092C30460E084E090E00E9469
:1030E000442E60E082E290E00E94442E60E085E0A1
:1030F00090E00E94442E60E086E090E00E94442E22
:103100006FEF87E090E00E94442E40E050E0BA016B
:1031100088E090E00E94562E60E08DE090E00E94F2
:10312000442E40E050E0BA0188E190E00E94562E23
:1031300060E087E190E00E94442E40E050E0BA0158
:103140008CE190E00E94562E70E060E080E290E01A
:103150000E94622E40E050E0BA0188E190E00E94B7
:10316000562E40E050E0BA018FE090E00E94562ECB
:1031700040E050E0BA0183E190E00C94562E46E026
:1031800050E06CE170E08BEE95E00C94342E909161
:10319000EB05937089F0811107C094609093EB0563
:1031A000109214010C94BF18813210F09068F6CF81
:1031B000880F880F982BF2CF08958091EB058695A4
:1031C0008695815009F480E20C94C7188091EB0534
:1031D000869586958F5F813208F081E00C94C71840
:1031E0009091EB05937059F08093EC056093ED0599
:1031F000413808F040E84093EE050C94BF1808955C
:10320000EBEEF5E0438120E1421B08F440E08181D0
:10321000628190E00C94F018EBEEF5E0438120E140
:10322000420F08F44FEF8181628190E00C94F01816
:10323000EBEEF5E0628120E1621B08F460E0818141
:10324000438190E00C94F018EBEEF5E0628120E110
:10325000620F08F46FEF8181438190E00C94F018C5
:10326000EBEEF5E08181438162818850990B0C94EB
:10327000F018EBEEF5E0818190E0438162810896E1
:103280000C94F0183F924F925F926F927F928F92C0
:103290009F92AF92BF92CF92DF92EF92FF920F93E5
:1032A0001F93CF93DF9300D000D00F92CDB7DEB73E
:1032B0008C01FC0183819481892B31F08081918183
:1032C00089238F3F09F01AC60F900F900F900F902F
:1032D0000F90DF91CF911F910F91FF90EF90DF90B2
:1032E000CF90BF90AF909F908F907F906F905F90A6
:1032F0004F903F9008950E94E611F82E682F898123
:103300009A810E94240869817A818F2D0E944F1032
:103310007C01F8018281882309F4E3C597012251D9
:103320003F452031310508F0A3C58FEF93E00E949F
:10333000262EFEEEEF0E57EF852E52E0952E8823B7
:1033400081F18091BB04877009F4BECFF8018281BE
:10335000882309F4B9CF82E00F900F900F900F905F
:103360000F90DF91CF911F910F91FF90EF90DF9021
:10337000CF90BF90AF909F908F907F906F905F9015
:103380004F903F900C94AA0D811424E09206C9F24C
:10339000C4010E94262E811101C0EA943FEF831AD6
:1033A000930AE110F1CF1C821B82442443944AE02B
:1033B000342E74018FEFE81AF80AC4010E94262EF9
:1033C00089831A82882309F4BCCF9FEF980F93302A
:1033D00000F58A83498292E0890E911CC7010E9400
:1033E000262E8B83882309F4ACCFFE0131967F0112
:1033F000F70120812223E9F2213009F049C09181AF
:103400008281913041F4F2E0EF0EF11C0E94D81657
:1034100009C04701EACF923049F422E0E20EF11CE4
:103420000E943F0F3FEFE31AF30AE2CF933031F4EB
:1034300032E0E30EF11C0E946A0EF4CF943021F0CA
:103440008FEFE81AF80AEECF92E0E90EF11C30E0B7
:1034500020E0B7016F5F7F4FF70141818053990BE7
:103460008A30910550F021503109E0F28FE99FE058
:103470000197F1F700C00000F6CF329EF001339EB5
:10348000F00D11249C012E0F3F1F842F7B01E1CFF3
:10349000E22FF0E0EC53FA4F5490822F86958695F8
:1034A000869590E0FC01EC54FA4F64902770712CE3
:1034B000022E02C0759467940A94E2F7E1E06E224E
:1034C0007724FC01EC55FA4FA490B12C022E02C0D7
:1034D000B594A7940A94E2F7F1E0AF22BB24FC0173
:1034E000EC56FA4FC490D12C02C0D594C7942A95BB
:1034F000E2F721E0C222DD246114710419F081EEAB
:103500000E943F0FA114B10419F086EE0E943F0FF4
:10351000852D0E94D816AB2819F086EE0E946A0EFF
:10352000672819F081EE0E946A0ECD2809F47ACF3F
:103530008CE26CCF81E00E94C60D0E946B0D01CF22
:1035400081E00E94870DF9CF82E0F5CF882309F44E
:103550007EC080914404811106C081E080934404C0
:1035600082EE0E943F0F0E9446079093430480938F
:1035700042048BE20E943F0FF8018281882309F404
:10358000CEC41092EA05F2E0EF16FCE5FF0608F45F
:103590007AC126E1E2162CE5F20630F0C7018A5F17
:1035A0009C45099708F06FC10E941B109093C504B9
:1035B0008093C40430E1E3163CE5F30609F432C11C
:1035C00008F0B1C098E0E9169CE5F90609F420C1BD
:1035D00008F07AC0F4E0EF16FCE5FF0609F410C12C
:1035E00008F05CC032E0E3163CE5F30609F4FEC0E7
:1035F00083E0E8168CE5F80609F4FEC06091C40487
:10360000F090C50484E090E00E94442E6F2D82E289
:1036100090E00E94442E0E94D51293CE8823A1F000
:1036200080914404811106C081E08093440482EEBD
:103630000E943F0F0E9446079093430480934204E8
:1036400081EE0E943F0F95CF81EE0E946A0E8BE2C1
:103650000E946A0E91CFE5EFEE16ECE5FE06B9F09A
:1036600090F026EFE2162CE5F20609F085CF27E26E
:1036700045EE66EE32C427E245EE65EE2EC426E244
:1036800041EE60EE2AC427E245EE64EE26C426E24F
:1036900041EE62EE22C428E241E0EFCF8091C40403
:1036A000806196E0E9169CE5F90609F4A2C08091D4
:1036B000C4048860E7E0EE16ECE5FE0608F499C065
:1036C0008091C404806295C08091C4048D7FFCE029
:1036D000EF16FCE5FF0609F48CC078F48091C40471
:1036E0008C603AE0E3163CE5F30609F482C008F486
:1036F00093C08091C4048E7F7CC08091C404877F76
:103700009EE0E9169CE5F90609F473C08091C404B3
:103710008B7FEFE0EE16ECE5FE0608F46AC08091C0
:10372000C4048F7E66C0FBEFEF16FCE5FF0609F4CC
:103730006BC068F533E1E3163CE5F30609F47AC0A3
:1037400090F491E1E9169CE5F90609F46FC0E2E115
:10375000EE16ECE5FE0609F051CF0E94D5128091DD
:10376000C4048F7746C0F5E1EF16FCE5FF0609F4C7
:1037700069C008F47DC08091C50481603AEFE3160A
:103780003CE5F30609F03ACF8093C50437CF8FEFBD
:10379000E8168CE5F80609F451C0A0F48091C50440
:1037A0008D7FEDEFEE16ECE5FE0671F38091C5041A
:1037B0008E7FFEEFEF16FCE5FF0630F38091C50427
:1037C0008360E2CF21E0E2162DE5F20609F459C04C
:1037D00008F444C060E082E0E8168DE5F80609F0E0
:1037E0000DCF8EE090E00E94442E08CF8091C4045B
:1037F00081608093C40402CF8091C4048260F9CFB9
:103800008091C4048460F5CF8091C5048260BCCFF0
:103810008091C4048064EDCF0E94D5128091C404CD
:103820008068E7CF8091C4048F7DE3CF8091C4048A
:103830008F7BDFCF8091C404837FDBCF8091C50471
:103840008C7FA2CF8091C40482FB992790F921E05C
:10385000922790FB82F990FB83F9CBCF8091C5042E
:10386000982F909591708E7F892B90FB81F98CCF4A
:103870000E94D5129091C404892F97FB87F9805834
:10388000B8CF61E0AECF8091BE0496E1E9169CE529
:10389000F90609F053C38A7A91E009F490E0909315
:1038A000450469E2811165E38EEF92E00E947C0796
:1038B0000E94B70746CD8091EB0591E08927809360
:1038C000EB05109214010E94BF183BCD4DED58E15D
:1038D00066EE78E10E94A70834CD46EE58E16DED22
:1038E00078E1F8CF40E359E169E379E1F3CF49E3C7
:1038F00059E160E379E1EECF48E159E164E279E131
:10390000E9CF44E259E168E179E1E4CF4CE059E1E3
:1039100060E079E1DFCF44ED52E26AEC72E2DACFA7
:103920004AEC52E264ED72E2D5CF81E00E94C71802
:1039300008CD8BE0FBCF8BE5E8168DE5F80611F19D
:103940009CE5E9169DE5F90609F02AC38091C504B6
:1039500082FB882780F991E089270E94AB1220C35F
:103960000E94D512EFEFF4E32CE0E150F04020404C
:10397000E1F700C000000E94B4160E945418E1CC88
:1039800081E0EBCF80E0E9CFC7010E94FC07D82E91
:1039900016C32F2D2F70A22E8F2D807F19F0A29489
:1039A00090EFA922DD20C9F0AA2069F080E28E0DF7
:1039B000883010F081100BC08091BE04A82AA0921C
:1039C000BE040E94B7078E2D0E943F0F19C0809140
:1039D000BD04A82AA092BD04F4CF8E2D0E946A0EC9
:1039E000AA2071F0A09480E28E0D883010F0811032
:1039F0003FC08091BE04A822A092BE040E94B707D7
:103A0000232D2850330B2430310520F40E949B08CD
:103A10000E940F10CC2009F457CC8091BB0480FD8C
:103A200053CCF80112828595859585950E94C60D27
:103A3000C8010E9442198091BB04859585958595A2
:103A40000F900F900F900F900F90DF91CF911F91DB
:103A50000F91FF90EF90DF90CF90BF90AF909F902D
:103A60008F907F906F905F904F903F900C94870D58
:103A70008091BD04A822A092BD04C0CF3F2D3F700D
:103A8000932E8F2D807F803219F0929480EF9822B0
:103A9000882071F081E0881681F1DD20D9F1AA201B
:103AA00091F1F801858180FF8ECF8F7085832BC0C7
:103AB000DD20B1F09091BF04892D892BA11003C0A6
:103AC0000E9465089DCFE1E0AE12FACF2091C504B7
:103AD00022FD96CF981709F493CF8093BF0490CF1F
:103AE000A11006C00E94B107892D0E945A0888CFF4
:103AF000F1E0AF1609F484CFF5CFDD2031F025E0F9
:103B00002A1508F47DCF892DDBCF34E03A1508F46F
:103B100077CFEACFAA2041F3F9E38F1209C02FEF44
:103B200037EE83E0215030408040E1F700C00000D4
:103B30008E2D0E946A0E64CF8F2D86958695837098
:103B400061F0813009F05CCFC7019370D11002C0E1
:103B500090E080E00E946F0853CFC7019370D110AE
:103B600002C090E080E00E9485084ACF8E2DDD20C3
:103B700029F00E94E50E0E941D0D42CF0E94F10D1A
:103B8000FACF8F2D837009F066C0D11039CF8E2DFA
:103B9000829586958770880F880F6E2D6F70462EE0
:103BA000512C712C612C082E04C0440C551C661C31
:103BB000771C0A94D2F740E050E0BA01E4FE0FC04F
:103BC0004FE050E060E070E004C0440F551F661FF6
:103BD000771F8A95D2F740955095609570958F2DF7
:103BE000869586958370823019F1D8F48090C00450
:103BF0009090C104A090C204B090C304813069F0D9
:103C00004429552966297729CB01BA0168217921F0
:103C10008A219B210E94E70DF3CE482859286A2863
:103C20007B28CB01BA016429752986299729F2CF0F
:103C300044295529662977294090C0045090C10431
:103C40006090C2047090C304CB01BA01642575254D
:103C500086259725DFCF8695DD2011F08F2D817089
:103C6000882309F4CDCE8E2D829586958770880F96
:103C7000880F6E2D6F70462E512C712C612C082EE2
:103C800004C0440C551C661C771C0A94D2F740E013
:103C900050E0BA01E4FE0FC04FE050E060E070E099
:103CA00004C0440F551F661F771F8A95D2F74095B1
:103CB0005095609570958F2D86958695837082308E
:103CC00019F1D8F48090F1059090F205A090F305D9
:103CD000B090F405813069F0442955296629772987
:103CE000CB01BA01682179218A219B210E94610DB3
:103CF00087CE482859286A287B28CB01BA01642935
:103D0000752986299729F2CF4429552966297729CB
:103D10004090F1055090F2056090F3057090F40525
:103D2000CB01BA016425752586259725DFCF9F2D08
:103D30009F70F92EDD2029F0892F0E94C60D8E2D4F
:103D4000BFCE8E2D0E945A088F2D0E94870D58CE0F
:103D50008E2DE2EF8E1609F457C0E81578F0F0EFDB
:103D60008F1649F121EF821609F446C0DD2009F4CF
:103D70006FC0A11028CE8F2D8F7143C033EF8316F3
:103D800009F447C094EF8912F1CFDD2009F455C042
:103D90002F2D2F71F22E822F0E94C60D8091C50407
:103DA00082FD07C038E0F39EC00111248360809338
:103DB000BB048F2D26C0DD20D1F0E4E0EA1508F425
:103DC0001FCE2F2D2F7161E070E080E090E004C0E5
:103DD000660F771F881F991F2A95D2F74090F1052B
:103DE0005090F2056090F3057090F4059BCFF5E0DC
:103DF000FA1508F405CEE5CF8F2D8F71DD2009F47B
:103E0000A4CF0E94C60DFCCD8F2D8F71DD20C9F38C
:103E10009CCF60E070E0CB01DD2009F467CF2F2D4F
:103E20002F7161E070E080E090E004C0660F771FC2
:103E3000881F991F2A95D2F759CF81E00E94AA0DB9
:103E400081E08A1508F0DCCD82E00E94AA0DD8CD71
:103E5000AA2059F0893309F06BCE9FEFE7EEF3E02B
:103E60009150E040F040E1F761CE8F2D8F716DCF22
:103E7000F0E1EF16FFE5FF0609F45CCB21E1E21665
:103E80002FE5F20609F460CB90E8E9169FE5F90604
:103E900009F45CCBE1E8EE16EFE5FE0609F4BECBD3
:103EA000F3EFEF16FCE5FF0609F4E9CB08F0D3CBFE
:103EB00038EDE3163CE5F30609F4DDCB89EDE816B1
:103EC0008CE5F80609F4E7CB97EDE9169CE5F906D1
:103ED00009F052CB26E241EE61EEC8010E94F516D0
:103EE00030CA30E1E3163FE5F30609F429CB91E14E
:103EF000E9169FE5F90641F682E023CB85E0DE0175
:103F0000119601900D928A95E1F7F801228189813D
:103F10009A812111F0C90E94FC07F82EF4C9F6E13C
:103F2000EF16FCE5FF06E1F58091450469E2811199
:103F300065E38EEF92E00E945207BACC82722AECBF
:103F4000E2162CE5F20609F4E1CC08F084C095EC09
:103F5000E9169CE5F90609F4C5CC08F063C0F3EC5A
:103F6000EF16FCE5FF0609F4B1CC08F0B6CC32EC54
:103F7000E3163CE5F30609F49ECCEAE5EE16EDE522
:103F8000FE0609F4FDCC08F0D6CCE1142CE5F206CF
:103F900009F4E6CC3EEDE3163CE5F30609F4EDCC7E
:103FA000F8018281E080F180882309F4EDCCC7011B
:103FB0000E94E611D82E682FC7010E942408B7017D
:103FC0008D2D0E945C107C01882EF801D280A58086
:103FD000A2943FE0A3228091BB048770A1F0CD2C76
:103FE000DD2091F08F2D807F803421F080E28E0DD6
:103FF000883048F082E00E94AA0D8091BB0487704F
:10400000CC24C3948111C12C3F2C32942FE0322256
:10401000FBE0F31508F4F4CCE32DF0E0EB51F14DA7
:104020000C94A42D97ECE9169CE5F90609F464CCF0
:1040300008F45DCCF8ECEF16FCE5FF0609F461CC62
:1040400040E059E16CE079E129ECE2162CE5F2065A
:1040500009F440CC92CF3FECE3163CE5F30609F4BB
:1040600068CCA8F4ECECEE16ECE5FE0609F458CCAE
:1040700008F451CC2DECE2162CE5F20609F455CCEF
:104080003EECE3163CE5F30609F45BC976CF86ED1A
:10409000E8168CE5F80640F480E191EDE9169CE520
:1040A000F90608F443CC4DC9EDE5EE16FE0609F419
:1040B00048C963CF1F93CF93DF9380914C04807FD7
:1040C000A9F480914904882389F080917E04D091DD
:1040D0004D046091470470914804A0914A04B09146
:1040E0004B04C62FC72316E0D81304C0DF91CF912D
:1040F0001F91089590E0109711F0CF3F19F40196A9
:104100008770F2CF189F9001199F300D1124F9018B
:10411000E25BFB4F41814713F2CF40814613EFCF63
:1041200042814111ECCF438154814A1B5B0B483CD7
:10413000510528F780914C048F70806180934C0466
:10414000F901ED5AFB4F80818F708061808387E495
:1041500094E00E944219DF91CF911F910C94500876
:10416000AF92BF92CF92DF92EF92FF920F931F9385
:10417000CF93DF93CDB7DEB761970FB6F894DEBF6C
:104180000FBECDBF8C0185E0F801DE011D960190C8
:104190000D928A95E1F7F80180819181E28027E410
:1041A000A22E24E0B22E60914A0470914B04611556
:1041B000710509F43EC13091470440914804232F12
:1041C00024232F3F09F435C1C380D480F0904904E3
:1041D000F601E61BF70BFF2009F4FBC020914C040D
:1041E000522F507FE83CF10508F0BBC0511178C058
:1041F000FE2C491321C038131FC0E1101DC02F70C1
:10420000206120934C04C5010E94421980914C0406
:10421000F80185838F2D61960FB6F894DEBF0FBE2F
:10422000CDBFDF91CF911F910F91FF90EF90DF9065
:10423000CF90BF90AF900895CD2829F0282F292343
:104240002F3F09F014C120E0F22FF170DF2E20FF84
:104250003DC020917E0440914D0456E0241315C0CA
:104260008D879E878D859E850E942812292F2295F5
:104270002F702230F8F0243020F59F70F9F0F8010B
:104280009581907FD9F4D12C1FC030E0529FF0016E
:10429000539FF00D1124E25BFB4F6181961306C022
:1042A0006081861303C06281E61210C02F5F3F4F0A
:1042B0002770D4CF9F7011F0882329F3805E883057
:1042C00010F3C8010E944219FD2CA4CFEE2009F47E
:1042D000A1CF80914C04816080934C04F12C9ACF43
:1042E000491312C0381310C0E1100EC0F801258325
:1042F000C8010E94421986E0F801A7E4B4E00190E9
:104300000D928A95E1F786CF8D879E878D859E8554
:104310000E943212882309F1EE20F9F080914C04BA
:10432000803270F0209147043091480438872F8301
:104330001986DB86CA868C87CE0107960E944219B1
:1043400086E0F801A7E4B4E001900D928A95E1F7C8
:104350000E945A20FF24F3945DCFC8010E944219A5
:10436000F9CF51110AC087E494E00E94421986E017
:10437000F50111928A95E9F7B1CF49130FC03813AF
:104380000DC0E1100BC0F8012583C8010E9442193D
:1043900086E0F50111928A95E9F73CCF8D879E87DB
:1043A0008D859E850E9432128823B9F2EE20A9F2F3
:1043B00080914C04803220F22091470430914804CF
:1043C0003A8329831B82DD82CC828E83CE010196C3
:1043D000B5CFE83CF105E0F6FE2CEE2009F4BDCFA8
:1043E000491316C0381314C080914C0480FD83CF4C
:1043F000982F907F09F47FCFF8018583903F09F4CF
:1044000077CF982F907F905F8F70892B858370CFA7
:104410008D879E878D859E850E943212811190CF57
:1044200080914C04816080934C04C8010E94421921
:10443000F1CEEE2009F491CF8D879E878D859E85E4
:104440000E943212F82E882309F487CF86E0F80103
:10445000A7E4B4E001900D928A95E1F780914704BA
:10446000909148040E9428120E945A20D3CE21E045
:104470002E25EACE1F93CF93DF93CDB7DEB7679794
:104480000FB6F894DEBF0FBECDBF342F4B8B252F58
:104490005C8B6D8B7E8B8F8B8E899F8961111092C7
:1044A000BD041A8A198A3D872E876F87998B888B5E
:1044B00086E0FE013D96DE01179601900D928A95E9
:1044C000E1F7CE0107960E94B020882389F016E01C
:1044D00080917E0490914D04891349C067960FB670
:1044E000F894DEBF0FBECDBFDF91CF911F9108952D
:1044F00086E0FE013796DE01119601900D928A95B5
:10450000E1F78A859B85892B11F38F819885892313
:104510008F3FE9F220914D0430E0C9010196877088
:10452000992740917E044817190671F40E94D5120C
:1045300010924D0410927E0486E0E7E4F4E0DF017F
:104540001D928A95E9F7C3CF96E0929FD001939F81
:10455000B00D1124A25BBB4FFE01319601900D926C
:104560009A95E1F780934D040E945008B0CF819F47
:10457000C0011124825B9B4F0E94B020882309F464
:10458000ADCF80917E0490E001968770992780934B
:104590007E049ECFEBEEF5E0248130E1230F08F49A
:1045A0002FEF24830C94BF18EBEEF5E0248130E16B
:1045B000231B08F420E024830C94BF18EBEEF5E0F5
:1045C0008DE280838091150190911601A0911701D1
:1045D00081839283A3838FE784838FEF85830C94F9
:1045E000BF181F920F920FB60F9211242F933F9373
:1045F0004F935F936F937F938F939F93AF93BF93EB
:10460000CF93DF93EF93FF93D091E900DF70809118
:10461000EC00C82FC17080FDC0E81092E9008091C5
:10462000F000877F8093F00078940E94EA12109245
:10463000E9008091F00088608093F000CD2BCF706E
:10464000C093E900FF91EF91DF91CF91BF91AF91BE
:104650009F918F917F916F915F914F913F912F919A
:104660000F900FBE0F901F9018951F920F920FB6CC
:104670000F9211242F933F934F935F936F937F93E8
:104680008F939F93AF93BF93EF93FF938091E1003C
:1046900082FF09C08091E20082FF05C08091E100A5
:1046A0008B7F8093E1008091DA0080FF24C08091AD
:1046B000D80080FF20C08091DA008E7F8093DA00DE
:1046C0008091D90080FF9BC080E189BD82E189BDD6
:1046D00009B400FEFDCF81E08093B10580918C0587
:1046E000811109C00E94B7030E9482048091E200F8
:1046F00084608093E2008091E10080FF17C0809188
:10470000E20080FF13C08091E2008E7F8093E20080
:104710008091E20080618093E2008091D800806205
:104720008093D80019BC85E08093B1058091E100A9
:1047300084FF29C08091E20084FF25C080E189BD0B
:1047400082E189BD89B5982F917080FFFBCF809160
:10475000D8008F7D8093D8008091E1008F7E809378
:10476000E1008091E2008F7E8093E2008091E20080
:1047700081608093E2008091B205882309F445C0EE
:1047800084E08093B1058091E10083FF27C0809190
:10479000E20083FF23C08091E100877F8093E100E6
:1047A00082E08093B1051092B2058091E1008E7F86
:1047B0008093E1008091E2008E7F8093E2008091FF
:1047C000E20080618093E20042E060E080E00E94CD
:1047D00050048091F00088608093F000FF91EF9189
:1047E000BF91AF919F918F917F916F915F914F9109
:1047F0003F912F910F900FBE0F901F90189519BCED
:104800001092B10510928C0576CF8091E30087FD60
:1048100093E09093B105B7CFCDB7DEB7AE970FB6A3
:10482000F894DEBF0FBECDBF84B7877F84BF0FB6BD
:10483000F894A89580916000886180936000109240
:1048400060000FBE80E890E00FB6F894809361009E
:10485000909361000FBE85B7806885BF85B780687B
:1048600085BF86E297E09093FD028093FC020E9450
:10487000B7030E9482048091E20084608093E2008A
:1048800078948091B1058823A1F01091E9001F7000
:104890009091EC00892F817090FD80E8182B109288
:1048A000E9008091E80083FD0E94EA121F701093D6
:1048B000E90082E084BD93E095BD9AEF97BD8093B7
:1048C0006E0081EF0E94B50F87EF0E94B50F86EF53
:1048D0000E94B50F85EF0E94B50F84EF0E94B50FBF
:1048E00085E90E94B50F07E511E0D8018D918D0192
:1048F0000E94B50FB1E006361B07B9F7E6ECF4E00D
:1049000082ED94E0A0E8B5E0119211921D921D9203
:104910008E179F07C9F790E080E00E942E2E8A3EF6
:104920009E4F11F00E94541882E090E00E94262EC3
:10493000809373050E941B109093C5048093C40458
:104940000E948017FFEF26E731E0F1502040304011
:10495000E1F700C000000E9480178091800580FF71
:1049600017C06FEF83E290E00E94442E6FEF84E265
:1049700090E00E94442E6FEF85E290E00E94442E6A
:104980006FEF7FEF90E080E00E94622E0E94B416ED
:1049900083E090E00E94262E682F70E090E080E097
:1049A0000E94E70D549A5C9A1092BB058FEF9FEF1F
:1049B0009093D5058093D4059093D7058093D60521
:1049C0009093D9058093D8059093DB058093DA0501
:1049D0009093DD058093DC059093DF058093DE05E1
:1049E0009093E1058093E0059093E3058093E205C1
:1049F0001092D5049093EF048093EE049093F10409
:104A00008093F0049093F3048093F2049093F50460
:104A10008093F4049093F7048093F6049093F90440
:104A20008093F8049093FB048093FA049093FD0420
:104A30008093FC0490E080E00E942E2E8A3E9E4FE0
:104A400021F00E9454180E94DE2246E050E06CE102
:104A500070E08BEE95E00E94162E8091EB058C7F26
:104A600011F40E94DE2283E290E00E94262E813221
:104A700011F00C94FC2C84E290E00E94262E8730EA
:104A800011F00C94FC2C85E290E00E94262E8931D6
:104A900011F00C94FC2C2098289A6E98769A83B189
:104AA00081706699AAC090E0892B8093650586E0A5
:104AB00091E09093D3048093D20420E4722E8091ED
:104AC000B10500E112E1853009F4D5C00E948017DC
:104AD00081110E943A07E4E7F5E0A0E8B5E0F12C87
:104AE000E12C0E2DAD90BD90219131912A153B0501
:104AF00009F40FC32A253B2510E0CC24C394D12C04
:104B0000A9014C215D21452B09F4FDC219A30AA37B
:104B1000AC20BD2081E0A114B10409F480E08BA396
:104B20000E9446078160782F9DA38CA349A15AA1BA
:104B30006BA18DA10E943A22F701EE0FFF1FEC58E6
:104B4000FA4F80819181C826D926D182C082AB28B4
:104B500071F08FE08E9DF0018F9DF00D1124EB57C9
:104B6000FE4FE10FF11D80818F3F09F090C0912C25
:104B70008090D504C92CD12CC601880D911D0997B0
:104B800064F188E090E05C01AC18BD08B6016A529F
:104B90007B4FA50186ED94E00E940D2EB601625276
:104BA0007B4FA5018EED94E00E940D2EA501440FD0
:104BB000551FB601660F771F62517B4F8EEE94E052
:104BC0000E940D2EB6016A517B4FA50186EE94E03E
:104BD0000E940D2E8A948092D5048091D50490E095
:104BE000A62DB0E09D01220F331F21523E4FAA0F88
:104BF000BB1FBD0160527E4F62C092E055CF8091D5
:104C0000B105843031F180E00E940F101092D4047D
:104C100088E190E00FB6F894A895809360000FBEED
:104C20007092600083B7817F846083BF83B78160A7
:104C300083BF7894889583B78E7F83BF0FB6F8942F
:104C4000A895809160008861809360001092600058
:104C50000FBE8091B005882371F00E948017E0E8B4
:104C6000F5E081919191892B09F0B0C6ACE8B5E0EF
:104C7000AE17BF07B1F78091B105853009F4BFCFFA
:104C80000E94D5120E949B080E940F101FCF682E11
:104C9000992493946DCF90E0FC01EB52FB4FD90126
:104CA0005C915183DB015C915187618A880F991F68
:104CB000FC01EB52FB4F128E118E91E0842F41E0EC
:104CC000480F991540F38093D5048091EB058C7FB4
:104CD000843609F099C08FEF800FDD24D394D00E75
:104CE0009FEF910FA1E0A10F911780F43FE03E9D4F
:104CF000F0013F9DF00D1124EB5FFA4FE90FF11D1C
:104D0000308140E1340F08F43FEF3083412F50E011
:104D10003FE03E9DB0013F9D700D11246B5F7A4FC7
:104D2000FB01E40FF51F3081B0E2232F3B2F230F4F
:104D300008F42FEF2083AF3009F48FC6FB01EA0F90
:104D4000F11D308160E1360F08F43FEF308366E0FB
:104D5000D6122CC0911770F42FE0829FF00111241D
:104D6000EB5FFA4FE90FF11D20813DE0230F08F4BE
:104D70002FEF20833FE0839FC00111248B5F9A4F68
:104D8000FC01E40FF51F208130E1230F08F42FEF21
:104D90002083AF3009F438C0A80FB92FB11D2C9172
:104DA0003DE0230F08F42FEF2C932EC0911770F4E1
:104DB000BFE0DB9EF0011124EB5FFA4FE90FF11D1C
:104DC00030816DE0360F08F43FEF3083EFE0DE9E78
:104DD000900111242B5F3A4FF901E40FF51F608118
:104DE00070E1670F08F46FEF6083AF3009F431C6EC
:104DF000F901EA0FF11D20813DE0230F08F42FEFA8
:104E00002083801708F4A6CFC090FE04D090FF0442
:104E1000E0900005F09001058FB7F89420905F05B1
:104E20003090600540906105509062058FBF52013F
:104E300041018C189D08AE08BF080E943A07609394
:104E4000FE047093FF048093000590930105A091E8
:104E5000D504E5EDF4E02A2F30E0BFEFCB0EDB1EEA
:104E6000E11CF11CC218D308E408F508A3136AC1B9
:104E70002093D5043091EB05E32FE370FE2E19F05B
:104E8000F32EF694F69420911401213009F484C194
:104E9000222309F46AC1223009F41AC4233009F428
:104EA00020C4E0916505EE0FEE0FE093650583B138
:104EB00081708BA71CA6669933C480E0ABA5BCA506
:104EC0008A2BE82BE0936505EF70F0E0EA59FE4F7E
:104ED000808190916405890F909163059F5F823076
:104EE00034F420E08F3F34F4909163059150909317
:104EF000630521E0082E000C990B62E070E00E942F
:104F0000902D8093640521110E943A0786E0ECE61B
:104F1000F5E0DE01119601900D928A95E1F7F0908F
:104F20006E05E0906F05109170050091710510926B
:104F30006E0510926F0510927005109271058F2DFD
:104F40008E2909F448C080916A0590916B050E94F2
:104F50002B079C0190916905992309F475C52333AA
:104F60003105C8F19F3F19F09F5F90936905FF20BD
:104F700059F00E94C50E9FEF1F140CF491E0899F19
:104F8000802D112480936E05EE2059F00E94C50EED
:104F90009FEF1E140CF491E0899F802D11248093C3
:104FA0006F0530916E053323B1F020916F052223F8
:104FB00091F045EB3403C0011124992309F4B3C3E4
:104FC00090936E0565EB260390011124332309F4B9
:104FD000AEC330936F05812F802B09F448C08091B8
:104FE0006705909168050E942B079C0190916605CA
:104FF000992309F424C525363105C8F19F3F19F0DE
:105000009F5F90936605112359F00E94A30E9FEFB6
:1050100011160CF491E0899F802D11248093700566
:10502000002359F00E94A30E9FEF10160CF491E09C
:10503000899F802D11248093710530917005332351
:10504000B1F020917105222391F045EB3403C001AA
:105050001124992309F46FC39093700565EB26031F
:1050600090011124332309F46AC3309371058091B0
:105070006E0590916F05892B90917005892B909109
:105080007105892B11F00E941D0D86E0FE013196FD
:10509000ACE6B5E001900D928A95E1F70E949B087D
:1050A00090917205891731F00E949B0880937205D8
:1050B0000E940F108091B105843009F000CD83E08B
:1050C0008093E9008091E80082FFF9CC8091E800AC
:1050D00090E085FF06C00E94D603882309F433C3FD
:1050E00091E08091E8008B778093E800992309F4A0
:1050F000E6CCE981E150E33108F09EC3F0E0EF50E7
:10510000F14D0C94A42D1F5FCC0CDD1C1F3009F059
:10511000F7CC4FEFE41AF40A66E0E616F10409F062
:10512000E0CC8FEF8EA38FA318A60E944607816064
:10513000782F9AA789A74EA15FA168A58AA50E948A
:105140003A2262CE418D528D1A01512C412CC2144B
:10515000D304E404F50420F421503F5F329686CE58
:10516000480D591D528F418FF8CF10921101609355
:10517000E4057093E5058093E6059093E70589E2E1
:10518000E5EDF4E0ABEBB5E001900D928A95E1F727
:1051900081E08093140185CE9091050181E0F912A0
:1051A0000BC0832F83702091040130E091E08217BF
:1051B000130609F490E0892F817080931301809188
:1051C000F00590911201981739F08093120140E098
:1051D00060E080E00E94C208F0E2FF1550F0EF2D81
:1051E000F0E0EC5FF04D0C94A42D8091130181113F
:1051F00002C010E027C040E060E080E00E94C208EA
:10520000F8CF0091110183E1089F002D112453E193
:10521000E52EE00EDE2C2FE52E1510F44FE5D42EF2
:105220006091EC057091ED058091EE050E94360AC3
:10523000C62EB72EA82E10E00D15B0F011E03EE5F9
:105240003E15B8F2809111018F5F80931101111109
:1052500028CE82E08093140180911301811121CE28
:10526000F1101FCE83E095CFF801E356FD4F80810A
:1052700090911201892331F02A2D4C2D6B2DC801FC
:105280000E94C4080F5F1F4FD7CF0091110183E127
:10529000089F002D112433E1E32EE00ECE2C4FE5C4
:1052A0004E1510F42FE5C22EB090ED05A090EE053E
:1052B0002091EF05672D629F612D1124D62E10E0FD
:1052C0000C1530F011E08EE58E1508F0BBCF91CFB4
:1052D000F801E356FD4F8081909112018923B9F0C6
:1052E000F801EE0FFF1FE052FE4F808182958F7014
:1052F0006091EC058D9D600D11247B2D8A2D0E94FF
:10530000360A462F282F672FC8010E94C4080F5F56
:105310001F4FD6CF0091110183E1089F002D11246A
:1053200083E1E82EE00ECE2C9FE59E1510F41FE5DC
:10533000C12EB090ED05A090EE052091EF05372D20
:10534000329F312D1124D32E10E00C1530F011E0D6
:105350004EE54E1508F076CF4CCFF801E356FD4FE1
:105360008081909112018923D9F0F801EE0FFF1F7F
:10537000E152FE4F6081D69EB0011124B5E07595D3
:105380006795BA95E1F78091EC05680F7B2D8A2D22
:105390000E94360A462F282F672FC8010E94C40892
:1053A0000F5F1F4FD2CF8DEF96E00E94A30B182FF7
:1053B00049CF83ED96E0F9CF84E799E00E94470B4F
:1053C000F6CF85E599E0FACF8AE399E00E94CA0A10
:1053D000EECF8EE199E0FACF81ED96E0E6CF88EC52
:1053E00096E0E3CF8FEB96E0E0CF86EA96E0DDCF64
:1053F00088E996E0EBCF84E09AE0E0CF8DE099E099
:10540000DDCF89EF98E0E2CF8BE696E00E94F10BCA
:10541000CECF8DE396E0FACF86E096E0F7CF1091FD
:10542000130111111EC06091EF0520E1620F08F415
:105430006FEF8091E4059091E5050E942C0A6AE0E7
:1054400070E00E947C2D892B09F0D3CE0E94FD2DA7
:105450006FE570E00E94902D609112010E94D315BB
:10546000F1CE0091110183E1089F002D1124E3E1A9
:10547000EE2EE00E8E2D6FE56E1508F48FE510E030
:10548000C82ED12C0C151D050CF01CCF60911201FB
:10549000C8010E94D3150F5F1F4FF4CF1091130165
:1054A00011111EC06091EF0520E1620F08F46FEF4B
:1054B0008091E4059091E5050E942C0A65E070E07A
:1054C0000E947C2D892B09F094CE0E94FD2D6FE562
:1054D00070E00E94902D609112010E94B115B2CE31
:1054E0000091110183E1089F002D112473E1E72E43
:1054F000E00E8E2D9FE59E1508F48FE510E0C82E76
:10550000D12C0C151D0534F011E0AEE5AE1508F0F8
:1055100099CE6FCE60911201C8010E94B1150F5F44
:105520001F4FEFCF81EB99E040CF85EF95E03DCF66
:105530000091110183E1089F002D112463E1362EB3
:10554000300EE32CBAE5B31510F45AE5E52E809140
:105550001301882361F040E060E080E00E94C2080F
:10556000E5E0F5E08AE5DF011D928A95E9F7809193
:105570001101811115C080910305909104050E94CD
:105580002B0721E08931910508F420E020930205E2
:10559000499730F00E9446079093040580930305D5
:1055A00010E0EE2DF0E0FEA7EDA73FE0532E4AEA13
:1055B000442EEDA5FEA50E171F0734F011E0F9E506
:1055C000F31508F03FCE15CEC80166E070E00E94EA
:1055D000902D5B014C01589CC001599C900D1124E9
:1055E000FC01EB5FFA4FE60FF71FE0808B579E4FF1
:1055F000FC01E60FF71F80818F3F59F1C82ED12C97
:10560000F601E356FD4F808190911201892309F143
:105610003E2D25E5321B08F430E07091ED05242D78
:105620004E2D240F08F42FEF4091EE05822F880FA6
:10563000820F8E5F682F649F612D1124862F642D49
:10564000631B0E94360A462F282F672FC6010E942F
:10565000C40880910205882381F02E2D31E0231BA0
:1056600008F420E0589CC001599C900D11248B5FD8
:105670009A4FA80EB91ED5012C930F5F1F4F99CFDB
:105680008091BB0521E0382F321B08F430E0832FD6
:105690006CED75E00E94530C8ACE6CED75E080E0F5
:1056A000F9CF8091BB0521E0482F421B08F440E070
:1056B000842F61EA75E0EECF61EA75E0F0CF6FE626
:1056C00075E0EDCF67E575E0EACF61E475E0E7CF1F
:1056D000F0920501832F8370809304010E94591773
:1056E000C1CD4091E4055091E5056091E6057091CA
:1056F000E7052FB7F89480915F0590916005A09120
:105700006105B09162052FBF841B950BA60BB70BEB
:105710004097A105B10508F4C4CB10921401C1CB88
:1057200082E090E0CBCB81E080936E054BCC81E0B2
:1057300080936F0550CC81E0809370058FCC81E021
:105740008093710594CC00E210E0CE0101967C01BB
:105750008091E80085FD0AC08091E8008B778093F6
:10576000E8000E94D603882399F3BACC8091F10017
:10577000D7018D937D010150110951F7B1CC1A82E7
:1057800089E08B8311C08A81823009F44FC1833054
:1057900091F1813009F050C00E943A070E94AA2D71
:1057A0006B837C838D839E838091B105843009F067
:1057B00086C91091E9001F709091EC00892F8170CB
:1057C00090FD80E8182B82E08093E9008091E8004A
:1057D00080FF0DC050E040E060E270E0CE01019635
:1057E0000E9407048091E8008E778093E8001F7084
:1057F0001093E90064C9DE011196E0E8F5E08081CC
:105800009181329612969C93129713968C931397CC
:10581000129625E0EC38F20791F7C6CF8A818230E4
:1058200059F46B817C818D819E810E94AA2D86E234
:1058300090E00E94442EB8CF8FEF8983B5CF4C8182
:105840006B818A810E9429109827892798279E8337
:105850008D83AACFED80FE80FE24EF24FE248A8172
:105860000B813EE1039F8001112444EB849F000DD6
:10587000111D11248C8190E0880F991F080F191FAA
:105880006F2DC80187960E94442E6E2DC801889600
:10589000D0CF0E94561288CF80E18A8385CF81E0E5
:1058A0008A836ECF0A811B81102701271027CE0122
:1058B00001967C01CC80DC01AC0DB11D6D01C801ED
:1058C00089509D4FEC14FD0409F46ECF0930B1E00E
:1058D0001B0750F40E94262EF70184830F5F1F4F91
:1058E000BFEFEB1AFB0AEBCFD70114961C92F6CF51
:1058F0000A811B81102701271027FE0131966F01B5
:10590000EC80E00EF12EF11CC80189509D4F0E1560
:105910001F0509F449CF0930F1E01F0728F4D6012B
:1059200014966C910E94442EBFEFCB1ADB0A0F5FD6
:105930001F4FEACF0E94C51237CF84E0AECF0A8155
:105940001B81102701271027FE0131967F01CC8093
:105950009F012C0D311D6901C8018796EC14FD04CF
:1059600009F422CF003D32E0130758F40E94262E9E
:10597000D70114968C930F5F1F4FFFEFEF1AFF0AAA
:10598000EBCFF7011482F7CF0A811B811027012783
:1059900010279E012F5F3F4F6901EC80E00EF12E32
:1059A000F11CC80187960E151F0509F4FDCE003DB8
:1059B00032E0130728F4D60114966C910E94442E0D
:1059C000BFEFCB1ADB0A0F5F1F4FEBCF09BD19BD2D
:1059D00009B400FEFDCF8091D8008F7D8093D80060
:1059E0008091E00082608093E0008091E00081FD82
:1059F000FCCF0E94D5123FC960E086E290E00E9491
:105A0000442E0E9456120E94C51261E283E290E089
:105A10000E94442E67E084E290E00E94442E69E1F7
:105A200085E290E00E94442E0C944B2586E290E0A3
:105A30000E94262E1B821C821D828E83B5CE2D32A3
:105A4000314008F0DDCA13CB2D32314008F08CCA4A
:105A5000C2CA801708F0D8C97FC926E0D212A8C9E7
:105A60007BC978941F921FB61F9211248F939F9326
:105A7000AF93BF9380915F0590916005A091610500
:105A8000B09162050196A11DB11D80935F059093B1
:105A90006005A0936105B0936205BF91AF919F919E
:105AA0008F911F901FBE1F9018951F921FB61F92B7
:105AB00011248F939F93AF93BF938091D40481114E
:105AC00013C080915F0590916005A0916105B09130
:105AD00062054196A11DB11D80935F0590936005FD
