:100000000C94FC030C9443040C9443040C9443049C
:100010000C9443040C9443040C9443040C94430444
:100020000C9443040C9443040C94E2200C949E2002
:100030000C948C270C9443040C9443040C944304B8
:100040000C9443040C9443040C9443040C94430414
:100050000C9443040C9468270C9443040C944304BC
:100060000C9443040C9443040C9443040C944304F4
:100070000C9443040C9443040C9443040C944304E4
:100080000C9443040C9443040C9443040C944304D4
:100090000C9443040C9443040C9443040C944304C4
:1000A0000C9443040C9443040C944304050109028A
:1000B000A10185020901A100050919012905150001
:1000C00025019505750181029501750381010501E1
:1000D000093009311581257F950275088106093897
:1000E0001581257F950175088106050C0A380215D2
:1000F00081257F950175088106C0C005010980A191
:1001000001850319012AB700150126B7009501756D
:10011000108100C0050C0901A101850419012AA064
:1001200002150126A002950175108100C005010984
:1001300006A1018505050719E029E71500250195A8
:1001400008750181020507190029EF1500250195A1
:10015000F0750181020508190129059505750191C0
:1001600002950175039101C00660FF0961A10109B3
:1001700062150026FF0095207508810209631500AD
:1001800026FF00952075089102C005010906A1010E
:10019000050719E029E71500250195087501810279
:1001A0009501750881010507190029FF150026FF33
:1001B0000095067508810005081901290595057542
:1001C000019102950175039101C000010101010136
:1001D0000101010102020202020202020203030300
:1001E00003030303030404040404040405050505D0
:1001F0000506060606060707070707080808080990
:100200000909090A0A0A0B0B0B0C0C0C0D0D0D0E3B
:100210000E0E0F0F0F1010111111121213131414D0
:10022000151516161717181819191A1A1B1B1C1D45
:100230001D1E1E1F2020212222232424252626279E
:100240002829292A2B2C2D2D2E2F303132323334D0
:1002500035363738393A3B3C3D3E3F4041424344D6
:1002600045464748494A4C4D4E4F505153545556B8
:1002700058595A5B5D5E5F616264656668696B6C64
:100280006D6F7072737577787A7B7D7E80828385DF
:1002900087888A8C8E8F91939596989A9C9EA0A21F
:1002A000A3A5A7A9ABADAFB1B3B5B7BABCBEC0C229
:1002B000C4C6C9CBCDCFD1D4D6D8DBDDDFE2E4E7ED
:1002C000E9EBEEF0F3F5F8FAFDFFFFAA7F554022C7
:1002D00023252628292A2C2D2F3032333536383A3B
:1002E0003B3D3E4042434547494A4C4E5051535591
:1002F00057595A5C5E6062646668696B6D6F7173B2
:100300007577797B7D7F81838587898A8C8E9092B2
:100310009496989A9C9E9FA1A3A5A7A8AAACAEAFBD
:10032000B1B3B4B6B8B9BBBCBEBFC1C2C3C5C6C702
:10033000C9CACBCCCDCED0D1D2D2D3D4D5D6D7D7B3
:10034000D8D9D9DADADBDBDBDCDCDCDCDCDDDDDDFB
:10035000DDDCDCDCDCDCDBDBDBDADAD9D9D8D7D7F7
:10036000D6D5D4D3D2D2D1D0CECDCCCBCAC9C7C6A4
:10037000C5C3C2C1BFBEBCBBB9B8B6B4B3B1AFAEE2
:10038000ACAAA8A7A5A3A19F9E9C9A989694929088
:100390008E8C8A89878583817F7D7B797775737160
:1003A0006F6D6B6968666462605E5C5A595755533D
:1003B00051504E4C4A4947454342403E3D3B3A38F6
:1003C00036353332302F2D2C2A2928262523222971
:1003D000003A003B003C003D003E003F0040004131
:1003E00000000042004300440045004C0035001E60
:1003F000001F0020002100220023002400250026E9
:100400000027002D002E002A004A002B0014001A9D
:10041000000800150017001C0018000C0012001343
:10042000002F00300031004B003900040016000797
:100430000009000A000B000D000E000F003300340D
:1004400000280000004E00E1001D001B00060019FE
:1004500000050011001000360037003800E50000EC
:100460000052004D00E000E300E200000000000048
:10047000002C000000000000000151E40050005179
:10048000004F000100010001000100010001000116
:10049000000100010000000100010001000100490D
:1004A0000001000100010001000100010001000144
:1004B0000001000100010001000100010001000134
:1004C00000010001000100005C01000100010001C9
:1004D00000010046000100010001000100010001CF
:1004E0000001000100010001000100010001000104
:1004F00000010001000100000001000100010001F5
:1005000000B2000100010001000100010001000132
:100510000001000000C95C010001000100010000B1
:1005200000000000000100000000000000010001C8
:1005300000C25CCA5CC35C01000100010001000153
:1005400000010001000100010000000100010001A4
:100550000001000100010001000100010001000193
:100560000001000100010001000100010001000183
:100570000001000100010001000100010001000173
:100580000001000100010001000100010001000163
:100590000001000100010001000100010001000153
:1005A0000001000100010001000100000001000144
:1005B0000001000100010001000100010001000133
:1005C0000001000100010000000100010001000124
:1005D0000001000000000000000100000000000019
:1005E0000001000100010001000100010001000103
:1005F00000010001000100010001000100000001F4
:1006000000010001000100010001000100010001E2
:1006100000010001000100010001000100010001D2
:1006200000010001000100010001000100010001C2
:1006300000010001000100010001000100010001B2
:1006400000010001000100010001000100010001A2
:100650000001000100010001000100010001000093
:100660000001000100010001000100010001000182
:100670000001000100010001000100000001000173
:100680000001000100010000000000000001000066
:100690000000000000010001000100010001000055
:1006A000000000000000000000000000000000004A
:1006B0000000007E0F00D4FFFFFFC700000078009D
:1006C000000000000000002A2B28000000000000AD
:1006D0000000000000000000000029000000002CC5
:1006E0001E3420212224342627252E362D37382764
:1006F0001E1F202122232425263333362E37381F70
:100700000405060708090A0B0C0D0E0F1011121331
:100710001415161718191A1B1C1D2F3130232D35CF
:100720000405060708090A0B0C0D0E0F1011121311
:100730001415161718191A1B1C1D2F3130354C3281
:10074000190A00047F3F1F643214643214783C1E7F
:100750001E140A0509025B00030100A0FA09040047
:1007600000010301010009211101000122400007DD
:1007700005810308000A09040100020300000009C2
:100780002111010001222200070582032000010738
:100790000503032000010904020001030000000911
:1007A000211101000122BC000705840320000A1268
:1007B000011001000000084B41510001000102033B
:1007C00001040330000000160341004B00380031E3
:1007D000005F00520065006C0061007800000012AC
:1007E00003410074006C0061006E007400690073C6
:1007F000000000040309040011241FBECFEFDAE05B
:10080000DEBFCDBF04B603FE27C08091D006909115
:10081000D106A091D206B091D3068730904BA74065
:10082000B04BD1F41092D0061092D1061092D2069D
:100830001092D30614BE84B7877F84BF0FB6F89496
:10084000A89580916000886180936000109260009C
:100850000FBEE0E0F8E3099526E0AEE9B1E001C0A3
:100860001D92A03DB207E1F711E0A0E0B1E0E8EC95
:10087000F2E502C005900D92AE39B107D9F70E949A
:10088000D0210C9417290C940000E8EDF0E0808151
:100890008E7F80831092E2001092DA001092E100C5
:1008A000A0EEB0E08C9181608C9380818F77808303
:1008B00019BCA7EDB0E08C918E7F8C9380818F7EE8
:1008C00080831092960608952091E4003091E5000F
:1008D00095E6A9012091EC00822F817020FF06C0CF
:1008E0008091E80080FF06C080E008952091E80034
:1008F00022FD1AC08091CB06882389F0853089F0CB
:100900008091EB0085FD0FC02091E4003091E5005F
:1009100042175307F9F29150E1F684E0089582E01E
:10092000089583E0089581E00895EF92FF920F9378
:100930001F93CF937C018B010E946404C82F811107
:1009400017C08091E80085FD0BC08091E8008E778C
:100950008093E8000E946404882399F3C82F08C09C
:10096000F70181917F018093F1000150110949F74E
:100970008C2FCF911F910F91FF90EF900895CF93FF
:10098000FC018091CB06843001F5C091E900CF7065
:100990002091EC00922F917020FD90E8C92B82E00D
:1009A0008093E9008091E80080FF0CC050E040E0B7
:1009B00060E270E0CF010E9495048091E8008E779C
:1009C0008093E800CF70C093E900CF9108958091A3
:1009D000C30687FF13C08091E80082FF06C08091A4
:1009E000E8008B778093E80004C08091CB068111EA
:1009F000F2CF08958091CB068823D9F38091E80047
:100A000080FFF8CF8091E8008E77ECCF982F9093FD
:100A1000E900242F762F50E0891731F07091EC0017
:100A20002091ED005091F00021FD07C09F5F9730AD
:100A300071F78093E90081E008953091EB003E7FEB
:100A40003093EB003091ED003D7F3093ED0030911D
:100A5000EB0031603093EB007093EC002093ED00DD
:100A60005093F0002091EE0027FDE0CF80E0089544
:100A7000CF92DF92EF92FF920F931F93CF93DF936A
:100A8000C8EDD0E088818F7E8883E7EDF0E080813B
:100A90008160808384E082BF81E0809396068881B4
:100AA0008E7F888302EE10E0F80110821092DA0047
:100AB00081EEC82ED12CF601108288818F77888331
:100AC00088818068888388818F7D888319BC109293
:100AD000CB061092C2061092C1061092C00690EE8C
:100AE000E92EF12CF70180818B7F808388818160E2
:100AF000888342E060E080E00E940605F601808184
:100B00008E7F8083F801808181608083808188600E
:100B10008083F70180818E7F8083888180618883D4
:100B2000DF91CF911F910F91FF90EF90DF90CF90C9
:100B30000895FC018091C9069091CA06861797070F
:100B4000A0F06115710529F49091E8009E779093CB
:100B5000E80090E06115710551F4911108C0809191
:100B6000E80082FF34C080E00895BC01F2CF80919C
:100B7000CB068823C1F18530C1F18091E80083FD67
:100B800030C08091E80082FDEACF8091E80080FFCC
:100B9000E1CF8091F3002091F200382F61157105AB
:100BA00019F02830310558F091E02830310509F06E
:100BB00090E02091E8002E772093E800CBCF819140
:100BC0008093F100615071092F5F3F4FE7CF809113
:100BD000CB06882341F0853041F08091E80083FF07
:100BE000BECF81E0089582E0089583E008950895DE
:100BF00080919F06089590917206803F59F48091EC
:100C0000730687FF0DC01092730691110BC01092EE
:100C10006D0608C0813F81F48091730618169CF31D
:100C2000992381F08091740690917506892B09F0C3
:100C300064C010926A060895823F49F497FFF0CF8E
:100C400010927206809173068111ECCFE0CF833F42
:100C500019F41916ACF3E4CF20917406893F29F4F6
:100C60001216F4F610927406DBCF8A3F19F427FFB0
:100C7000D7CFF8CF209175068B3F29F427FFD0CF2F
:100C800010927506CDCF8C3F19F41216CCF3C8CF55
:100C9000843F31F4809171068E7F80937106C0CFBE
:100CA000853F21F4809171068D7FF7CF863F21F437
:100CB000809171068B7FF1CF873F21F4809171067F
:100CC000877FEBCF883F21F4809171068F7EE5CF3F
:100CD0008D3F31F4809151068E7F80935106A0CFD5
:100CE0008E3F21F4809151068D7FF7CF8F3F09F021
:100CF00097CF809151068B7FF0CF08958091510658
:100D000080FD16C081FD16C082FD16C080916A0666
:100D10008823A1F0883280F428E0829FC00111244A
:100D200068E270E00E94D327862F672B39F0089580
:100D300082E0089584E0089588E0089581E00895B0
:100D40008091510680FD14C081FD14C082FD16C043
:100D500080916D06882381F0843180F422E3829FA4
:100D6000C001112464E170E00E94D327862F08950A
:100D70008CE0089589E1089585E0089582E308955F
:100D8000803F31F40E94A0068195809373060895F8
:100D9000813F19F40E94A006F8CF823F31F40E94EF
:100DA000A0068195809372060895833F19F40E94EE
:100DB000A006F8CF893F29F40E947E06809374062E
:100DC00008958A3F21F40E947E068195F7CF8B3FDC
:100DD00031F40E947E0681958093750608958C3FBC
:100DE00019F40E947E06F8CF843F31F48091710699
:100DF0008160809371060895853F21F4809171068A
:100E00008260F7CF863F21F4809171068460F1CF34
:100E1000873F21F4809171068860EBCF883F21F4F1
:100E2000809171068061E5CF8D3F31F4809151064C
:100E300081608093510608958E3F21F48091510680
:100E40008260F7CF8F3FB9F7809151068460F1CF70
:100E50009C014FB7F8948091920690919306A091CF
:100E60009406B09195064FBF821B930B08952FB740
:100E7000F8948091920690919306A0919406B09177
:100E800095062FBF08950E9437079C019091720626
:100E900080917306982B21F030936F0620936E0695
:100EA0009091740680917506982B21F030936C0612
:100EB00020936B06E0916106F0916206309749F04D
:100EC00082E0809370060480F581E02D80E796E053
:100ED0000994089580914C06811110924C06089552
:100EE00080914B0690914A06892B90914906892B57
:100EF00080939E0190914C069923A1F0892B8093B9
:100F00009E0180911C01882341F180915F0687FF3B
:100F100024C08EE1E0EAF1E090E0815000F591110B
:100F20000E946A07E0916106F09162063097E1F055
:100F300080911C01882359F080915F0687FF07C0CC
:100F400080919E0180939F0185E080939E010280A5
:100F5000F381E02D8EE991E0099486E0DBCF2191C9
:100F60002223D9F29F5FD9CF089590911C01992334
:100F7000D1F090915F0697FF16C0E82FE695E695B1
:100F8000E695EE31E0F4F0E0E256FE4F282F2770B0
:100F900081E090E001C0880F2A95EAF78095928160
:100FA000892382830895E0EAF1E09191891303C0D7
:100FB000DF0111971C9291E0E63AF907B1F7089525
:100FC00090911C019923C1F090915F0697FF14C086
:100FD000E82FE695E695E695EE31F8F4F0E0E25676
:100FE000FE4F877021E030E001C0220F8A95EAF7BA
:100FF0008281822B82830895A0EAB1E0EFEF90E036
:101000002D91821751F0EF3F19F4211101C0E92F02
:101010009F5F9630A9F7EF3F09F408950E2E000C5C
:10102000FF0BE256FE4FE6CF2FE0929F800D11247A
:10103000982F977086958695869525E0829FF0017A
:101040001124E45FF94F50E040E080E0219130E06E
:10105000092E02C0369527950A94E2F721703327AE
:10106000042E01C0220F0A94EAF7822B4F5F5F4FD4
:101070004530510559F708952FE0929F800D1124B6
:10108000982F977041E001C0440F9A95EAF7869532
:101090008695869595E0899FF0011124E45FF94FCC
:1010A00090E080E070E05191DF0111979B01082EE4
:1010B00002C0369527950A94E2F7217021952527DD
:1010C000242325272C9301968530910561F70895F7
:1010D00080910B069091DA05981301C008958F5FF7
:1010E0008770FACF882341F0809590914B06892331
:1010F00080934B060C9470070895882339F09091E3
:101100004B06982B90934B060C94700708952091F2
:10111000D0053091D1052817390771F09093D1058A
:101120008093D005E0916106F0916206309721F03E
:101130000084F185E02D099408952091CE05309129
:10114000CF052817390771F09093CF058093CE050E
:10115000E0916106F0916206309721F00680F781F8
:10116000E02D0994089510924A06109249060E94B3
:10117000700786E0E0E7F6E0DF011D928A95E9F767
:1011800010926D0610926A06109251060E94430753
:1011900090E080E00E949D0890E080E00C94870839
:1011A0006093CC067093CD068093CE069093CF06C5
:1011B0000C94B3080F931F936091CC067091CD06E9
:1011C0008091CE069091CF068B019C01067011276D
:1011D00022273327063011052105310529F46860DF
:1011E0001F910F910C94D008677FFACF0F931F9334
:1011F00041E050E060E070E004C0440F551F661FFE
:10120000771F8A95D2F7CB01BA01609570958095CA
:1012100090950091CC061091CD062091CE0630918C
:10122000CF0660237123822393231F910F910C9487
:10123000D008909148068095892380934806282FEE
:10124000277071F4282F082E000C330B9217130609
:1012500039F08595859585950E94F6081092480687
:1012600008950F931F9341E050E060E070E004C0E8
:10127000440F551F661F771F8A95D2F78091CC06C1
:101280009091CD06A091CE06B091CF068A019B0128
:10129000082B192B2A2B3B2BC901B8011F910F9149
:1012A0000C94D00860934D0670934E0680934F06C1
:1012B000909350060C94B308E0916106F091620699
:1012C000309721F00190F081E02D099480E008959D
:1012D000882309F459C0823871F40E945C0981FFA7
:1012E00053C089E30E94E0070E94700789E30E94CF
:1012F000B5070C947007833859F40E945C0980FF8D
:1013000043C083E50E94E0070E94700783E5EFCFAA
:10131000843859F40E945C0982FF36C087E40E9439
:10132000E0070E94700787E4E2CF9CEF980F913AA4
:10133000F0F290E2980F983088F4877021E030E066
:10134000A90102C0440F551F8A95E2F7CA01809592
:1013500090914B06892380934B06CBCF9BE5980F4A
:10136000933020F490E080E00C949D0898E5980F6D
:10137000973120F490E080E00C948708803F20F0C3
:101380000E94FB050C9443070895FA01811101C0E6
:10139000FB01099480919706982F9E7F61F48170DC
:1013A00082608093970680919A06813A18F080EACD
:1013B00080939A0608958635B0F381708465F1CFE5
:1013C000AF92BF92DF92EF92FF920F931F93CF9352
:1013D000DF93182F062FE901413A08F040EAE42F85
:1013E000F0E0E653FE4F011110C0E4915E2F4E2F46
:1013F0004983E8835A83DF91CF911F910F91FF902A
:10140000EF90DF90BF90AF900895202F30E044918F
:10141000D42EE42EF12C56E0159FC0011124EFEFDD
:10142000F0E0BF010E94BF27812F90E0880F991F35
:1014300055E5569FD001579FB00D11248A1B9B0B79
:10144000982F990F890F5F01A21AB30AAE9CD001A1
:10145000AF9CB00DBE9CB00D11245B2F089F800186
:101460001124012F11275F01A01AB10AAE9C80013F
:10147000AF9C100DBE9C100D11245F01A81AB1087D
:10148000A29EC001A39E900DB29E900D1124892FA3
:101490009927E81BF90BEE9DC001EF9D900DFE9D75
:1014A000900D1124E92F62307105A1F050F46115FF
:1014B000710509F49DCF6130710581F0EB2F512F3B
:1014C00097CF6430710569F080F06630710509F4DA
:1014D0008FCFF4CFE42F4B2F592F8ACFE42F412FFA
:1014E00087CFEB2F542F492F83CF4B2F5D2DE12F2B
:1014F0007FCF90915F0692FF06C0282F2871283079
:10150000F9F4877F846093FF06C0282F2871283163
:10151000F1F4877E84612091600620FF06C0382F99
:1015200038713830D9F4877F816021FF06C0282FB9
:1015300028712831D1F4877E816194FD877E0895DA
:10154000282F24712430F9F68B7F8860DCCF282F78
:101550002471243101F78B7E8861DDCF382F317102
:10156000313019F78E7F8860E0CF282F217121312B
:1015700021F78E7E8861E1CF81FF03C0549A5C9889
:1015800008955498FCCFCF93DF9300D00F92CDB73E
:10159000DEB79091CB06943011F589837B836A8303
:1015A0009093E9008FEF9091E800815095FD06C07F
:1015B00095ED9A95F1F700008111F5CF8091E80043
:1015C00085FF0DC050E040E063E070E0CE01019681
:1015D0000E9495048091E8008E778093E8000F9038
:1015E0000F900F90DF91CF910895BC0184E00C948F
:1015F000C30ABC0183E00C94C30A9C0184E080937D
:10160000E9009FEF8091E800915085FD06C085EDCF
:101610008A95F1F700009111F5CF8091E80085FFE0
:101620000CC050E040E066E070E0C9010E94950403
:101630008091E8008E778093E8000895CF93DF9340
:10164000EC0180911C018823B1F180915F0687FF36
:1016500032C060E284E08093E9008FEF9091E8006F
:10166000815095FD06C095ED9A95F1F70000811126
:10167000F5CF8091E80085FF1BC080911C0170E0D0
:1016800050E040E0811104C050E040E068E070E0CC
:10169000CE010E9495048091E8008E778093E80047
:1016A00080E2FE01A0EAB6E001900D928A95E1F792
:1016B000DF91CF91089568E081E0CDCF81E0809304
:1016C000E00080E28093D8001092C9008FE19EE490
:1016D0000197F1F700C0000087E090EBDC018093F8
:1016E000D0069093D106A093D206B093D30688E19A
:1016F0009CE00FB6F894A895809360000FBE90937D
:101700006000FFCFCF93C82F882309F4AEC0823882
:10171000C1F40E945C0981FDA8C089E30E94E00732
:101720000E9470072FEF81EE94E02150804090409E
:10173000E1F700C0000089E30E94B507CF910C9447
:1017400070078338A1F40E945C0980FD8EC083E598
:101750000E94E0070E9470072FEF81EE94E0215075
:1017600080409040E1F700C0000083E5E5CF843879
:10177000A1F40E945C0982FD78C087E40E94E00722
:101780000E9470072FEF81EE94E02150804090403E
:10179000E1F700C0000087E4CFCF8CEF8C0F813AD7
:1017A00088F580911C01882301F180915F0687FFF5
:1017B0001CC0EC2FE695E695E695F0E0E256FE4F6C
:1017C000828190E04C2F477021E030E002C0220F70
:1017D000331F4A95E2F782239323892B79F08C2FCC
:1017E0000E94B5070E94700709C0E0EAF1E081910C
:1017F000C817A9F321E0E63AF207C9F78C2F0E9437
:10180000E0079CCF80E28C0F883068F4C77021E03D
:1018100030E001C0220FCA95EAF780914B06822B77
:1018200080934B068BCFEBE5EC0FE33040F4F0E018
:10183000E85BFE4F808190E0CF910C949D08E8E535
:10184000EC0FE73150F4F0E0EE0FFF1FE55BFE4FC9
:1018500080819181CF910C948708C03F30F08C2F0C
:101860000E94C006CF910C944307CF910895CF9367
:10187000C82F0E94820BC93349F42FEF87EE93E003
:10188000215080409040E1F700C000008C2FCF91A4
:101890000C9468090F931F93CF93DF93C42FD22F1B
:1018A000FC0182818823A1F04093D2050E94370772
:1018B0009093CD058093CC05C77081E001C0880F5F
:1018C000CA95EAF7DF91CF911F910F910C947D0893
:1018D0001091D205141335C08091CC059091CD059F
:1018E0000E942807883C910560F5C0E2CD0F1D17C6
:1018F000B9F080E2810F883040F4177081E001C0B8
:10190000880F1A95EAF70E947208C83048F481E0FF
:101910009D2F977001C0880F9A95EAF70E947D0865
:10192000802F0E94370CC83098F4D77081E001C036
:10193000880FDA95EAF7DF91CF911F910F910C9400
:101940007208C77081E001C0880FCA95EAF7F3CF2B
:10195000DF91CF911F910F9108958091970680FD9F
:101960000AC0E4ECF1E0118210821282339653E057
:10197000E734F507C1F7219A35B13D7F25B12260E3
:101980004FB7F89484EC91E0FC015191CF0168E0ED
:1019900025B9000000C057FF35B9550F000000C041
:1019A00000C000C035B900C06A9591F7F3E08734F4
:1019B0009F0751F74FBF8FE594E00197F1F700C003
:1019C00000000895EF92FF921F93CF93DF93EC01F5
:1019D00084ECE82E81E0F82E10E08C819701409194
:1019E0009A0660919906810F0E94E0091F5F83E0CB
:1019F000E80EF11C113889F70E94AD0C9A818C8198
:101A000090FF08C08F5F8C83DF91CF911F91FF9073
:101A1000EF9008958150F7CFCF92DF92EF92FF922F
:101A20000F931F93CF93DF93FC018281DD24DA941F
:101A300080FD02C0DD24D39404EC11E0D0E0C0E0CE
:101A4000F80111821082128294E0E92EF12CC12C4F
:101A50008091C1018C0D87FD8F57082E000C990BCA
:101A60008C179D0791F480919A068E9DA0018F9D01
:101A7000500D1124559547955595479598016091BE
:101A80009906809198060E94E009CD0CF1E0EF1ACA
:101A9000F108F1F621960D5F1F4FC138D10581F68F
:101AA0000E94AD0C8091C10191E0D91210C081114A
:101AB0000CC080E88093C101DF91CF911F910F91FD
:101AC000FF90EF90DF90CF9008958150F3CF90E09A
:101AD0000196BE010E94D327EDCF0F931F93CF93A2
:101AE000DF93C4ECD1E0FE011182108212823396A2
:101AF00083E0E734F807C1F710E000E08091C2010D
:101B0000082E000C990B081719077CF18091100121
:101B1000082E000C990B801791073CF19E01409113
:101B20009A0660919906809198060E94E0090F5FDD
:101B30001F4F23960138110509F70E94AD0C8091C3
:101B40000F019091C201980F9093C20190911001E2
:101B5000980F9093100119161CF0819580930F0136
:101B6000DF91CF911F910F910895198218821A82E7
:101B7000DECF8F929F92AF92BF92CF92DF92EF9281
:101B8000FF920F931F93CF93DF93EC014C81042FAF
:101B900010E09801D8010E9408299B01AC010E9425
:101BA000D3284B015C01E0E2F0E0E01BF10BA5E57E
:101BB000B0E0AC019B010E94D3286B017C019F0126
:101BC000DF010E94F4279B01AC010E94DE289B01EB
:101BD000AC01280D391D4A1D5B1DC701B6010E94CD
:101BE000E628F22E822F90E039E23F15D8F143E04B
:101BF000249F9001112435952795122F109594EC70
:101C0000C92E91E0D92E00E085E5E82EEF188E2D43
:101C100001FD8F2D9601412F609199060E94E009E8
:101C20000F5F53E0C50ED11C013889F70E94AD0C3F
:101C30009C8181E0992319F0903219F48FEF809301
:101C4000110180911101890F8C83DF91CF911F9138
:101C50000F91FF90EF90DF90CF90BF90AF909F904B
:101C60008F90089525E530E0A901481B590BCA0162
:101C70009A01220F331F280F391F37FFBCCF2F5F68
:101C80003F4FB9CFEF92FF920F931F93CF93DF9304
:101C90008C01C4ECD1E0F12CE12CF801948160912D
:101CA000990680919806F0E4EF16F104FCF499236C
:101CB000F9F09E0140919A060E94E0092FEFE21A86
:101CC000F20A239681E8E816F10439F70E94AD0C78
:101CD000F801848190E00196817099278483DF91D7
:101CE000CF911F910F91FF90EF900895992309F3E1
:101CF0009E0140E0E1CF9091970690FF0CC0E4EC8C
:101D0000F1E0818360834283339693E0E734F907FF
:101D1000C1F70C94AD0C08950F931F93CF93DF93ED
:101D200000D00F92CDB7DEB78C018091C301811135
:101D30000AC09E012F5F3F4F40EA6FEF0E94E0090B
:101D40008A818093C301F8016481613069F08091D8
:101D5000C30140E0662361F040E0623011F440913D
:101D6000C30180E060E004C06091C30140E080E016
:101D70000E947B0EF801848190E0019663E070E0A0
:101D80000E94D32784830F900F900F90DF91CF9103
:101D90001F910F910895CF93DF9300D00F92CDB78D
:101DA000DEB79091970690FF0AC09E012F5F3F4FCC
:101DB0000E94E0094B8169818A810E947B0E0F900D
:101DC0000F900F90DF91CF910895CF93DF93EC01A7
:101DD000EC81F0E0E153FD4F4491E7E9F6E06281E8
:101DE00081810E94CB0E8C818F5F8C83DF91CF919C
:101DF0000895CF93DF93EC01E7E9F6E04381628138
:101E00008C810E94CB0E8C818F5F8C83DF91CF9170
:101E100008957F928F929F92AF92BF92CF92DF925E
:101E2000EF92FF920F931F93CF93DF9309E711E097
:101E3000A2E5B6E0712CCC24C394D12CE8018991A1
:101E40008E01E82FE295EF70F0E091A18F7076019E
:101E500001C0EE0C8A95EAF7892F8E2981A392A101
:101E60007E2D7095972392A3D0EADA95F1F79FE73C
:101E7000A92E91E0B92E50E040E030E020E0E501ED
:101E800069915E01862E82948FE08822912CE40174
:101E900088A190E06F7002C0959587956A95E2F7EA
:101EA00080FD6DC0C601042E02C0880F991F0A94E0
:101EB000E2F7282B392B4F5F5F4F4F305105F9F672
:101EC00081A1872381A382A1E82AE2A28D919C911E
:101ED00011972817390709F455C011963C932E9392
:101EE00081E0782A1296D1E00F371D0709F0A6CFBE
:101EF000772009F449C081E08093C0010E94370730
:101F00009093BF018093BE018091BE019091BF016B
:101F10000E9428070697E0F180915206909153069F
:101F2000909387068093860680915406909155067B
:101F30009093890680938806809156069091570663
:101F400090938B0680938A0680915806909159064B
:101F500090938D0680938C0680915A0690915B0633
:101F600090938F0680938E0680915C0690915D061B
:101F700090939106809390061092C00109C090E062
:101F800080E097CF80E0ADCF8091C0018111BCCFC0
:101F9000872DDF91CF911F910F91FF90EF90DF90F0
:101FA000CF90BF90AF909F908F907F900895CF93E8
:101FB00084E090E00E946C28C82F81E290E00E94AB
:101FC0006C28982F8C2FCF9108950F931F93CF9348
:101FD000DF93C42FD0E0CC0FDD1F2EE1629FC00D38
:101FE000D11D112434EB839FC00DD11D1124CE01CE
:101FF00086960E946C28082F10E0102F0027CE0133
:1020000087960E946C289801282BC901DF91CF91F7
:102010001F910F910895462F843038F4763028F4BC
:102020006F3018F4672F0C94E50F90E080E008956E
:10203000CF93DF930E940B10EC0182389105A9F138
:10204000D8F58133910509F496C048F58932910598
:1020500009F48AC08A9709F495C0C11521E5D20711
:1020600008F0BCC0C11530E5D30708F014C1C83E64
:10207000D10508F09CC0C03ED10560F5C83AD10535
:1020800008F087C0C53AD10508F0FDC0C130D105C0
:1020900009F12097F9F0C430D105E0F440C0853350
:1020A000910509F45AC0C997C1F680915F06837003
:1020B00089F0C0EED0E00EC0833E910599F170F436
:1020C000803E910501F1823E910539F680915F06CF
:1020D00082FD21C0CE01DF91CF910895863E91050A
:1020E00061F1873E910571F1843E910509F0B5CF0C
:1020F0008091600681FFEECF80915F06C7EED0E051
:1021000084FD0DC0E7CF80915F0680FD12C19091E4
:10211000600690FFDFCFC3EED0E084FFDBCFD0E0DE
:10212000C0E0D8CF80915F0682FD06C19091600625
:1021300090FDBFCF84FFCECFF2CF80915F0683FDAD
:10214000DDCFC8CF80915F0683FDF9C09091600616
:1021500091FFF0CFC4EED0E0BDCF80915F0685FF48
:10216000B9CFC9E2D0E0B6CF80915F0685FFB2CF8C
:10217000C5E3D0E0AFCF80915F0686FFABCFCAE268
:10218000D0E0A8CF80915F0686FFA4CFC1E3D0E066
:10219000A1CFCF3BD10518F6C85AD0E0CC0FDD1F38
:1021A000C55BDE4F0990D881C02DD46493CFC11593
:1021B00040E2D40758F4C11581E0D80708F08ACF6F
:1021C000C03FD10508F4ABCFD06584CFC11590E4F2
:1021D000D90708F4A4CFDF70D06A7CCFC11525E5FC
:1021E000D20700F5C11534E5D30708F08AC0C11540
:1021F00043E5D40708F071C0C11582E5D80708F49B
:1022000067C0CE018370992721E030E002C0220F21
:10221000331F8A95E2F7C695C69580E2C89FE00114
:10222000112452C0C11599E5D907A8F4C11528E5B4
:10223000D20708F06BC0C11536E5D30708F06FCFA1
:102240008C2F0E94790AC82FD0E0DC2FCC27CC2716
:10225000DF71D0623FCFC1154AE5D40708F45BC0F7
:10226000CE0190568115904208F059CF8D2F8F7175
:102270000E94790A90E0982F882788279F719C01F7
:102280002C2BE901E6CFC55AD0E0C85BDE4FC881F0
:10229000D0E0D0641FCFCE01E4E096958795EA9513
:1022A000E1F783702C2F26952695237040E2249F1A
:1022B00090011124382B8C2F8370C1E0D0E002C034
:1022C000CC0FDD1F8A95E2F7C22BD32BDC6802CF3F
:1022D000DC2FCC27C16FD06AFDCECE018370992749
:1022E00021E030E002C0220F331F8A95E2F7C69545
:1022F000C69590E2C99FE0011124C22BD32BDA6866
:10230000E9CEDC2FCC27C46FD06AE4CEDC2FCC27FB
:10231000C06FD06ADFCE8C2F8F700E94790A34E0B4
:10232000D695C7953A95E1F7CF709C2FEC01D0690F
:10233000D1CEC9E3D0E0CECEC2EED0E0CBCEC6EE59
:10234000D0E0C8CEBF92CF92DF92EF92FF920F9370
:102350001F93CF93DF938C01C090CC06D090CD0615
:10236000E090CE06F090CF0680914D0690914E06FB
:10237000A0914F06B0915006C82AD92AEA2AFB2A12
:10238000CFE1D0E0BC2ED701C6010C2E04C0B6951B
:10239000A795979587950A94D2F780FD0EC021974F
:1023A00088F7B12C8B2DDF91CF911F910F91FF906A
:1023B000EF90DF90CF90BF900895B8018C2F0E94CE
:1023C0001810019761F3EECFCF93DF93EC010E94D9
:1023D000A211BE01DF91CF910C9418100E94E4115C
:1023E000292F2F7092959F7092509E3078F4E92F8C
:1023F000F0E0E75EF64D0C94E727803F19F020F4FB
:10240000883E20F481E00895843FE1F380E0089560
:10241000883EC0F3813FD1F7F5CF822F8695869510
:10242000869508956F927F928F929F92AF92BF92FE
:10243000CF92DF92EF92FF920F931F93CF93DF9390
:102440008FECC82E83E0D82E98EFE92EF12CE7010F
:10245000C45BD10936011BC0F50185909490692DAC
:10246000C8010E948028682DC80101960E9480281A
:1024700082E0A80EB11C0E5F1F4FC017D10761F795
:102480008EE1680E711C6E96CE15DF0529F08E0167
:102490000E5111095301E0CF7E0184EBE80EF11CCF
:1024A00084EBC80ED11C88ECE81683E0F80679F6B8
:1024B000DF91CF911F910F91FF90EF90DF90CF9020
:1024C000BF90AF909F908F907F906F900895CF9323
:1024D000DF93C6EFD2E060E0CE010E948028219613
:1024E000C11584E0D807B9F7DF91CF910895CF9354
:1024F000C82F6FEF811160E282E290E00E94802895
:102500006FEFC11169E083E290E00E9480286FEFD5
:10251000C11168E284E290E0CF910C9480288F9200
:102520009F92AF92BF92CF92DF92EF92FF920F9362
:102530001F93CF93DF93FC01B280948081E084836A
:10254000C7E4D3E004EC11E08BE4A82E8824839444
:10255000EE24EA94F12C2BE4C22ED12C91101DC054
:102560001B821A8298014A81698188810E94E00950
:1025700025960D5F1F4F85E0CC3CD80779F7DF919A
:10258000CF911F910F91FF90EF90DF90CF90BF9070
:10259000AF909F908F900C94AD0C2B81222309F16A
:1025A00021502B833C818A2D821B311101C0822F47
:1025B00090919A06899FC0011124B6010E94BF27FD
:1025C0006A83211104C0332311F01C82AB8222E004
:1025D0002B1540F280919806888380919906898313
:1025E000C1CF0E944F28823091400CF0BBCF82E0D7
:1025F0008B15C0F40E944F28B7010E94D32788830F
:1026000022E02B1590F40E944F28209199062695E0
:10261000622F70E00E94D327280F29831A82AB8291
:102620008C82A0CF80919806EACF20919906F5CFB1
:102630006CEE7EEF90E080E00E949E2860E082E0F9
:1026400090E00E94802860E083E090E00E94802873
:1026500010924D0610924E0610924F0610925006A0
:1026600060E084E090E00E94802860E081E290E0F9
:102670000E94802860E085E090E00E94802860E071
:1026800086E090E00E9480286FEF87E090E00E9453
:10269000802840E050E0BA0188E090E00E94922853
:1026A00060E08DE090E00E94802840E050E0BA01B8
:1026B00088E190E00E94922860E087E190E00E942B
:1026C000802840E050E0BA018CE190E00E9492281E
:1026D00060E080E290E00E94802840E050E0BA0193
:1026E0008FE090E00E94922840E050E0BA0183E140
:1026F00090E00C949228CF92DF92EF92FF926B01C0
:102700007C010E94CA09B701A60188E090E0FF9011
:10271000EF90DF90CF900C9492285F926F927F920F
:102720008F929F92AF92BF92CF92DF92EF92FF92E1
:102730000F931F93CF93DF9300D00F92CDB7DEB7E7
:10274000182F762E042F622E9091970690FF29C0A5
:10275000E92FE695AE2FB0E0A35EBE4F8C9180933B
:1027600084069E7F923081F59E012F5F3F4F812F1F
:102770000E94E0094B8169818A810E947B0E10933F
:1027800098067092990600939A06662051F060911F
:102790009706709198068091990690919A060E94EA
:1027A0007B130F900F900F90DF91CF911F910F919E
:1027B000FF90EF90DF90CF90BF90AF909F908F9061
:1027C0007F906F905F900895823019F400919A067F
:1027D000D6CF863019F410919806D1CF8930D9F32D
:1027E000893169F6E9518E2F8170582EE695F0E017
:1027F000E653FD4FA590B490BB2484ECE82E81E015
:10280000F82ED12CC12C91E8892E912CC601B4014F
:102810000E94BF27812F511013C0860F9701402FB0
:10282000672D0E94E009CA0CDB1C83E0E80EF11C56
:1028300087E4E81683E0F80649F70E94AD0C9FCFC5
:10284000861BECCFE7E9F6E0438128E0421B08F461
:1028500040E021E0628181810C948D13E7E9F6E08C
:10286000438128E0420F08F44FEF21E0628181812B
:102870000C948D13E7E9F6E0628128E0621B08F40E
:1028800060E021E0438181810C948D13E7E9F6E05B
:10289000628128E0620F08F46FEF21E043818181BB
:1028A0000C948D13E7E9F6E0818121E04381628198
:1028B00088500C948D13E7E9F6E0818121E0438193
:1028C0006281885F0C948D1380919B06882319F098
:1028D000815080939B066091970670919806809135
:1028E000990690919A060C947B1380919B068330F5
:1028F00018F48F5F80939B066091970670919806FD
:102900008091990690919A060C947B13E7E9F6E082
:1029100083E0808311828FEF828380EA8383148235
:1029200060817181828193810C947B1310924B069C
:1029300080911C01E0EAF1E0882359F080915F0664
:1029400087FF07C08EE1DF011D928A95E9F70C949D
:10295000B30886E0F8CF1F93CF93DF93CDB7DEB7F0
:10296000AA970FB6F894DEBF0FBECDBF83EC96E0FA
:102970002091F100DC012D93CD01B6E08B3C9B074B
:10298000B9F78091C406833009F471C0B8F481307E
:1029900009F448C0823009F4B2C08091E80083FF96
:1029A0003AC18091C3069091C4069A3008F033C1B1
:1029B000E92FF0E0E95DF64D0C94E7278A3009F441
:1029C0008DC08B3009F470C0893039F78091C3060F
:1029D000813219F78091C7069091C806009711F0CF
:1029E0000297D9F68091E800877F8093E800809174
:1029F000E80082FF37C09091F3008091F2000297C7
:102A000029F48091F1008B7F813021F48091F100D5
:102A100080939F068091E8008B778093E8000E9466
:102A2000E704BBCF8091C306813A09F0B6CF80910D
:102A3000E800877F8093E8008091C7069091C806E0
:102A4000892B61F460E280EA96E070E00E949905CB
:102A50008091E8008B778093E8009FCF60E090E062
:102A600080E0F3CF8091CB068111C1CF96CF8091CA
:102A7000C306813A09F091CF8091C7069091C806AC
:102A8000892B09F08ACF8091E800877F8093E80046
:102A90008091E80080FFFCCF80911C018093F100C1
:102AA0008091E8008E77B9CF8091C306813209F01A
:102AB00074CF8091C7069091C806892B09F06DCF1D
:102AC0008091E800877F8093E8000E94E70480916E
:102AD000C50680931C010E9496145FCF8091C306A7
:102AE000813209F05ACF8091E800877F8093E80017
:102AF0000E94E7048091C60680939E064ECF809187
:102B0000C306813A09F049CF8091E800877F80931E
:102B1000E8008091E80080FFFCCF80919E06BECF48
:102B2000803899F0823809F076C08091C7068F709E
:102B3000873008F070C08093E9008091EB0085FB3E
:102B4000882780F91092E90006C08091C006909114
:102B5000C106911182609091E800977F9093E80000
:102B60008093F1001092F1008091E8008E77C0C14F
:102B7000882309F4ADC1823009F04DC08091C506AB
:102B80008111B1C18091C7068F702FEF280F2630B9
:102B900008F041C08093E9002091EB0020FFA3C121
:102BA000933031F48091EB0080628093EB009BC105
:102BB0009091EB0090619093EB0021E030E001C038
:102BC000220F8A95EAF72093EA001092EA0080919A
:102BD000EB008860EACF81111EC01091C5061F77F7
:102BE0008091E3008078812B8093E3008091E8005E
:102BF000877F8093E8000E94E7048091E80080FFCF
:102C0000FCCF8091E30080688093E30082E01111A3
:102C100083E08093CB068091E80083FF0AC0809117
:102C2000E800877F8093E8008091EB0080628093CA
:102C3000EB00AA960FB6F894DEBF0FBECDBFDF91B2
:102C4000CF911F9108958058823028F72091C506B2
:102C50003091C6062C3DE3E03E07A1F583E08A8370
:102C60008AE289834FB7F894DE01139620E03EE0B4
:102C700051E2E32FF0E050935700E49120FF03C0AE
:102C8000E295EF703F5FEF708E2F90E0EA30C0F07A
:102C9000C7968D939D932F5F243159F74FBF809135
:102CA000E800877F8093E8006AE270E0CE01019639
:102CB0000E9499058091E8008B778093E800ABCF64
:102CC000C096E7CF8091C7069091C806432F55273D
:102CD0004330510509F44AC078F54130510509F4F3
:102CE00085C08BE590E0E4E5F7E04230510509F05E
:102CF00092CF2091E800277F2093E8002091C90619
:102D00003091CA068217930708F49C0140E0211510
:102D1000310509F070C041116EC08091E80082FD5C
:102D2000C9CF8091CB06882329F2853019F2809192
:102D3000E80083FFF2CFBECF4132510509F447C00E
:102D40004232510509F067CF8330910508F063CF17
:102D5000FC01EE0FFF1FEF56FE4F0190F081E02DBA
:102D600082579E4FDC018C9190E01DC033272130AB
:102D70003105E9F02115310579F022303105F9F0FE
:102D80002330310509F047CFE1ECF7E0E4918E2FD5
:102D900090E0E1ECF7E007C0E3EFF7E0E4918E2F7D
:102DA00090E0E3EFF7E0009709F435CFA2CFEFED25
:102DB000F7E0E4918E2F90E0EFEDF7E0F4CFE7EC51
:102DC000F7E0E4918E2F90E0E7ECF7E0ECCF833072
:102DD000910508F020CF880F991FFC01E956FE4F9E
:102DE0000190F081E02D89E090E083CF82E190E0D6
:102DF000EFEAF7E07ECF8091CB06882309F45ACF23
:102E0000853009F457CF8091E80083FD53CF80913E
:102E1000E80082FD82CF8091E80080FF78CF90911A
:102E2000F3008091F2002115310519F088309105E9
:102E300050F041E0089709F040E08091E8008E777B
:102E40008093E80064CF44914093F1003196215083
:102E500031090196E8CF803809F0DDCE8091E80095
:102E6000877F8093E8008091C2068093F1007CCE3A
:102E70008111D1CE1091C506123008F0CCCE8091D0
:102E8000E800877F8093E8001093C2060E94E70461
:102E9000112311F084E005C08091E30087FDFACF93
:102EA00081E08093CB0642E061EC81E00E94060560
:102EB00042E261EC84E00E94060542E261EC82E0BD
:102EC0000E94060542E260EC83E00E940605A3CE64
:102ED0008091C506813009F09ECE81E0933009F0E3
:102EE00080E08093C1061092E9008091E800877F1E
:102EF0008093E8000E94E7048ECE60919706669565
:102F000070E04BE050E084E091E00E945F28892B64
:102F100019F481E0809385060E9437079093650637
:102F20008093640608959091970690FF36C0917043
:102F3000811129C0926090939706662351F06091A9
:102F40009706709198068091990690919A060E9432
:102F50007B1360919706669570E04BE050E084E04B
:102F600091E00E945F28892BA9F01092850681E0EC
:102F70008093670620E040919A06609199068091BF
:102F800098060C948D138B3210F09465D4CF880F73
:102F9000982BD1CF0E947D17EACF08958091970694
:102FA0008695815009F48AE261E00C949317809130
:102FB000970686958F5F8B3208F081E061E00C9474
:102FC00093179091970690FF07C09695981720F059
:102FD000961710F40C94D71761E00C9493174F9246
:102FE0005F926F927F928F929F92AF92BF92CF9299
:102FF000DF92EF92FF920F931F93CF93DF9300D056
:1030000000D00F92CDB7DEB77C01FC0183819481A3
:10301000892B31F08081918189238F3F09F0F8C598
:103020000F900F900F900F900F90DF91CF911F9105
:103030000F91FF90EF90DF90CF90BF90AF909F9057
:103040008F907F906F905F904F9008950E94A21193
:10305000182F682F89819A810E943C0869817A81A2
:10306000812F0E940B108C01F7019281992309F4A2
:10307000C4C5980122513F452031310508F094C55F
:103080008FEF93E00E946C28025156EF852E52E09C
:10309000952E882379F180914806877009F4C0CF76
:1030A000F7018281882309F4BBCF82E00F900F9053
:1030B0000F900F900F90DF91CF911F910F91FF9084
:1030C000EF90DF90CF90BF90AF909F908F907F90C8
:1030D0006F905F904F900C9419098114F4E09F0653
:1030E000D1F2C4010E946C28811101C001502FEF60
:1030F000821A920A0111F1CF1C821B82662463940A
:103100004AE0542E84010F5F1F4FC4010E946C28B7
:1031100089831A82882309F4BECF9FEF980F9330DA
:1031200008F58A83698232E0830E911CC8010E94EF
:103130006C288B83882309F4AECF8E010F5F1F4F5D
:10314000F80120812223F1F2213009F043C091815E
:103150008281913049F40E5F1F4F0E94370C0F5F40
:103160001F4FEECF4801E9CF923029F40E5F1F4F79
:103170000E94820BF4CF933029F40E5F1F4F0E9400
:103180006809EDCF943019F00F5F1F4FE8CF0E5F45
:103190001F4F30E020E0B8016F5F7F4FF8014181A1
:1031A0008053990B8A30910550F021503109B8F2C3
:1031B0008FE99FE00197F1F700C00000F6CF529E23
:1031C000F001539EF00D11249C012E0F3F1F842F00
:1031D0008B01E1CFE22FF0E0E154F94F7490822FA0
:1031E00086958695869590E0FC01E155F94FA4906F
:1031F0002770B12C022E02C0B594A7940A94E2F76E
:10320000E1E0AE22BB24FC01E156F94FC490D12C81
:1032100002C0D594C7942A95E2F7F1E0CF22DD24CD
:10322000A114B10419F081EE0E94820BC114D104E3
:1032300019F086EE0E94820B872D0E94370CCD2854
:1032400019F086EE0E946809AB2809F488CF81EE58
:1032500096CF81E00E9431090E94DA081CCF81E0FC
:103260000E94F608F9CF82E0F5CF053F2CE5120762
:1032700009F465C008F45DC0063F8CE5180709F441
:1032800064C0992309F4D5C41092D2050230ECE54C
:103290001E0708F442C10631FCE51F0738F098010B
:1032A0002A5F3C452930310508F037C10E94D70F0D
:1032B0009093600680935F0600312CE5120709F4B5
:1032C000FBC008F085C008308CE5180709F4E6C09B
:1032D00008F057C00430ECE51E0709F4D3C008F02D
:1032E00040C002302CE5120709F4C6C080915F0689
:1032F000826003301C4509F4C2C060915F061091E2
:10330000600684E090E00E948028612F81E290E0D6
:103310000E9480280E949614BECE07E225EE45EE5C
:1033200068ED7CE566C406E221EE40EE63EF7CE5E5
:1033300060C407E225EE44EE64EF7CE55AC406E281
:1033400021EE42EE65EF7CE554C407E225EE46EE41
:1033500066EF7CE54EC408E221E045EE69ED7CE5D0
:1033600048C406308CE5180709F494C080915F06C4
:10337000886007301C4508F482C080915F06806237
:103380007EC080915F068D7F0C30ECE51E0709F44E
:1033900076C070F480915F068C600A302CE51207CD
:1033A00009F46DC008F47EC080915F068E7F67C00F
:1033B0000E308CE5180709F47BC080915F068B7F87
:1033C0000F301C4508F45BC080915F068F7E57C0AC
:1033D0000B3FECE51E0709F459C030F503312CE52D
:1033E000120709F471C078F401318CE5180709F46B
:1033F00067C002311C4509F080CF0E94961480916D
:103400005F068F773CC00531ECE51E0709F464C008
:1034100008F478C08091600681600A3F1C4509F07D
:103420006CCF8093600669CF0F3F3CE5130709F42A
:103430004FC088F4809160068D7F0D3F9CE5190791
:1034400081F3809160068E7F0E3F1C4550F3809182
:1034500060068360E6CF0130FDE51F0709F45BC01D
:1034600008F446C060E002301D4509F046CF8EE00A
:1034700090E00E94802841CF80915F068160809318
:103480005F063BCF80915F068460F9CF8091600634
:103490008260C7CF80915F068061F1CF80915F0627
:1034A0008064EDCF0E94961480915F068068E7CF1C
:1034B00080915F06877FE3CF80915F068F7DDFCFAE
:1034C00080915F068F7BDBCF80915F06837FD7CFB4
:1034D000809160068C7FA5CF80915F0682FB992743
:1034E00090F921E0922790FB82F990FB83F9C7CFF6
:1034F00080916006982F909591708E7F892B90FB1C
:1035000081F98FCF0E94961490915F06892F97FBC7
:1035100087F98058B4CF61E0AACF80914B0606317D
:10352000ECE51E0709F091C38A7A91E009F490E076
:103530009093D305811106C089E20E94E0070E94A2
:103540007007A9CD85E3F9CF85E37CC38091970609
:1035500080FF1BC08E7F80939706609197067091C5
:1035600098068091990690919A060E947B1310927A
:103570008506FFEF20E732E0F15020403040E1F7D0
:1035800000C000000E94AD0C86CD8160809397063C
:1035900061E086950E9493177ECD4EEC57E167ED72
:1035A00077E10E94C50977CD47ED57E16EEC77E1F1
:1035B000F8CF42E554E16BE574E1F3CF4BE554E11C
:1035C00062E574E1EECF4AE354E166E474E1E9CFE9
:1035D00046E454E16AE374E1E4CF42E254E16EE28E
:1035E00074E1DFCF4EE254E162E274E1DACF44E607
:1035F00054E165E774E1D5CF45E754E164E674E151
:10360000D0CF61E081E0C6CF65E082E00E94E117A3
:1036100042CD68E086E0FACF6EE089E0F7CF64E162
:103620008FE0F4CF67E185E1F1CF61E088E1B2CFCF
:1036300062E289E1EBCF61E083E2ACCF01158CE57A
:10364000180709F447C00E3D1C4509F450C0F701A6
:1036500000811181992309F44DC0C8010E94A21173
:10366000D82E682FC8010E943C08B8018D2D0E94F9
:1036700018108C01882EF701A580A2943FE0A322A8
:10368000D280D11010924A0680914806877099F036
:10369000DD2089F0812F807F803421F080E2800F4F
:1036A000883048F082E00E941909809148068770AE
:1036B000CC24C3948111C12CB12EB2942FE0B2223C
:1036C000FBE0FB1508F450C0EB2DF0E0EF5CF64D8D
:1036D0000C94E7270E949614FFEF24E33CE0F1509E
:1036E00020403040E1F700C000000E945E0B0E94C5
:1036F0001813D1CCC8010E941408D82EB6CF212FA0
:103700002F70A22E107F19F0A29490EFA922DD2035
:10371000C9F0AA2069F080E2800F883010F0811093
:103720000BC080914B06A82AA0924B060E947007FE
:10373000802F0E94820B18C080914A06A82AA0926E
:103740004A06F4CF802F0E946809AA2069F0A0944D
:10375000005E083010F081103DC080914B06A82219
:10376000A0924B060E947007EB2DE850FF0B349798
:1037700020F40E945C090E94BC0ACC2009F450CCC1
:103780008091480680FD4CCCF70112828595859585
:1037900085950E943109C7010E94EF178091480664
:1037A0008595859585950F900F900F900F900F90B0
:1037B000DF91CF911F910F91FF90EF90DF90CF900D
:1037C000BF90AF909F908F907F906F905F904F9041
:1037D0000C94F60880914A06A822A0924A06C2CF0D
:1037E000312F3F70932E107F103219F0929480EF9A
:1037F0009822882071F081E0881661F1DD20B9F10E
:10380000AA2071F1F701858180FF92CF8F708583A7
:1038100027C0DD2091F090914C06892D892BA110B5
:1038200003C00E947D08A0CFE1E0AE12FACF981746
:1038300009F49ACF80934C0697CFA11006C00E943E
:103840006A07892D0E9472088FCFF1E0AF1609F444
:103850008BCFF5CFDD2031F025E02A1508F484CF99
:10386000892DDFCF34E03A1508F47ECFEACFAA20C5
:1038700041F3F9E38F1291C12FEF37EE83E021502E
:1038800030408040E1F700C0000087C1812F86955D
:103890008695837061F0813009F066CFC80193701E
:1038A000D11002C090E080E00E9487085DCFC8017F
:1038B0009370D11002C090E080E00E949D0854CF28
:1038C000802FDD2029F00E94C0060E9443074CCFC4
:1038D0000E94FB05FACF812F837009F066C0D110DA
:1038E00043CF802F829586958770880F880F602F31
:1038F0006F70462E512C712C612C082E04C0440C84
:10390000551C661C771C0A94D2F740E050E0BA01BF
:1039100004FF0FC04FE050E060E070E004C0440FCF
:10392000551F661F771F8A95D2F740955095609571
:103930007095812F869586958370823019F1D8F421
:1039400000914D0610914E0620914F063091500681
:10395000813069F04429552966297729CB01BA01BC
:1039600060237123822393230E945209FDCE402AB3
:10397000512A622A732ACB01BA0164297529862942
:103980009729F2CF442955296629772900914D06B8
:1039900010914E0620914F0630915006CB01BA018E
:1039A0006027712782279327DFCF8695DD2011F0CE
:1039B000812F8170882309F4D7CE802F8295869538
:1039C0008770880F880F602F6F70462E512C712CD6
:1039D000612C082E04C0440C551C661C771C0A94EC
:1039E000D2F740E050E0BA0104FF0FC04FE050E0D2
:1039F00060E070E004C0440F551F661F771F8A9572
:103A0000D2F74095509560957095812F8695869553
:103A10008370823019F1D8F40091CC061091CD0654
:103A20002091CE063091CF06813069F04429552986
:103A300066297729CB01BA0160237123822393235E
:103A40000E94D00891CE402A512A622A732ACB01C3
:103A5000BA016429752986299729F2CF4429552965
:103A6000662977290091CC061091CD062091CE06CB
:103A70003091CF06CB01BA016027712782279327A7
:103A8000DFCF1F70DD2029F0812F0E943109802FA8
:103A9000C8CE802F0E947208812F0E94F60864CE43
:103AA000802F92EF891609F450C0981578F0E0EF56
:103AB0008E1619F1F1EF8F1609F43FC0DD2009F4DD
:103AC00067C0A11035CE812F8F713CC023EF8216C5
:103AD00009F440C034EF8312F1CFDD2009F44DC06A
:103AE0001F71812F0E943109E8E01E9FC00111243F
:103AF000836080934806812F25C0DD20C9F084E0D3
:103B00008A1508F431CE1F7161E070E080E090E02A
:103B100004C0660F771F881F991F1A95D2F700916E
:103B2000CC061091CD062091CE063091CF06A4CFC1
:103B300095E09A1508F418CEE6CF812F8F71DD201D
:103B400009F4ABCF0E9431090FCE812F8F71DD2098
:103B5000C9F3A3CF60E070E0CB01DD2009F470CFA2
:103B60001F7161E070E080E090E004C0660F771F95
:103B7000881F991F1A95D2F763CF81E00E94190917
:103B8000F1E0FA1508F0F0CD82E00E941909ECCDC1
:103B9000AA2039F0893309F46FCE802F0E9468097A
:103BA000E3CD812F8F7179CF0031FFE51F0709F435
:103BB00050CB01312FE5120709F455CB033F2CE51B
:103BC000120709F4B0CB08F050CB083D8CE518077C
:103BD00009F4A3CB093DECE51E0709F4BCCB073D76
:103BE000FCE51F0709F04DCB06E221EE41EE67ED43
:103BF0007CE5C7010E944A0C4ECA00313FE513071D
:103C000009F42DCB01318FE51807C1F682E028CBEE
:103C100085E0DE01119601900D928A95E1F7F7019A
:103C2000228189819A81211111CA0E941408182FBA
:103C300015CA06311C4509F00ACD8091D3058111C2
:103C400083CC89E20E94B5077ACC8272F801E25CEB
:103C5000FC45E431F10508F0F1CCE35CF64D0C9441
:103C6000E7271F93CF93DF938091D905807FA9F435
:103C70008091D605882389F080910B06D091DA05D2
:103C80006091D4057091D505A091D705B091D80564
:103C9000C62FC72316E0D81304C0DF91CF911F9120
:103CA000089590E0109711F0CF3F19F401968770B6
:103CB000F2CF189F9001199F300D1124F901E552A0
:103CC000FA4F41814713F2CF40814613EFCF428133
:103CD0004111ECCF438154814A1B5B0B483C510599
:103CE00028F78091D9058F7080618093D905F901FB
:103CF000E052FA4F80818F708061808384ED95E07F
:103D00000E94EF17DF91CF911F910C946808AF923A
:103D1000BF92CF92DF92EF92FF920F931F93CF93B8
:103D2000DF93CDB7DEB761970FB6F894DEBF0FBE55
:103D3000CDBF8C0185E0F801DE011D9601900D924A
:103D40008A95E1F7F80180819181E28024EDA22E2D
:103D500025E0B22E6091D7057091D80561157105E7
:103D600009F43EC13091D4054091D505232F242379
:103D70002F3F09F435C1C380D480F090D605F601F9
:103D8000E61BF70BFF2009F4FBC02091D905522F49
:103D9000507FE83CF10508F0BBC0511178C0FE2C03
:103DA000491321C038131FC0E1101DC02F702061BE
:103DB0002093D905C5010E94EF178091D905F8011C
:103DC00085838F2D61960FB6F894DEBF0FBECDBFF1
:103DD000DF91CF911F910F91FF90EF90DF90CF90E7
:103DE000BF90AF900895CD2829F0282F29232F3F89
:103DF00009F014C120E0F22FF170DF2E20FF3DC04A
:103E000020910B064091DA0556E0241315C08D87EA
:103E10009E878D859E850E94E411292F22952F7003
:103E20002230F8F0243020F59F70F9F0F8019581E8
:103E3000907FD9F4D12C1FC030E0529FF001539FE6
:103E4000F00D1124E552FA4F6181961306C060818E
:103E5000861303C06281E61210C02F5F3F4F2770A8
:103E6000D4CF9F7011F0882329F3805E883010F33F
:103E7000C8010E94EF17FD2CA4CFEE2009F4A1CFBA
:103E80008091D90581608093D905F12C9ACF49138F
:103E900012C0381310C0E1100EC0F8012583C8010C
:103EA0000E94EF1786E0F801A4EDB5E001900D92B5
:103EB0008A95E1F786CF8D879E878D859E850E94A6
:103EC000EE11882309F1EE20F9F08091D9058032B6
:103ED00070F02091D4053091D50538872F8319864D
:103EE000DB86CA868C87CE0107960E94EF1786E094
:103EF000F801A4EDB5E001900D928A95E1F70E94DA
:103F0000311EFF24F3945DCFC8010E94EF17F9CF53
:103F100051110AC084ED95E00E94EF1786E0F5018B
:103F200011928A95E9F7B1CF49130FC038130DC02C
:103F3000E1100BC0F8012583C8010E94EF1786E04D
:103F4000F50111928A95E9F73CCF8D879E878D8583
:103F50009E850E94EE118823B9F2EE20A9F280918D
:103F6000D905803220F22091D4053091D5053A83CD
:103F700029831B82DD82CC828E83CE010196B5CF50
:103F8000E83CF105E0F6FE2CEE2009F4BDCF491324
:103F900016C0381314C08091D90580FD83CF982FA7
:103FA000907F09F47FCFF8018583903F09F477CFA4
:103FB000982F907F905F8F70892B858370CF8D872E
:103FC0009E878D859E850E94EE11811190CF8091F4
:103FD000D90581608093D905C8010E94EF17F1CE01
:103FE000EE2009F491CF8D879E878D859E850E9456
:103FF000EE11F82E882309F487CF86E0F801A4EDAE
:10400000B5E001900D928A95E1F78091D4059091E9
:10401000D5050E94E4110E94311ED3CE21E02E2549
:10402000EACE1F93CF93DF93CDB7DEB767970FB676
:10403000F894DEBF0FBECDBF4B8B5C8B6D8B7E8B40
:104040008F8B1A8A198A85E0FE017396DE011D9610
:1040500001900D928A95E1F786E0FE013D96DE0122
:10406000179601900D928A95E1F7CE0107960E946E
:10407000871E882389F016E080910B069091DA055F
:10408000891349C067960FB6F894DEBF0FBECDBF47
:10409000DF91CF911F91089586E0FE013796DE01F2
:1040A000119601900D928A95E1F78A859B85892B5F
:1040B00011F38F81988589238F3FE9F22091DA05EA
:1040C00030E0C90101968770992740910B06481787
:1040D000190671F40E9496141092DA0510920B06DC
:1040E00086E0E4EDF5E0DF011D928A95E9F7C3CFA4
:1040F00096E0929FD001939FB00D1124A552BA4F24
:10410000FE01319601900D929A95E1F78093DA05C0
:104110000E946808B0CF819FC001112485529A4F38
:104120000E94871E882309F4ADCF80910B0690E092
:1041300001968770992780930B069ECF1F920F924E
:104140000FB60F9211242F933F934F935F936F936A
:104150007F938F939F93AF93BF93CF93DF93EF930F
:10416000FF93D091E900DF708091EC00C82FC170FF
:1041700080FDC0E81092E9008091F000877F809375
:10418000F00078940E94AB141092E9008091F00046
:1041900088608093F000CD2BCF70C093E900FF9131
:1041A000EF91DF91CF91BF91AF919F918F917F91CF
:1041B0006F915F914F913F912F910F900FBE0F9094
:1041C0001F9018951F920F920FB60F9211242F93E4
:1041D0003F934F935F936F937F938F939F93AF938F
:1041E000BF93EF93FF938091E10082FF09C080911C
:1041F000E20082FF05C08091E1008B7F8093E100A7
:104200008091DA0080FF24C08091D80080FF20C018
:104210008091DA008E7F8093DA008091D90080FF50
:10422000B2C080E189BD82E189BD09B400FEFDCF45
:1042300081E08093CB0680919606811109C00E948F
:1042400045040E9438058091E20084608093E2007A
:104250008091E10080FF17C08091E20080FF13C0D1
:104260008091E2008E7F8093E2008091E200806185
:104270008093E2008091D80080628093D80019BCBE
:1042800085E08093CB068091E10084FF40C080915F
:10429000E20084FF3CC080E189BD82E189BD89B52F
:1042A000982F917080FFFBCF8091D8008F7D8093F5
:1042B000D8008091E1008F7E8093E1008091E20040
:1042C0008F7E8093E2008091E20081608093E20023
:1042D0008091C206882309F45CC084E08093CB06F9
:1042E0000E9496140E945C090E94BC0A10929D06CE
:1042F00080919C06882349F0809197068160809385
:10430000970660E086950E9493170E947D17809122
:10431000E10083FF27C08091E20083FF23C08091EA
:10432000E100877F8093E10082E08093CB061092CA
:10433000C2068091E1008E7F8093E1008091E200CF
:104340008E7F8093E2008091E20080618093E200A2
:1043500042E060E080E00E9406058091F000886005
:104360008093F000FF91EF91BF91AF919F918F915A
:104370007F916F915F914F913F912F910F900FBE61
:104380000F901F90189519BC1092CB0610929606AC
:104390005FCF8091E30087FD93E09093CB06A0CFA1
:1043A000CDB7DEB7AA970FB6F894DEBF0FBECDBF6C
:1043B00084B7877F84BF0FB6F894A895809160007A
:1043C000886180936000109260000FBE80E890E0EA
:1043D0000FB6F89480936100909361000FBE85B78B
:1043E000806885BF85B7806885BF0E9445040E94AC
:1043F00038058091E20084608093E2007894809197
:10440000CB068823A1F01091E9001F709091EC0079
:10441000892F817090FD80E8182B1092E90080911F
:10442000E80083FD0E94AB141F701093E90082E046
:1044300084BD93E095BD9AEF97BD80936E00A9E788
:10444000B1E04FE751E061E070E08D91E82FE29537
:10445000EF70F0E011A18F709B0101C0220F8A95CF
:10446000EAF7922F9095912391A382A1822B82A3A8
:104470004A175B0751F7AFE7B1E04EE851E061E062
:1044800070E08D91E82FE295EF70F0E011A18F7050
:104490009B0101C0220F8A95EAF7922F90959123F4
:1044A00091A382A1822B82A34A175B0751F7E2E511
:1044B000F6E08EE596E0A6E8B6E0119211921D9224
:1044C0001D928E179F07C9F70E94090F8FE39CE981
:1044D0000197F1F700C000000E94090F8091860645
:1044E00080FF0BC080E00E9477126FEF7FEF90E0BB
:1044F00080E00E949E280E945E0B90E080E00E9477
:104500007A288C3E9E4F11F00E94181382E290E0B0
:104510000E946C28803209F0BBC483E290E00E94C4
:104520006C28893009F0B4C484E290E00E946C28C1
:10453000883209F0ADC490E080E00E947A288C3E79
:104540009E4F11F00E94181382E090E00E946C28A8
:10455000809377060E94D70F9093600680935F0642
:1045600083E090E00E946C28682F70E090E080E08B
:104570000E94520980915E06811136C090E080E071
:104580000E947A288C3E9E4F21F00E9418130E94B0
:10459000861488E090E00E947428609397067093D8
:1045A00098068093990690939A066E7F71F40E9404
:1045B000861488E090E00E947428609397067093B8
:1045C00098068093990690939A060E94CA091092C1
:1045D00085068091970680FF04C060E086950E9462
:1045E000931781E080935E0660915F066068609338
:1045F0005F061091600684E090E00E948028612FA1
:1046000081E290E00E94802882E191E0909362062E
:1046100080936106E2E4EE2EE7E0FE2E8091CB0669
:10462000853009F481C10E94090FE8E7F6E0A6E8A9
:10463000B6E010E000E0602F8D919D914191519185
:104640004817590709F4D2C14827592720E0CC243C
:10465000C394D12C5A01AC20BD20AB2809F4C0C1B1
:1046600029A36AA39C012C213D2191E0232B09F46D
:1046700090E09BA30E9437078160782F9DA38CA3B5
:1046800049A15AA16BA18DA10E941120000F111FF9
:10469000F801E858F94F80819181C826D926D18246
:1046A000C08280918506882309F441C080918406E8
:1046B000E0919706E695E81BE0936606823009F0E4
:1046C000ACC1F0E0E05BF84FE4910E2F10E085EE16
:1046D000C82E8EE0D82E80916706882389F010922C
:1046E00067060E943707980120953095820F931F27
:1046F000909365068093640610926906109268068E
:1047000080916406909165060E94280780179107A2
:1047100070F0E0916406F09165060E0F1F1F109374
:1047200065060093640684E696E0F601099586E046
:10473000E0E7F6E0DE01119601900D928A95E1F72F
:10474000D0907206C09073061091740600917506A1
:1047500010927206109273061092740610927506EB
:104760008D2D8C2909F448C080916E0690916F06BA
:104770000E9428079C0190916D06992309F4A3C318
:1047800023333105C8F19F3F19F09F5F90936D0669
:10479000DD2059F00E94A0069FEF1D140CF491E05B
:1047A000899F802D112480937206CC2059F00E949D
:1047B000A0069FEF1C140CF491E0899F802D11241A
:1047C00080937306309172063323B1F02091730603
:1047D000222391F045EB3403C0011124992309F4FD
:1047E00087C19093720645EB240390011124332373
:1047F00009F482C130937306812F802B09F448C0DD
:1048000080916B0690916C060E9428079C01909104
:104810006A06992309F452C325363105C8F19F3F32
:1048200019F09F5F90936A06112359F00E947E064B
:104830009FEF11160CF491E0899F802D1124809335
:104840007406002359F00E947E069FEF10160CF4A8
:1048500091E0899F802D1124809375063091740614
:104860003323B1F020917506222391F045EB3403F8
:10487000C0011124992309F443C19093740645EBB8
:10488000240390011124332309F43EC130937506AB
:104890008091720690917306892B90917406892BF2
:1048A00090917506892B11F00E94430786E0FE0166
:1048B0003196A0E7B6E001900D928A95E1F70E944B
:1048C0005C0990917606891731F00E945C0980930B
:1048D00076060E94BC0A8091CB06843009F09ECEF9
:1048E00083E08093E9008091E80082FF97CE809179
:1048F000E80090E085FF06C00E946404882309F464
:1049000007C191E08091E8008B778093E8009923BC
:1049100009F484CEE981E150E33108F058C1F0E0B8
:10492000EF5AF64D0C94E7278091CB06843009F4BA
:1049300044C01092630688E190E020E40FB6F8943A
:10494000A895809360000FBE2093600080E00E94D5
:10495000BC0A1092850680919D06811117C081E0E6
:1049600080939D0680919706982F917090939C0656
:104970008E7F809397064FEF80E792E04150804012
:104980009040E1F700C000000E94AD0C83B7817F2A
:10499000846083BF83B7816083BF7894889583B731
:1049A0008E7F83BF0FB6F894A895809160008861D0
:1049B00080936000109260000FBE8091C106882332
:1049C00009F42CCE0E94090FE6E8F6E0819191915E
:1049D000892B09F047C226E0E239F207B9F71ECE6B
:1049E0002F5FCC0CDD1C2F3009F034CE0F5F1F4F32
:1049F0000630110509F01FCE8FEF8EA38FA318A6E6
:104A00000E9437078160782F9AA789A74EA15FA1DE
:104A100068A58AA50E94112044CE863059F4F0E0A2
:104A2000E35BF84FE4910E2F10E0B9EFCB2EBEE020
:104A3000DB2E51CE893061F4E695F0E0E65BF84F6D
:104A4000E4910E2F10E0A2EECA2EACE0DA2E43CE97
:104A50008F3061F4E695F0E0E95BF84FE4910E2FBA
:104A600010E0FCE0CF2EFDE0DF2E35CE853159F48D
:104A7000F0E0EC5BF84FE4910E2F10E0EDE6CE2E67
:104A8000EDE0DE2E28CE08E210E059EBC52E5DE009
:104A9000D52E883109F41FCE833241F4F7010591F8
:104AA00014917CE8C72E7EE0D72E15CE04EF11E0DE
:104AB00042E4C42E4EE0D42E843209F40CCE00ED34
:104AC00017E037EFC32E35E0D32E853209F003CE41
:104AD0008E2F63E00E94B327E92FF0E0E15CF84FEE
:104AE000E4910E2F10E06FE8C62E62E1D62EF3CDD2
:104AF00081E08093720677CE81E0809373067CCE4E
:104B000081E080937406BBCE81E080937506C0CEB1
:104B100000E210E0CE0101966C018091E80085FD75
:104B20000AC08091E8008B778093E8000E946404BB
:104B3000882399F3E6CE8091F100F60181936F010D
:104B40000150110951F7DDCE1A8289E08B8319C01B
:104B50008A81823009F4A9C18330C1F08130B9F56E
:104B60002FB7F89460919206709193068091940605
:104B7000909195062FBF0E94ED276B837C838D83D8
:104B80009E83CE0101960E94BF0448CDDE0111969E
:104B9000E6E8F6E080819181329612969C93129716
:104BA00013968C931397129626E0E239F20791F749
:104BB000E8CF8A81823059F46B817C818D819E811E
:104BC0000E94ED2785E290E00E948028DACF8FEFE7
:104BD0008983D7CF4C816B818A810E94E50F98270A
:104BE000892798279E838D83CCCFCD80DE80DC24DF
:104BF000CD24DC248A810B814EE1049F80011124A5
:104C000094EB899F000D111D11248C8190E0880F79
:104C1000991F080F191F6D2DC80186960E948028C4
:104C20006C2DC8018796D0CF0E941212AACF8A811C
:104C30008138C1F060F4803809F0A3CF20E04B81C7
:104C400060919906809198060E948D139ACF8238C0
:104C500059F1833809F095CF20E040919A066C8194
:104C60008B81F2CF60E08B810E9493179B818091B2
:104C70009706911111C08E7F80939706109285063A
:104C8000EFEFF0E722E0E150F0402040E1F700C014
:104C900000000E94AD0C75CF81608093970660E0A4
:104CA00086950E9493176DCF8B8180939B0669CF69
:104CB0008A81813899F030F4803809F062CF809190
:104CC0009A0644CF823891F0833809F05ACF809108
:104CD00098068B83809199068C8353CF8091970699
:104CE00080FF02C0869532CF80E030CF80919B0656
:104CF0002DCF6091970670919806809199069091BA
:104D00009A060E947B133DCF80E18A833ACF81E0EF
:104D10008A838AE01BCF0A811B8110270127102775
:104D2000CE0101966C01AC80FC01EA0DF11D5F0122
:104D3000C8018A509D4FCA14DB0409F422CF0A30FF
:104D4000F1E01F0750F40E946C28F60184830F5F86
:104D50001F4FFFEFCF1ADF0AEBCFF6011482F7CF18
:104D60000A811B81102701271027CE0101965C01C3
:104D7000CC80C00ED12ED11CC8018A509D4FC016C8
:104D8000D10609F4FECE0A30E1E01E0720F4F50159
:104D900064810E948028FFEFAF1ABF0A0F5F1F4F88
:104DA000EBCF0E946712EDCE84E0AFCF0A811B816A
:104DB000102701271027CE0101966C01AC80FC0161
:104DC000EA0DF11D5F01C8018696AC14BD0409F41B
:104DD000D8CE003DF2E01F0750F40E946C28F60187
:104DE00084830F5F1F4FFFEFCF1ADF0AECCFF6016E
:104DF0001482F7CF0A811B81102701271027CE01CB
:104E000001965C01CC80C00ED12ED11CC8018696C3
:104E1000C016D10609F4B5CE003DE2E01E0720F42D
:104E2000F50164810E948028FFEFAF1ABF0A0F5F6F
:104E30001F4FECCF80E00E9477126FEF7FEF90E082
:104E400080E00E949E289DCECE0101960E94BF0464
:104E50002FEF41EE84E0215040408040E1F700C058
:104E6000000049CB80E189BD82E189BD09B400FE23
:104E7000FDCF8091D8008F7D8093D8008091E00095
:104E800082608093E0008091E00081FDFCCFC6CB82
:104E900060E085E290E00E9480280E9412120E9449
:104EA000671281E00E94771246CB85E290E00E9473
:104EB0006C281B821C821D828E8363CE2D32314072
:104EC00008F0AFCCE5CC2D32314008F05ECC94CC6C
:104ED00078941F921FB61F9211248F939F93AF93C4
:104EE000BF938091920690919306A0919406B09101
:104EF00095060196A11DB11D80939206909393068D
:104F0000A0939406B0939506BF91AF919F918F9116
:104F10001F901FBE1F9018951F921FB61F9211243D
:104F20008F939F93AF93BF9380916306811113C0BA
:104F30008091920690919306A0919406B091950667
:104F40004196A11DB11D8093920690939306A09364
:104F50009406B0939506BF91AF919F918F911F904A
:104F60001FBE1F901895991B79E004C0991F9617D2
:104F700008F0961B881F7A95C9F780950895AA1B9B
:104F8000BB1B51E107C0AA1FBB1FA617B70710F034
:104F9000A61BB70B881F991F5A95A9F78095909566
:104FA000BC01CD01089597FB072E16F4009407D09D
:104FB00077FD09D00E94BF2707FC05D03EF49095ED
:104FC00081959F4F0895709561957F4F0895EE0FDD
:104FD000FF1F0590F491E02D099469279627692712
:104FE00078278727782708950E940829332312F409
:104FF0008A1B9B0B0C94FE270E940829B7FF08957B
:10500000821B930B08958F929F92AF92BF92CF9283
:10501000DF92EF92FF92CF93DF93EC016881798169
:105020008A819B81611571058105910521F464E2F6
:1050300079ED8BE597E02DE133EF41E050E00E9400
:10504000B42849015A019B01AC01A7EAB1E40E94CE
:10505000D3286B017C01ACEEB4EFA50194010E9452
:10506000E128DC01CB018C0D9D1DAE1DBF1DB7FFDE
:1050700003C00197A109B04888839983AA83BB83A1
:105080009F77DF91CF91FF90EF90DF90CF90BF900F
:10509000AF909F908F9008950E940328089580E01C
:1050A00091E00E9403280895B0E0A0E08093000101
:1050B00090930101A0930201B09303010895FC01B4
:1050C0004150504030F001900616D1F73197CF0192
:1050D0000895882799270895F999FECF92BD81BD3B
:1050E000F89A992780B50895A6E1B0E044E050E031
:1050F0000C94A628A8E1B0E042E050E00C94A62869
:10510000262FF999FECF92BD81BDF89A019700B480
:10511000021639F01FBA20BD0FB6F894FA9AF99A20
:105120000FBE08950396272F0E9481280E94802891
:10513000252F0E948128242F0C9481280196272F47
:105140000E9481280C948028DC01CB01FC01F99994
:10515000FECF06C0F2BDE1BDF89A319600B40D92C3
:1051600041505040B8F70895052E97FB1EF4009467
:105170000E94CB2857FD07D00E94E62807FC03D0E9
:105180004EF40C94CB2850954095309521953F4F87
:105190004F4F5F4F089590958095709561957F4F23
:1051A0008F4F9F4F08950E940829A59F900DB49F8F
:1051B000900DA49F800D911D11240895B7FF0C94AC
:1051C000D3280E94D328821B930B0895A1E21A2EA4
:1051D000AA1BBB1BFD010DC0AA1FBB1FEE1FFF1F9B
:1051E000A217B307E407F50720F0A21BB30BE40BEB
:1051F000F50B661F771F881F991F1A9469F7609532
:105200007095809590959B01AC01BD01CF010895EB
:10521000A29FB001B39FC001A39F700D811D1124F7
:10522000911DB29F700D811D1124911D0895F89458
:10523000FFCFFD11FD11061206120812061206120A
:105240000612FD11FD110D12061206120D12901517
:10525000B8150B16B8150B16EB1523160B162B17D6
:1052600038177F1B7F1BF01BF01B461C601CB41BF8
:10527000B41B6B1C411D501D501DA61ACD1AD41A0B
:10528000D91ADE1AE31AE81AED1AF21AF71AFC1AFA
:10529000011B041B091B0C1B0F1B121B151B181BCE
:1052A0001B1BA425A825D925EA25F5251426172694
:1052B000582679261A272427842687268B26B02667
:0852C000D126D426D626FA26D9
:1052C8000100000001191A1B1C1D1E1F20212201AC
:1052D8000201F8051E0BFD0AF90AF50A0100010290
:1052E8000202020606060909090909090F0F0F0F2C
:1052F8000F0F151515181919191919191919191937
:105308002324252525252525818283E200E900EA35
:1053180000B500B600B700CD008301CC008A019229
:105328000194012102230224022502260227022ACF
:1053380002B300B4006F007000F1F7F6F5F495F0D1
:105348006766363534979632379392919033402278
:0E535800BC8A016801AC0066077F079F070052
:00000001FF
